{
	"data": {
		"bytecode": {
			"linkReferences": {},
			"object": "60a060405260016006553480156200001657600080fd5b5060405162004e9038038062004e9083398181016040528101906200003c919062000313565b808060008073ffffffffffffffffffffffffffffffffffffffff168273ffffffffffffffffffffffffffffffffffffffff1603620000b1576040517f08c379a0000000000000000000000000000000000000000000000000000000008152600401620000a890620003bb565b60405180910390fd5b81600260006101000a81548173ffffffffffffffffffffffffffffffffffffffff021916908373ffffffffffffffffffffffffffffffffffffffff160217905550600073ffffffffffffffffffffffffffffffffffffffff168173ffffffffffffffffffffffffffffffffffffffff1614620001395762000138816200017860201b60201c565b5b5050508173ffffffffffffffffffffffffffffffffffffffff1660808173ffffffffffffffffffffffffffffffffffffffff168152505050506200044f565b3373ffffffffffffffffffffffffffffffffffffffff168173ffffffffffffffffffffffffffffffffffffffff1603620001e9576040517f08c379a0000000000000000000000000000000000000000000000000000000008152600401620001e0906200042d565b60405180910390fd5b80600360006101000a81548173ffffffffffffffffffffffffffffffffffffffff021916908373ffffffffffffffffffffffffffffffffffffffff1602179055508073ffffffffffffffffffffffffffffffffffffffff16600260009054906101000a900473ffffffffffffffffffffffffffffffffffffffff1673ffffffffffffffffffffffffffffffffffffffff167fed8889f560326eb138920d842192f0eb3dd22b4f139c87a2c57538e05bae127860405160405180910390a350565b600080fd5b600073ffffffffffffffffffffffffffffffffffffffff82169050919050565b6000620002db82620002ae565b9050919050565b620002ed81620002ce565b8114620002f957600080fd5b50565b6000815190506200030d81620002e2565b92915050565b600080604083850312156200032d576200032c620002a9565b5b60006200033d85828601620002fc565b92505060206200035085828601620002fc565b9150509250929050565b600082825260208201905092915050565b7f43616e6e6f7420736574206f776e657220746f207a65726f0000000000000000600082015250565b6000620003a36018836200035a565b9150620003b0826200036b565b602082019050919050565b60006020820190508181036000830152620003d68162000394565b9050919050565b7f43616e6e6f74207472616e7366657220746f2073656c66000000000000000000600082015250565b6000620004156017836200035a565b91506200042282620003dd565b602082019050919050565b60006020820190508181036000830152620004488162000406565b9050919050565b6080516149fb620004956000396000818161078f0152818161092f015281816115ec015281816118a801528181611e3001528181612158015261251e01526149fb6000f3fe6080604052600436106101665760003560e01c80636ae0bc76116100d1578063a4c0ed361161008a578063f2fde38b11610064578063f2fde38b146104f1578063f3fef3a31461051a578063fa00763a14610543578063fc4a03ed1461058057610166565b8063a4c0ed3614610476578063eb007d991461049f578063ee56997b146104c857610166565b80636ae0bc76146103755780636bd59ec0146103b25780636ee4d553146103ce57806379ba5097146103f75780638da5cb5b1461040e578063902fc3701461043957610166565b80633ec5bc14116101235780633ec5bc141461026757806340429946146102905780634ab0d190146102b957806350188301146102f657806352043783146103215780635ffa62881461034c57610166565b806301994b991461016b578063033f49f714610194578063165d35e1146101bd578063181f5a77146101e85780632408afaa146102135780633c6d41b91461023e575b600080fd5b34801561017757600080fd5b50610192600480360381019061018d91906129e9565b6105a9565b005b3480156101a057600080fd5b506101bb60048036038101906101b69190612aea565b610784565b005b3480156101c957600080fd5b506101d261092b565b6040516101df9190612b59565b60405180910390f35b3480156101f457600080fd5b506101fd610953565b60405161020a9190612c04565b60405180910390f35b34801561021f57600080fd5b5061022861098c565b6040516102359190612ce4565b60405180910390f35b34801561024a57600080fd5b5061026560048036038101906102609190612dca565b610a1a565b005b34801561027357600080fd5b5061028e60048036038101906102899190612e8c565b610af8565b005b34801561029c57600080fd5b506102b760048036038101906102b29190612eec565b610c36565b005b3480156102c557600080fd5b506102e060048036038101906102db9190612fc2565b610d15565b6040516102ed919061306a565b60405180910390f35b34801561030257600080fd5b5061030b610f8a565b6040516103189190613094565b60405180910390f35b34801561032d57600080fd5b50610336610f99565b6040516103439190613094565b60405180910390f35b34801561035857600080fd5b50610373600480360381019061036e91906130af565b610f9f565b005b34801561038157600080fd5b5061039c60048036038101906103979190613130565b611002565b6040516103a9919061306a565b60405180910390f35b6103cc60048036038101906103c7919061328b565b6112c1565b005b3480156103da57600080fd5b506103f560048036038101906103f0919061330c565b611488565b005b34801561040357600080fd5b5061040c611690565b005b34801561041a57600080fd5b50610423611827565b6040516104309190612b59565b60405180910390f35b34801561044557600080fd5b50610460600480360381019061045b9190613373565b611851565b60405161046d919061306a565b60405180910390f35b34801561048257600080fd5b5061049d60048036038101906104989190613517565b611953565b005b3480156104ab57600080fd5b506104c660048036038101906104c19190613586565b611a9b565b005b3480156104d457600080fd5b506104ef60048036038101906104ea91906129e9565b611ad5565b005b3480156104fd57600080fd5b50610518600480360381019061051391906135ed565b611dc7565b005b34801561052657600080fd5b50610541600480360381019061053c919061361a565b611ddb565b005b34801561054f57600080fd5b5061056a600480360381019061056591906135ed565b611ede565b604051610577919061306a565b60405180910390f35b34801561058c57600080fd5b506105a760048036038101906105a291906130af565b611f33565b005b6105b1612073565b6105f0576040517f08c379a00000000000000000000000000000000000000000000000000000000081526004016105e7906136a6565b60405180910390fd5b60005b8282905081101561077f57600160056000858585818110610617576106166136c6565b5b905060200201602081019061062c91906135ed565b73ffffffffffffffffffffffffffffffffffffffff1673ffffffffffffffffffffffffffffffffffffffff16815260200190815260200160002060006101000a81548160ff0219169083151502179055508282828181106106905761068f6136c6565b5b90506020020160208101906106a591906135ed565b73ffffffffffffffffffffffffffffffffffffffff167f615a0c1cb00a60d4acd77ec67acf2f17f223ef0932d591052fabc33643fe7e8260405160405180910390a28282828181106106fa576106f96136c6565b5b905060200201602081019061070f91906135ed565b73ffffffffffffffffffffffffffffffffffffffff166379ba50976040518163ffffffff1660e01b8152600401600060405180830381600087803b15801561075657600080fd5b505af115801561076a573d6000803e3d6000fd5b505050508061077890613724565b90506105f3565b505050565b61078c6120c0565b827f000000000000000000000000000000000000000000000000000000000000000073ffffffffffffffffffffffffffffffffffffffff168173ffffffffffffffffffffffffffffffffffffffff160361081b576040517f08c379a0000000000000000000000000000000000000000000000000000000008152600401610812906137b8565b60405180910390fd5b60008473ffffffffffffffffffffffffffffffffffffffff163b03610875576040517f08c379a000000000000000000000000000000000000000000000000000000000815260040161086c90613824565b60405180910390fd5b60008473ffffffffffffffffffffffffffffffffffffffff16848460405161089e929190613874565b6000604051808303816000865af19150503d80600081146108db576040519150601f19603f3d011682016040523d82523d6000602084013e6108e0565b606091505b5050905080610924576040517f08c379a000000000000000000000000000000000000000000000000000000000815260040161091b906138d9565b60405180910390fd5b5050505050565b60007f0000000000000000000000000000000000000000000000000000000000000000905090565b6040518060400160405280600e81526020017f4f70657261746f7220312e302e3000000000000000000000000000000000000081525081565b60606001805480602002602001604051908101604052809291908181526020018280548015610a1057602002820191906000526020600020905b8160009054906101000a900473ffffffffffffffffffffffffffffffffffffffff1673ffffffffffffffffffffffffffffffffffffffff16815260200190600101908083116109c6575b5050505050905090565b610a2261092b565b73ffffffffffffffffffffffffffffffffffffffff163373ffffffffffffffffffffffffffffffffffffffff1614610a8f576040517f08c379a0000000000000000000000000000000000000000000000000000000008152600401610a8690613945565b60405180910390fd5b600080610aa08a8a8c8a8a8a612152565b91509150877fd8d7ecc4800d25fa53ce0372f13a416d98907a7ef3d8d3bdd79cf4fe75529c658b848c8e8c878c8c8c604051610ae4999897969594939291906139c1565b60405180910390a250505050505050505050565b610b006120c0565b60005b83839050811015610c3057600060056000868685818110610b2757610b266136c6565b5b9050602002016020810190610b3c91906135ed565b73ffffffffffffffffffffffffffffffffffffffff1673ffffffffffffffffffffffffffffffffffffffff16815260200190815260200160002060006101000a81548160ff021916908315150217905550838382818110610ba057610b9f6136c6565b5b9050602002016020810190610bb591906135ed565b73ffffffffffffffffffffffffffffffffffffffff1663f2fde38b836040518263ffffffff1660e01b8152600401610bed9190612b59565b600060405180830381600087803b158015610c0757600080fd5b505af1158015610c1b573d6000803e3d6000fd5b5050505080610c2990613724565b9050610b03565b50505050565b610c3e61092b565b73ffffffffffffffffffffffffffffffffffffffff163373ffffffffffffffffffffffffffffffffffffffff1614610cab576040517f08c379a0000000000000000000000000000000000000000000000000000000008152600401610ca290613945565b60405180910390fd5b600080610cbc8b8b8a8a8a8a612152565b91509150887fd8d7ecc4800d25fa53ce0372f13a416d98907a7ef3d8d3bdd79cf4fe75529c658c848d8f8c878c8c8c604051610d00999897969594939291906139c1565b60405180910390a25050505050505050505050565b6000610d1f612357565b86600060081b6004600083815260200190815260200160002060000160009054906101000a900460081b60ff191603610d8d576040517f08c379a0000000000000000000000000000000000000000000000000000000008152600401610d8490613a94565b60405180910390fd5b85600560008273ffffffffffffffffffffffffffffffffffffffff1673ffffffffffffffffffffffffffffffffffffffff16815260200190815260200160002060009054906101000a900460ff1615610e1b576040517f08c379a0000000000000000000000000000000000000000000000000000000008152600401610e1290613b00565b60405180910390fd5b610e2a898989898960016123a1565b887f9e9bc7616d42c2835d05ae617e508454e63b30b934be8aa932ebc125e0e58a6460405160405180910390a262061a805a1015610e9d576040517f08c379a0000000000000000000000000000000000000000000000000000000008152600401610e9490613b6c565b60405180910390fd5b60008773ffffffffffffffffffffffffffffffffffffffff16878b87604051602401610eca929190613b8c565b604051602081830303815290604052907bffffffffffffffffffffffffffffffffffffffffffffffffffffffff19166020820180517bffffffffffffffffffffffffffffffffffffffffffffffffffffffff8381831617835250505050604051610f349190613bf1565b6000604051808303816000865af19150503d8060008114610f71576040519150601f19603f3d011682016040523d82523d6000602084013e610f76565b606091505b505090508093505050509695505050505050565b6000610f9461250b565b905090565b61012c81565b610fa7612073565b610fe6576040517f08c379a0000000000000000000000000000000000000000000000000000000008152600401610fdd906136a6565b60405180910390fd5b610ff084846105a9565b610ffc84848484611f33565b50505050565b600061100c612357565b87600060081b6004600083815260200190815260200160002060000160009054906101000a900460081b60ff19160361107a576040517f08c379a000000000000000000000000000000000000000000000000000000000815260040161107190613a94565b60405180910390fd5b86600560008273ffffffffffffffffffffffffffffffffffffffff1673ffffffffffffffffffffffffffffffffffffffff16815260200190815260200160002060009054906101000a900460ff1615611108576040517f08c379a00000000000000000000000000000000000000000000000000000000081526004016110ff90613b00565b60405180910390fd5b8985856020828290501015611152576040517f08c379a000000000000000000000000000000000000000000000000000000000815260040161114990613c54565b60405180910390fd5b60008235905080841461119a576040517f08c379a000000000000000000000000000000000000000000000000000000000815260040161119190613cc0565b60405180910390fd5b6111a98e8e8e8e8e60026123a1565b8d7f9e9bc7616d42c2835d05ae617e508454e63b30b934be8aa932ebc125e0e58a6460405160405180910390a262061a805a101561121c576040517f08c379a000000000000000000000000000000000000000000000000000000000815260040161121390613b6c565b60405180910390fd5b60008c73ffffffffffffffffffffffffffffffffffffffff168c8b8b60405160200161124a93929190613d01565b6040516020818303038152906040526040516112669190613bf1565b6000604051808303816000865af19150503d80600081146112a3576040519150601f19603f3d011682016040523d82523d6000602084013e6112a8565b606091505b5050905080975050505050505050979650505050505050565b6000848490501180156112d957508181905084849050145b611318576040517f08c379a000000000000000000000000000000000000000000000000000000000815260040161130f90613d77565b60405180910390fd5b600034905060005b8585905081101561143d5760008484838181106113405761133f6136c6565b5b90506020020135905080836113559190613d97565b9250600087878481811061136c5761136b6136c6565b5b90506020020160208101906113819190613e09565b73ffffffffffffffffffffffffffffffffffffffff16826040516113a490613e5c565b60006040518083038185875af1925050503d80600081146113e1576040519150601f19603f3d011682016040523d82523d6000602084013e6113e6565b606091505b505090508061142a576040517f08c379a000000000000000000000000000000000000000000000000000000000815260040161142190613ee3565b60405180910390fd5b50508061143690613724565b9050611320565b5060008114611481576040517f08c379a000000000000000000000000000000000000000000000000000000000815260040161147890613f4f565b60405180910390fd5b5050505050565b6000611496843385856125c5565b90508060ff19166004600087815260200190815260200160002060000160009054906101000a900460081b60ff191614611505576040517f08c379a00000000000000000000000000000000000000000000000000000000081526004016114fc90613fbb565b60405180910390fd5b42821115611548576040517f08c379a000000000000000000000000000000000000000000000000000000000815260040161153f90614027565b60405180910390fd5b60046000868152602001908152602001600020600080820160006101000a8154907effffffffffffffffffffffffffffffffffffffffffffffffffffffffffffff021916905560008201601f6101000a81549060ff02191690555050847fa7842b9ec549398102c0d91b1b9919b2f20558aefdadf57528a95c6cd3292e9360405160405180910390a283600660008282546115e39190613d97565b925050819055507f000000000000000000000000000000000000000000000000000000000000000073ffffffffffffffffffffffffffffffffffffffff1663a9059cbb33866040518363ffffffff1660e01b8152600401611645929190614047565b6020604051808303816000875af1158015611664573d6000803e3d6000fd5b505050506040513d601f19601f82011682018060405250810190611688919061409c565b505050505050565b600360009054906101000a900473ffffffffffffffffffffffffffffffffffffffff1673ffffffffffffffffffffffffffffffffffffffff163373ffffffffffffffffffffffffffffffffffffffff1614611720576040517f08c379a000000000000000000000000000000000000000000000000000000000815260040161171790614115565b60405180910390fd5b6000600260009054906101000a900473ffffffffffffffffffffffffffffffffffffffff16905033600260006101000a81548173ffffffffffffffffffffffffffffffffffffffff021916908373ffffffffffffffffffffffffffffffffffffffff1602179055506000600360006101000a81548173ffffffffffffffffffffffffffffffffffffffff021916908373ffffffffffffffffffffffffffffffffffffffff1602179055503373ffffffffffffffffffffffffffffffffffffffff168173ffffffffffffffffffffffffffffffffffffffff167f8be0079c531659141344cd1fd0a4f28419497f9722a3daafe3b4186f6b6457e060405160405180910390a350565b6000600260009054906101000a900473ffffffffffffffffffffffffffffffffffffffff16905090565b600061185b6120c0565b838061186561250b565b10156118a6576040517f08c379a000000000000000000000000000000000000000000000000000000000815260040161189d906141a7565b60405180910390fd5b7f000000000000000000000000000000000000000000000000000000000000000073ffffffffffffffffffffffffffffffffffffffff16634000aea0878787876040518563ffffffff1660e01b815260040161190594939291906141c7565b6020604051808303816000875af1158015611924573d6000803e3d6000fd5b505050506040513d601f19601f82011682018060405250810190611948919061409c565b915050949350505050565b61195b61092b565b73ffffffffffffffffffffffffffffffffffffffff163373ffffffffffffffffffffffffffffffffffffffff16146119c8576040517f08c379a00000000000000000000000000000000000000000000000000000000081526004016119bf90613945565b60405180910390fd5b806000602082015190506119dc81836125fe565b84602484015283604484015260003073ffffffffffffffffffffffffffffffffffffffff1684604051611a0f9190613bf1565b600060405180830381855af49150503d8060008114611a4a576040519150601f19603f3d011682016040523d82523d6000602084013e611a4f565b606091505b5050905080611a93576040517f08c379a0000000000000000000000000000000000000000000000000000000008152600401611a8a90614253565b60405180910390fd5b505050505050565b611acf3385604051602001611ab19291906142dc565b60405160208183030381529060405280519060200120848484611488565b50505050565b611add612073565b611b1c576040517f08c379a0000000000000000000000000000000000000000000000000000000008152600401611b13906136a6565b60405180910390fd5b60008282905011611b62576040517f08c379a0000000000000000000000000000000000000000000000000000000008152600401611b5990614354565b60405180910390fd5b6000600180549050905060005b81811015611c1d57600080600060018481548110611b9057611b8f6136c6565b5b9060005260206000200160009054906101000a900473ffffffffffffffffffffffffffffffffffffffff1673ffffffffffffffffffffffffffffffffffffffff1673ffffffffffffffffffffffffffffffffffffffff16815260200190815260200160002060006101000a81548160ff02191690831515021790555080611c1690613724565b9050611b6f565b5060005b83839050811015611d745760001515600080868685818110611c4657611c456136c6565b5b9050602002016020810190611c5b91906135ed565b73ffffffffffffffffffffffffffffffffffffffff1673ffffffffffffffffffffffffffffffffffffffff16815260200190815260200160002060009054906101000a900460ff16151514611ce5576040517f08c379a0000000000000000000000000000000000000000000000000000000008152600401611cdc906143c0565b60405180910390fd5b6001600080868685818110611cfd57611cfc6136c6565b5b9050602002016020810190611d1291906135ed565b73ffffffffffffffffffffffffffffffffffffffff1673ffffffffffffffffffffffffffffffffffffffff16815260200190815260200160002060006101000a81548160ff02191690831515021790555080611d6d90613724565b9050611c21565b50828260019190611d869291906128b3565b507ff263cfb3e4298332e776194610cf9fdc09ccb3ada8b9aa39764d882e11fbf0a0838333604051611dba9392919061446b565b60405180910390a1505050565b611dcf6120c0565b611dd881612735565b50565b611de36120c0565b8080611ded61250b565b1015611e2e576040517f08c379a0000000000000000000000000000000000000000000000000000000008152600401611e25906141a7565b60405180910390fd5b7f000000000000000000000000000000000000000000000000000000000000000073ffffffffffffffffffffffffffffffffffffffff1663a9059cbb84846040518363ffffffff1660e01b8152600401611e89929190614047565b6020604051808303816000875af1158015611ea8573d6000803e3d6000fd5b505050506040513d601f19601f82011682018060405250810190611ecc919061409c565b611ed957611ed861449d565b5b505050565b60008060008373ffffffffffffffffffffffffffffffffffffffff1673ffffffffffffffffffffffffffffffffffffffff16815260200190815260200160002060009054906101000a900460ff169050919050565b611f3b612073565b611f7a576040517f08c379a0000000000000000000000000000000000000000000000000000000008152600401611f71906136a6565b60405180910390fd5b7f1bb185903e2cb2f1b303523128b60e314dea81df4f8d9b7351cadd344f6e77278484848433604051611fb19594939291906144cc565b60405180910390a160005b8484905081101561206c57848482818110611fda57611fd96136c6565b5b9050602002016020810190611fef91906135ed565b73ffffffffffffffffffffffffffffffffffffffff1663ee56997b84846040518363ffffffff1660e01b8152600401612029929190614515565b600060405180830381600087803b15801561204357600080fd5b505af1158015612057573d6000803e3d6000fd5b505050508061206590613724565b9050611fbc565b5050505050565b600061207e33611ede565b806120bb57503373ffffffffffffffffffffffffffffffffffffffff166120a3611827565b73ffffffffffffffffffffffffffffffffffffffff16145b905090565b600260009054906101000a900473ffffffffffffffffffffffffffffffffffffffff1673ffffffffffffffffffffffffffffffffffffffff163373ffffffffffffffffffffffffffffffffffffffff1614612150576040517f08c379a000000000000000000000000000000000000000000000000000000000815260040161214790614585565b60405180910390fd5b565b600080857f000000000000000000000000000000000000000000000000000000000000000073ffffffffffffffffffffffffffffffffffffffff168173ffffffffffffffffffffffffffffffffffffffff16036121e4576040517f08c379a00000000000000000000000000000000000000000000000000000000081526004016121db906137b8565b60405180910390fd5b88856040516020016121f79291906142dc565b604051602081830303815290604052805190602001209250600060081b6004600085815260200190815260200160002060000160009054906101000a900460081b60ff19161461227c576040517f08c379a0000000000000000000000000000000000000000000000000000000008152600401612273906145f1565b60405180910390fd5b61012c4261228a9190614611565b9150600061229a898989866125c5565b905060405180604001604052808260ff191681526020016122ba87612863565b60ff168152506004600086815260200190815260200160002060008201518160000160006101000a8154817effffffffffffffffffffffffffffffffffffffffffffffffffffffffffffff021916908360081c0217905550602082015181600001601f6101000a81548160ff021916908360ff160217905550905050886006546123449190614611565b6006819055505050965096945050505050565b61236033611ede565b61239f576040517f08c379a000000000000000000000000000000000000000000000000000000000815260040161239690614691565b60405180910390fd5b565b60006123af868686866125c5565b90508060ff19166004600089815260200190815260200160002060000160009054906101000a900460081b60ff19161461241e576040517f08c379a000000000000000000000000000000000000000000000000000000000815260040161241590613fbb565b60405180910390fd5b61242782612863565b60ff1660046000898152602001908152602001600020600001601f9054906101000a900460ff1660ff161115612492576040517f08c379a0000000000000000000000000000000000000000000000000000000008152600401612489906146fd565b60405180910390fd5b856006546124a09190613d97565b60068190555060046000888152602001908152602001600020600080820160006101000a8154907effffffffffffffffffffffffffffffffffffffffffffffffffffffffffffff021916905560008201601f6101000a81549060ff0219169055505050505050505050565b6000600160065461251c9190613d97565b7f000000000000000000000000000000000000000000000000000000000000000073ffffffffffffffffffffffffffffffffffffffff166370a08231306040518263ffffffff1660e01b81526004016125759190612b59565b602060405180830381865afa158015612592573d6000803e3d6000fd5b505050506040513d601f19601f820116820180604052508101906125b69190614732565b6125c09190613d97565b905090565b6000848484846040516020016125de949392919061475f565b604051602081830303815290604052805190602001209050949350505050565b6002602061260c91906147ad565b60046126189190614611565b8151101561265b576040517f08c379a00000000000000000000000000000000000000000000000000000000081526004016126529061483b565b60405180910390fd5b633c6d41b960e01b7bffffffffffffffffffffffffffffffffffffffffffffffffffffffff1916827bffffffffffffffffffffffffffffffffffffffffffffffffffffffff191614806126f25750634042994660e01b7bffffffffffffffffffffffffffffffffffffffffffffffffffffffff1916827bffffffffffffffffffffffffffffffffffffffffffffffffffffffff1916145b612731576040517f08c379a0000000000000000000000000000000000000000000000000000000008152600401612728906148a7565b60405180910390fd5b5050565b3373ffffffffffffffffffffffffffffffffffffffff168173ffffffffffffffffffffffffffffffffffffffff16036127a3576040517f08c379a000000000000000000000000000000000000000000000000000000000815260040161279a90614913565b60405180910390fd5b80600360006101000a81548173ffffffffffffffffffffffffffffffffffffffff021916908373ffffffffffffffffffffffffffffffffffffffff1602179055508073ffffffffffffffffffffffffffffffffffffffff16600260009054906101000a900473ffffffffffffffffffffffffffffffffffffffff1673ffffffffffffffffffffffffffffffffffffffff167fed8889f560326eb138920d842192f0eb3dd22b4f139c87a2c57538e05bae127860405160405180910390a350565b600060ff80168211156128ab576040517f08c379a00000000000000000000000000000000000000000000000000000000081526004016128a2906149a5565b60405180910390fd5b819050919050565b828054828255906000526020600020908101928215612942579160200282015b8281111561294157823573ffffffffffffffffffffffffffffffffffffffff168260006101000a81548173ffffffffffffffffffffffffffffffffffffffff021916908373ffffffffffffffffffffffffffffffffffffffff160217905550916020019190600101906128d3565b5b50905061294f9190612953565b5090565b5b8082111561296c576000816000905550600101612954565b5090565b6000604051905090565b600080fd5b600080fd5b600080fd5b600080fd5b600080fd5b60008083601f8401126129a9576129a8612984565b5b8235905067ffffffffffffffff8111156129c6576129c5612989565b5b6020830191508360208202830111156129e2576129e161298e565b5b9250929050565b60008060208385031215612a00576129ff61297a565b5b600083013567ffffffffffffffff811115612a1e57612a1d61297f565b5b612a2a85828601612993565b92509250509250929050565b600073ffffffffffffffffffffffffffffffffffffffff82169050919050565b6000612a6182612a36565b9050919050565b612a7181612a56565b8114612a7c57600080fd5b50565b600081359050612a8e81612a68565b92915050565b60008083601f840112612aaa57612aa9612984565b5b8235905067ffffffffffffffff811115612ac757612ac6612989565b5b602083019150836001820283011115612ae357612ae261298e565b5b9250929050565b600080600060408486031215612b0357612b0261297a565b5b6000612b1186828701612a7f565b935050602084013567ffffffffffffffff811115612b3257612b3161297f565b5b612b3e86828701612a94565b92509250509250925092565b612b5381612a56565b82525050565b6000602082019050612b6e6000830184612b4a565b92915050565b600081519050919050565b600082825260208201905092915050565b60005b83811015612bae578082015181840152602081019050612b93565b60008484015250505050565b6000601f19601f8301169050919050565b6000612bd682612b74565b612be08185612b7f565b9350612bf0818560208601612b90565b612bf981612bba565b840191505092915050565b60006020820190508181036000830152612c1e8184612bcb565b905092915050565b600081519050919050565b600082825260208201905092915050565b6000819050602082019050919050565b612c5b81612a56565b82525050565b6000612c6d8383612c52565b60208301905092915050565b6000602082019050919050565b6000612c9182612c26565b612c9b8185612c31565b9350612ca683612c42565b8060005b83811015612cd7578151612cbe8882612c61565b9750612cc983612c79565b925050600181019050612caa565b5085935050505092915050565b60006020820190508181036000830152612cfe8184612c86565b905092915050565b6000819050919050565b612d1981612d06565b8114612d2457600080fd5b50565b600081359050612d3681612d10565b92915050565b6000819050919050565b612d4f81612d3c565b8114612d5a57600080fd5b50565b600081359050612d6c81612d46565b92915050565b60007fffffffff0000000000000000000000000000000000000000000000000000000082169050919050565b612da781612d72565b8114612db257600080fd5b50565b600081359050612dc481612d9e565b92915050565b60008060008060008060008060e0898b031215612dea57612de961297a565b5b6000612df88b828c01612a7f565b9850506020612e098b828c01612d27565b9750506040612e1a8b828c01612d5d565b9650506060612e2b8b828c01612db5565b9550506080612e3c8b828c01612d27565b94505060a0612e4d8b828c01612d27565b93505060c089013567ffffffffffffffff811115612e6e57612e6d61297f565b5b612e7a8b828c01612a94565b92509250509295985092959890939650565b600080600060408486031215612ea557612ea461297a565b5b600084013567ffffffffffffffff811115612ec357612ec261297f565b5b612ecf86828701612993565b93509350506020612ee286828701612a7f565b9150509250925092565b60008060008060008060008060006101008a8c031215612f0f57612f0e61297a565b5b6000612f1d8c828d01612a7f565b9950506020612f2e8c828d01612d27565b9850506040612f3f8c828d01612d5d565b9750506060612f508c828d01612a7f565b9650506080612f618c828d01612db5565b95505060a0612f728c828d01612d27565b94505060c0612f838c828d01612d27565b93505060e08a013567ffffffffffffffff811115612fa457612fa361297f565b5b612fb08c828d01612a94565b92509250509295985092959850929598565b60008060008060008060c08789031215612fdf57612fde61297a565b5b6000612fed89828a01612d5d565b9650506020612ffe89828a01612d27565b955050604061300f89828a01612a7f565b945050606061302089828a01612db5565b935050608061303189828a01612d27565b92505060a061304289828a01612d5d565b9150509295509295509295565b60008115159050919050565b6130648161304f565b82525050565b600060208201905061307f600083018461305b565b92915050565b61308e81612d06565b82525050565b60006020820190506130a96000830184613085565b92915050565b600080600080604085870312156130c9576130c861297a565b5b600085013567ffffffffffffffff8111156130e7576130e661297f565b5b6130f387828801612993565b9450945050602085013567ffffffffffffffff8111156131165761311561297f565b5b61312287828801612993565b925092505092959194509250565b600080600080600080600060c0888a03121561314f5761314e61297a565b5b600061315d8a828b01612d5d565b975050602061316e8a828b01612d27565b965050604061317f8a828b01612a7f565b95505060606131908a828b01612db5565b94505060806131a18a828b01612d27565b93505060a088013567ffffffffffffffff8111156131c2576131c161297f565b5b6131ce8a828b01612a94565b925092505092959891949750929550565b60008083601f8401126131f5576131f4612984565b5b8235905067ffffffffffffffff81111561321257613211612989565b5b60208301915083602082028301111561322e5761322d61298e565b5b9250929050565b60008083601f84011261324b5761324a612984565b5b8235905067ffffffffffffffff81111561326857613267612989565b5b6020830191508360208202830111156132845761328361298e565b5b9250929050565b600080600080604085870312156132a5576132a461297a565b5b600085013567ffffffffffffffff8111156132c3576132c261297f565b5b6132cf878288016131df565b9450945050602085013567ffffffffffffffff8111156132f2576132f161297f565b5b6132fe87828801613235565b925092505092959194509250565b600080600080608085870312156133265761332561297a565b5b600061333487828801612d5d565b945050602061334587828801612d27565b935050604061335687828801612db5565b925050606061336787828801612d27565b91505092959194509250565b6000806000806060858703121561338d5761338c61297a565b5b600061339b87828801612a7f565b94505060206133ac87828801612d27565b935050604085013567ffffffffffffffff8111156133cd576133cc61297f565b5b6133d987828801612a94565b925092505092959194509250565b600080fd5b7f4e487b7100000000000000000000000000000000000000000000000000000000600052604160045260246000fd5b61342482612bba565b810181811067ffffffffffffffff82111715613443576134426133ec565b5b80604052505050565b6000613456612970565b9050613462828261341b565b919050565b600067ffffffffffffffff821115613482576134816133ec565b5b61348b82612bba565b9050602081019050919050565b82818337600083830152505050565b60006134ba6134b584613467565b61344c565b9050828152602081018484840111156134d6576134d56133e7565b5b6134e1848285613498565b509392505050565b600082601f8301126134fe576134fd612984565b5b813561350e8482602086016134a7565b91505092915050565b6000806000606084860312156135305761352f61297a565b5b600061353e86828701612a7f565b935050602061354f86828701612d27565b925050604084013567ffffffffffffffff8111156135705761356f61297f565b5b61357c868287016134e9565b9150509250925092565b600080600080608085870312156135a05761359f61297a565b5b60006135ae87828801612d27565b94505060206135bf87828801612d27565b93505060406135d087828801612db5565b92505060606135e187828801612d27565b91505092959194509250565b6000602082840312156136035761360261297a565b5b600061361184828501612a7f565b91505092915050565b600080604083850312156136315761363061297a565b5b600061363f85828601612a7f565b925050602061365085828601612d27565b9150509250929050565b7f43616e6e6f742073657420617574686f72697a65642073656e64657273000000600082015250565b6000613690601d83612b7f565b915061369b8261365a565b602082019050919050565b600060208201905081810360008301526136bf81613683565b9050919050565b7f4e487b7100000000000000000000000000000000000000000000000000000000600052603260045260246000fd5b7f4e487b7100000000000000000000000000000000000000000000000000000000600052601160045260246000fd5b600061372f82612d06565b91507fffffffffffffffffffffffffffffffffffffffffffffffffffffffffffffffff8203613761576137606136f5565b5b600182019050919050565b7f43616e6e6f742063616c6c20746f204c494e4b00000000000000000000000000600082015250565b60006137a2601383612b7f565b91506137ad8261376c565b602082019050919050565b600060208201905081810360008301526137d181613795565b9050919050565b7f4d75737420666f727761726420746f206120636f6e7472616374000000000000600082015250565b600061380e601a83612b7f565b9150613819826137d8565b602082019050919050565b6000602082019050818103600083015261383d81613801565b9050919050565b600081905092915050565b600061385b8385613844565b9350613868838584613498565b82840190509392505050565b600061388182848661384f565b91508190509392505050565b7f466f727761726465642063616c6c206661696c65640000000000000000000000600082015250565b60006138c3601583612b7f565b91506138ce8261388d565b602082019050919050565b600060208201905081810360008301526138f2816138b6565b9050919050565b7f4d75737420757365204c494e4b20746f6b656e00000000000000000000000000600082015250565b600061392f601383612b7f565b915061393a826138f9565b602082019050919050565b6000602082019050818103600083015261395e81613922565b9050919050565b61396e81612d3c565b82525050565b61397d81612d72565b82525050565b600082825260208201905092915050565b60006139a08385613983565b93506139ad838584613498565b6139b683612bba565b840190509392505050565b6000610100820190506139d7600083018c612b4a565b6139e4602083018b613965565b6139f1604083018a613085565b6139fe6060830189612b4a565b613a0b6080830188613974565b613a1860a0830187613085565b613a2560c0830186613085565b81810360e0830152613a38818486613994565b90509a9950505050505050505050565b7f4d757374206861766520612076616c6964207265717565737449640000000000600082015250565b6000613a7e601b83612b7f565b9150613a8982613a48565b602082019050919050565b60006020820190508181036000830152613aad81613a71565b9050919050565b7f43616e6e6f742063616c6c206f776e656420636f6e7472616374000000000000600082015250565b6000613aea601a83612b7f565b9150613af582613ab4565b602082019050919050565b60006020820190508181036000830152613b1981613add565b9050919050565b7f4d7573742070726f7669646520636f6e73756d657220656e6f75676820676173600082015250565b6000613b56602083612b7f565b9150613b6182613b20565b602082019050919050565b60006020820190508181036000830152613b8581613b49565b9050919050565b6000604082019050613ba16000830185613965565b613bae6020830184613965565b9392505050565b600081519050919050565b6000613bcb82613bb5565b613bd58185613844565b9350613be5818560208601612b90565b80840191505092915050565b6000613bfd8284613bc0565b915081905092915050565b7f526573706f6e7365206d757374206265203e2033322062797465730000000000600082015250565b6000613c3e601b83612b7f565b9150613c4982613c08565b602082019050919050565b60006020820190508181036000830152613c6d81613c31565b9050919050565b7f466972737420776f7264206d7573742062652072657175657374496400000000600082015250565b6000613caa601c83612b7f565b9150613cb582613c74565b602082019050919050565b60006020820190508181036000830152613cd981613c9d565b9050919050565b6000819050919050565b613cfb613cf682612d72565b613ce0565b82525050565b6000613d0d8286613cea565b600482019150613d1e82848661384f565b9150819050949350505050565b7f496e76616c6964206172726179206c656e677468287329000000000000000000600082015250565b6000613d61601783612b7f565b9150613d6c82613d2b565b602082019050919050565b60006020820190508181036000830152613d9081613d54565b9050919050565b6000613da282612d06565b9150613dad83612d06565b9250828203905081811115613dc557613dc46136f5565b5b92915050565b6000613dd682612a36565b9050919050565b613de681613dcb565b8114613df157600080fd5b50565b600081359050613e0381613ddd565b92915050565b600060208284031215613e1f57613e1e61297a565b5b6000613e2d84828501613df4565b91505092915050565b50565b6000613e46600083613844565b9150613e5182613e36565b600082019050919050565b6000613e6782613e39565b9150819050919050565b7f416464726573733a20756e61626c6520746f2073656e642076616c75652c207260008201527f6563697069656e74206d61792068617665207265766572746564000000000000602082015250565b6000613ecd603a83612b7f565b9150613ed882613e71565b604082019050919050565b60006020820190508181036000830152613efc81613ec0565b9050919050565b7f546f6f206d756368204554482073656e74000000000000000000000000000000600082015250565b6000613f39601183612b7f565b9150613f4482613f03565b602082019050919050565b60006020820190508181036000830152613f6881613f2c565b9050919050565b7f506172616d7320646f206e6f74206d6174636820726571756573742049440000600082015250565b6000613fa5601e83612b7f565b9150613fb082613f6f565b602082019050919050565b60006020820190508181036000830152613fd481613f98565b9050919050565b7f52657175657374206973206e6f74206578706972656400000000000000000000600082015250565b6000614011601683612b7f565b915061401c82613fdb565b602082019050919050565b6000602082019050818103600083015261404081614004565b9050919050565b600060408201905061405c6000830185612b4a565b6140696020830184613085565b9392505050565b6140798161304f565b811461408457600080fd5b50565b60008151905061409681614070565b92915050565b6000602082840312156140b2576140b161297a565b5b60006140c084828501614087565b91505092915050565b7f4d7573742062652070726f706f736564206f776e657200000000000000000000600082015250565b60006140ff601683612b7f565b915061410a826140c9565b602082019050919050565b6000602082019050818103600083015261412e816140f2565b9050919050565b7f416d6f756e74207265717565737465642069732067726561746572207468616e60008201527f20776974686472617761626c652062616c616e63650000000000000000000000602082015250565b6000614191603583612b7f565b915061419c82614135565b604082019050919050565b600060208201905081810360008301526141c081614184565b9050919050565b60006060820190506141dc6000830187612b4a565b6141e96020830186613085565b81810360408301526141fc818486613994565b905095945050505050565b7f556e61626c6520746f2063726561746520726571756573740000000000000000600082015250565b600061423d601883612b7f565b915061424882614207565b602082019050919050565b6000602082019050818103600083015261426c81614230565b9050919050565b60008160601b9050919050565b600061428b82614273565b9050919050565b600061429d82614280565b9050919050565b6142b56142b082612a56565b614292565b82525050565b6000819050919050565b6142d66142d182612d06565b6142bb565b82525050565b60006142e882856142a4565b6014820191506142f882846142c5565b6020820191508190509392505050565b7f4d7573742068617665206174206c6561737420312073656e6465720000000000600082015250565b600061433e601b83612b7f565b915061434982614308565b602082019050919050565b6000602082019050818103600083015261436d81614331565b9050919050565b7f4d757374206e6f742068617665206475706c69636174652073656e6465727300600082015250565b60006143aa601f83612b7f565b91506143b582614374565b602082019050919050565b600060208201905081810360008301526143d98161439d565b9050919050565b6000819050919050565b60006143f96020840184612a7f565b905092915050565b6000602082019050919050565b600061441a8385612c31565b9350614425826143e0565b8060005b8581101561445e5761443b82846143ea565b6144458882612c61565b975061445083614401565b925050600181019050614429565b5085925050509392505050565b6000604082019050818103600083015261448681858761440e565b90506144956020830184612b4a565b949350505050565b7f4e487b7100000000000000000000000000000000000000000000000000000000600052600160045260246000fd5b600060608201905081810360008301526144e781878961440e565b905081810360208301526144fc81858761440e565b905061450b6040830184612b4a565b9695505050505050565b6000602082019050818103600083015261453081848661440e565b90509392505050565b7f4f6e6c792063616c6c61626c65206279206f776e657200000000000000000000600082015250565b600061456f601683612b7f565b915061457a82614539565b602082019050919050565b6000602082019050818103600083015261459e81614562565b9050919050565b7f4d75737420757365206120756e69717565204944000000000000000000000000600082015250565b60006145db601483612b7f565b91506145e6826145a5565b602082019050919050565b6000602082019050818103600083015261460a816145ce565b9050919050565b600061461c82612d06565b915061462783612d06565b925082820190508082111561463f5761463e6136f5565b5b92915050565b7f4e6f7420617574686f72697a65642073656e6465720000000000000000000000600082015250565b600061467b601583612b7f565b915061468682614645565b602082019050919050565b600060208201905081810360008301526146aa8161466e565b9050919050565b7f446174612076657273696f6e73206d757374206d617463680000000000000000600082015250565b60006146e7601883612b7f565b91506146f2826146b1565b602082019050919050565b60006020820190508181036000830152614716816146da565b9050919050565b60008151905061472c81612d10565b92915050565b6000602082840312156147485761474761297a565b5b60006147568482850161471d565b91505092915050565b600061476b82876142c5565b60208201915061477b82866142a4565b60148201915061478b8285613cea565b60048201915061479b82846142c5565b60208201915081905095945050505050565b60006147b882612d06565b91506147c383612d06565b92508282026147d181612d06565b915082820484148315176147e8576147e76136f5565b5b5092915050565b7f496e76616c69642072657175657374206c656e67746800000000000000000000600082015250565b6000614825601683612b7f565b9150614830826147ef565b602082019050919050565b6000602082019050818103600083015261485481614818565b9050919050565b7f4d757374207573652077686974656c69737465642066756e6374696f6e730000600082015250565b6000614891601e83612b7f565b915061489c8261485b565b602082019050919050565b600060208201905081810360008301526148c081614884565b9050919050565b7f43616e6e6f74207472616e7366657220746f2073656c66000000000000000000600082015250565b60006148fd601783612b7f565b9150614908826148c7565b602082019050919050565b6000602082019050818103600083015261492c816148f0565b9050919050565b7f53616665436173743a2076616c756520646f65736e27742066697420696e203860008201527f2062697473000000000000000000000000000000000000000000000000000000602082015250565b600061498f602583612b7f565b915061499a82614933565b604082019050919050565b600060208201905081810360008301526149be81614982565b905091905056fea26469706673582212204cf59e3ec51273fa2017c158cdb7a211e6946ae653c5051a8fd802bba93b059464736f6c63430008130033",
			"opcodes": "PUSH1 0xA0 PUSH1 0x40 MSTORE PUSH1 0x1 PUSH1 0x6 SSTORE CALLVALUE DUP1 ISZERO PUSH3 0x16 JUMPI PUSH1 0x0 DUP1 REVERT JUMPDEST POP PUSH1 0x40 MLOAD PUSH3 0x4E90 CODESIZE SUB DUP1 PUSH3 0x4E90 DUP4 CODECOPY DUP2 DUP2 ADD PUSH1 0x40 MSTORE DUP2 ADD SWAP1 PUSH3 0x3C SWAP2 SWAP1 PUSH3 0x313 JUMP JUMPDEST DUP1 DUP1 PUSH1 0x0 DUP1 PUSH20 0xFFFFFFFFFFFFFFFFFFFFFFFFFFFFFFFFFFFFFFFF AND DUP3 PUSH20 0xFFFFFFFFFFFFFFFFFFFFFFFFFFFFFFFFFFFFFFFF AND SUB PUSH3 0xB1 JUMPI PUSH1 0x40 MLOAD PUSH32 0x8C379A000000000000000000000000000000000000000000000000000000000 DUP2 MSTORE PUSH1 0x4 ADD PUSH3 0xA8 SWAP1 PUSH3 0x3BB JUMP JUMPDEST PUSH1 0x40 MLOAD DUP1 SWAP2 SUB SWAP1 REVERT JUMPDEST DUP2 PUSH1 0x2 PUSH1 0x0 PUSH2 0x100 EXP DUP2 SLOAD DUP2 PUSH20 0xFFFFFFFFFFFFFFFFFFFFFFFFFFFFFFFFFFFFFFFF MUL NOT AND SWAP1 DUP4 PUSH20 0xFFFFFFFFFFFFFFFFFFFFFFFFFFFFFFFFFFFFFFFF AND MUL OR SWAP1 SSTORE POP PUSH1 0x0 PUSH20 0xFFFFFFFFFFFFFFFFFFFFFFFFFFFFFFFFFFFFFFFF AND DUP2 PUSH20 0xFFFFFFFFFFFFFFFFFFFFFFFFFFFFFFFFFFFFFFFF AND EQ PUSH3 0x139 JUMPI PUSH3 0x138 DUP2 PUSH3 0x178 PUSH1 0x20 SHL PUSH1 0x20 SHR JUMP JUMPDEST JUMPDEST POP POP POP DUP2 PUSH20 0xFFFFFFFFFFFFFFFFFFFFFFFFFFFFFFFFFFFFFFFF AND PUSH1 0x80 DUP2 PUSH20 0xFFFFFFFFFFFFFFFFFFFFFFFFFFFFFFFFFFFFFFFF AND DUP2 MSTORE POP POP POP POP PUSH3 0x44F JUMP JUMPDEST CALLER PUSH20 0xFFFFFFFFFFFFFFFFFFFFFFFFFFFFFFFFFFFFFFFF AND DUP2 PUSH20 0xFFFFFFFFFFFFFFFFFFFFFFFFFFFFFFFFFFFFFFFF AND SUB PUSH3 0x1E9 JUMPI PUSH1 0x40 MLOAD PUSH32 0x8C379A000000000000000000000000000000000000000000000000000000000 DUP2 MSTORE PUSH1 0x4 ADD PUSH3 0x1E0 SWAP1 PUSH3 0x42D JUMP JUMPDEST PUSH1 0x40 MLOAD DUP1 SWAP2 SUB SWAP1 REVERT JUMPDEST DUP1 PUSH1 0x3 PUSH1 0x0 PUSH2 0x100 EXP DUP2 SLOAD DUP2 PUSH20 0xFFFFFFFFFFFFFFFFFFFFFFFFFFFFFFFFFFFFFFFF MUL NOT AND SWAP1 DUP4 PUSH20 0xFFFFFFFFFFFFFFFFFFFFFFFFFFFFFFFFFFFFFFFF AND MUL OR SWAP1 SSTORE POP DUP1 PUSH20 0xFFFFFFFFFFFFFFFFFFFFFFFFFFFFFFFFFFFFFFFF AND PUSH1 0x2 PUSH1 0x0 SWAP1 SLOAD SWAP1 PUSH2 0x100 EXP SWAP1 DIV PUSH20 0xFFFFFFFFFFFFFFFFFFFFFFFFFFFFFFFFFFFFFFFF AND PUSH20 0xFFFFFFFFFFFFFFFFFFFFFFFFFFFFFFFFFFFFFFFF AND PUSH32 0xED8889F560326EB138920D842192F0EB3DD22B4F139C87A2C57538E05BAE1278 PUSH1 0x40 MLOAD PUSH1 0x40 MLOAD DUP1 SWAP2 SUB SWAP1 LOG3 POP JUMP JUMPDEST PUSH1 0x0 DUP1 REVERT JUMPDEST PUSH1 0x0 PUSH20 0xFFFFFFFFFFFFFFFFFFFFFFFFFFFFFFFFFFFFFFFF DUP3 AND SWAP1 POP SWAP2 SWAP1 POP JUMP JUMPDEST PUSH1 0x0 PUSH3 0x2DB DUP3 PUSH3 0x2AE JUMP JUMPDEST SWAP1 POP SWAP2 SWAP1 POP JUMP JUMPDEST PUSH3 0x2ED DUP2 PUSH3 0x2CE JUMP JUMPDEST DUP2 EQ PUSH3 0x2F9 JUMPI PUSH1 0x0 DUP1 REVERT JUMPDEST POP JUMP JUMPDEST PUSH1 0x0 DUP2 MLOAD SWAP1 POP PUSH3 0x30D DUP2 PUSH3 0x2E2 JUMP JUMPDEST SWAP3 SWAP2 POP POP JUMP JUMPDEST PUSH1 0x0 DUP1 PUSH1 0x40 DUP4 DUP6 SUB SLT ISZERO PUSH3 0x32D JUMPI PUSH3 0x32C PUSH3 0x2A9 JUMP JUMPDEST JUMPDEST PUSH1 0x0 PUSH3 0x33D DUP6 DUP3 DUP7 ADD PUSH3 0x2FC JUMP JUMPDEST SWAP3 POP POP PUSH1 0x20 PUSH3 0x350 DUP6 DUP3 DUP7 ADD PUSH3 0x2FC JUMP JUMPDEST SWAP2 POP POP SWAP3 POP SWAP3 SWAP1 POP JUMP JUMPDEST PUSH1 0x0 DUP3 DUP3 MSTORE PUSH1 0x20 DUP3 ADD SWAP1 POP SWAP3 SWAP2 POP POP JUMP JUMPDEST PUSH32 0x43616E6E6F7420736574206F776E657220746F207A65726F0000000000000000 PUSH1 0x0 DUP3 ADD MSTORE POP JUMP JUMPDEST PUSH1 0x0 PUSH3 0x3A3 PUSH1 0x18 DUP4 PUSH3 0x35A JUMP JUMPDEST SWAP2 POP PUSH3 0x3B0 DUP3 PUSH3 0x36B JUMP JUMPDEST PUSH1 0x20 DUP3 ADD SWAP1 POP SWAP2 SWAP1 POP JUMP JUMPDEST PUSH1 0x0 PUSH1 0x20 DUP3 ADD SWAP1 POP DUP2 DUP2 SUB PUSH1 0x0 DUP4 ADD MSTORE PUSH3 0x3D6 DUP2 PUSH3 0x394 JUMP JUMPDEST SWAP1 POP SWAP2 SWAP1 POP JUMP JUMPDEST PUSH32 0x43616E6E6F74207472616E7366657220746F2073656C66000000000000000000 PUSH1 0x0 DUP3 ADD MSTORE POP JUMP JUMPDEST PUSH1 0x0 PUSH3 0x415 PUSH1 0x17 DUP4 PUSH3 0x35A JUMP JUMPDEST SWAP2 POP PUSH3 0x422 DUP3 PUSH3 0x3DD JUMP JUMPDEST PUSH1 0x20 DUP3 ADD SWAP1 POP SWAP2 SWAP1 POP JUMP JUMPDEST PUSH1 0x0 PUSH1 0x20 DUP3 ADD SWAP1 POP DUP2 DUP2 SUB PUSH1 0x0 DUP4 ADD MSTORE PUSH3 0x448 DUP2 PUSH3 0x406 JUMP JUMPDEST SWAP1 POP SWAP2 SWAP1 POP JUMP JUMPDEST PUSH1 0x80 MLOAD PUSH2 0x49FB PUSH3 0x495 PUSH1 0x0 CODECOPY PUSH1 0x0 DUP2 DUP2 PUSH2 0x78F ADD MSTORE DUP2 DUP2 PUSH2 0x92F ADD MSTORE DUP2 DUP2 PUSH2 0x15EC ADD MSTORE DUP2 DUP2 PUSH2 0x18A8 ADD MSTORE DUP2 DUP2 PUSH2 0x1E30 ADD MSTORE DUP2 DUP2 PUSH2 0x2158 ADD MSTORE PUSH2 0x251E ADD MSTORE PUSH2 0x49FB PUSH1 0x0 RETURN INVALID PUSH1 0x80 PUSH1 0x40 MSTORE PUSH1 0x4 CALLDATASIZE LT PUSH2 0x166 JUMPI PUSH1 0x0 CALLDATALOAD PUSH1 0xE0 SHR DUP1 PUSH4 0x6AE0BC76 GT PUSH2 0xD1 JUMPI DUP1 PUSH4 0xA4C0ED36 GT PUSH2 0x8A JUMPI DUP1 PUSH4 0xF2FDE38B GT PUSH2 0x64 JUMPI DUP1 PUSH4 0xF2FDE38B EQ PUSH2 0x4F1 JUMPI DUP1 PUSH4 0xF3FEF3A3 EQ PUSH2 0x51A JUMPI DUP1 PUSH4 0xFA00763A EQ PUSH2 0x543 JUMPI DUP1 PUSH4 0xFC4A03ED EQ PUSH2 0x580 JUMPI PUSH2 0x166 JUMP JUMPDEST DUP1 PUSH4 0xA4C0ED36 EQ PUSH2 0x476 JUMPI DUP1 PUSH4 0xEB007D99 EQ PUSH2 0x49F JUMPI DUP1 PUSH4 0xEE56997B EQ PUSH2 0x4C8 JUMPI PUSH2 0x166 JUMP JUMPDEST DUP1 PUSH4 0x6AE0BC76 EQ PUSH2 0x375 JUMPI DUP1 PUSH4 0x6BD59EC0 EQ PUSH2 0x3B2 JUMPI DUP1 PUSH4 0x6EE4D553 EQ PUSH2 0x3CE JUMPI DUP1 PUSH4 0x79BA5097 EQ PUSH2 0x3F7 JUMPI DUP1 PUSH4 0x8DA5CB5B EQ PUSH2 0x40E JUMPI DUP1 PUSH4 0x902FC370 EQ PUSH2 0x439 JUMPI PUSH2 0x166 JUMP JUMPDEST DUP1 PUSH4 0x3EC5BC14 GT PUSH2 0x123 JUMPI DUP1 PUSH4 0x3EC5BC14 EQ PUSH2 0x267 JUMPI DUP1 PUSH4 0x40429946 EQ PUSH2 0x290 JUMPI DUP1 PUSH4 0x4AB0D190 EQ PUSH2 0x2B9 JUMPI DUP1 PUSH4 0x50188301 EQ PUSH2 0x2F6 JUMPI DUP1 PUSH4 0x52043783 EQ PUSH2 0x321 JUMPI DUP1 PUSH4 0x5FFA6288 EQ PUSH2 0x34C JUMPI PUSH2 0x166 JUMP JUMPDEST DUP1 PUSH4 0x1994B99 EQ PUSH2 0x16B JUMPI DUP1 PUSH4 0x33F49F7 EQ PUSH2 0x194 JUMPI DUP1 PUSH4 0x165D35E1 EQ PUSH2 0x1BD JUMPI DUP1 PUSH4 0x181F5A77 EQ PUSH2 0x1E8 JUMPI DUP1 PUSH4 0x2408AFAA EQ PUSH2 0x213 JUMPI DUP1 PUSH4 0x3C6D41B9 EQ PUSH2 0x23E JUMPI JUMPDEST PUSH1 0x0 DUP1 REVERT JUMPDEST CALLVALUE DUP1 ISZERO PUSH2 0x177 JUMPI PUSH1 0x0 DUP1 REVERT JUMPDEST POP PUSH2 0x192 PUSH1 0x4 DUP1 CALLDATASIZE SUB DUP2 ADD SWAP1 PUSH2 0x18D SWAP2 SWAP1 PUSH2 0x29E9 JUMP JUMPDEST PUSH2 0x5A9 JUMP JUMPDEST STOP JUMPDEST CALLVALUE DUP1 ISZERO PUSH2 0x1A0 JUMPI PUSH1 0x0 DUP1 REVERT JUMPDEST POP PUSH2 0x1BB PUSH1 0x4 DUP1 CALLDATASIZE SUB DUP2 ADD SWAP1 PUSH2 0x1B6 SWAP2 SWAP1 PUSH2 0x2AEA JUMP JUMPDEST PUSH2 0x784 JUMP JUMPDEST STOP JUMPDEST CALLVALUE DUP1 ISZERO PUSH2 0x1C9 JUMPI PUSH1 0x0 DUP1 REVERT JUMPDEST POP PUSH2 0x1D2 PUSH2 0x92B JUMP JUMPDEST PUSH1 0x40 MLOAD PUSH2 0x1DF SWAP2 SWAP1 PUSH2 0x2B59 JUMP JUMPDEST PUSH1 0x40 MLOAD DUP1 SWAP2 SUB SWAP1 RETURN JUMPDEST CALLVALUE DUP1 ISZERO PUSH2 0x1F4 JUMPI PUSH1 0x0 DUP1 REVERT JUMPDEST POP PUSH2 0x1FD PUSH2 0x953 JUMP JUMPDEST PUSH1 0x40 MLOAD PUSH2 0x20A SWAP2 SWAP1 PUSH2 0x2C04 JUMP JUMPDEST PUSH1 0x40 MLOAD DUP1 SWAP2 SUB SWAP1 RETURN JUMPDEST CALLVALUE DUP1 ISZERO PUSH2 0x21F JUMPI PUSH1 0x0 DUP1 REVERT JUMPDEST POP PUSH2 0x228 PUSH2 0x98C JUMP JUMPDEST PUSH1 0x40 MLOAD PUSH2 0x235 SWAP2 SWAP1 PUSH2 0x2CE4 JUMP JUMPDEST PUSH1 0x40 MLOAD DUP1 SWAP2 SUB SWAP1 RETURN JUMPDEST CALLVALUE DUP1 ISZERO PUSH2 0x24A JUMPI PUSH1 0x0 DUP1 REVERT JUMPDEST POP PUSH2 0x265 PUSH1 0x4 DUP1 CALLDATASIZE SUB DUP2 ADD SWAP1 PUSH2 0x260 SWAP2 SWAP1 PUSH2 0x2DCA JUMP JUMPDEST PUSH2 0xA1A JUMP JUMPDEST STOP JUMPDEST CALLVALUE DUP1 ISZERO PUSH2 0x273 JUMPI PUSH1 0x0 DUP1 REVERT JUMPDEST POP PUSH2 0x28E PUSH1 0x4 DUP1 CALLDATASIZE SUB DUP2 ADD SWAP1 PUSH2 0x289 SWAP2 SWAP1 PUSH2 0x2E8C JUMP JUMPDEST PUSH2 0xAF8 JUMP JUMPDEST STOP JUMPDEST CALLVALUE DUP1 ISZERO PUSH2 0x29C JUMPI PUSH1 0x0 DUP1 REVERT JUMPDEST POP PUSH2 0x2B7 PUSH1 0x4 DUP1 CALLDATASIZE SUB DUP2 ADD SWAP1 PUSH2 0x2B2 SWAP2 SWAP1 PUSH2 0x2EEC JUMP JUMPDEST PUSH2 0xC36 JUMP JUMPDEST STOP JUMPDEST CALLVALUE DUP1 ISZERO PUSH2 0x2C5 JUMPI PUSH1 0x0 DUP1 REVERT JUMPDEST POP PUSH2 0x2E0 PUSH1 0x4 DUP1 CALLDATASIZE SUB DUP2 ADD SWAP1 PUSH2 0x2DB SWAP2 SWAP1 PUSH2 0x2FC2 JUMP JUMPDEST PUSH2 0xD15 JUMP JUMPDEST PUSH1 0x40 MLOAD PUSH2 0x2ED SWAP2 SWAP1 PUSH2 0x306A JUMP JUMPDEST PUSH1 0x40 MLOAD DUP1 SWAP2 SUB SWAP1 RETURN JUMPDEST CALLVALUE DUP1 ISZERO PUSH2 0x302 JUMPI PUSH1 0x0 DUP1 REVERT JUMPDEST POP PUSH2 0x30B PUSH2 0xF8A JUMP JUMPDEST PUSH1 0x40 MLOAD PUSH2 0x318 SWAP2 SWAP1 PUSH2 0x3094 JUMP JUMPDEST PUSH1 0x40 MLOAD DUP1 SWAP2 SUB SWAP1 RETURN JUMPDEST CALLVALUE DUP1 ISZERO PUSH2 0x32D JUMPI PUSH1 0x0 DUP1 REVERT JUMPDEST POP PUSH2 0x336 PUSH2 0xF99 JUMP JUMPDEST PUSH1 0x40 MLOAD PUSH2 0x343 SWAP2 SWAP1 PUSH2 0x3094 JUMP JUMPDEST PUSH1 0x40 MLOAD DUP1 SWAP2 SUB SWAP1 RETURN JUMPDEST CALLVALUE DUP1 ISZERO PUSH2 0x358 JUMPI PUSH1 0x0 DUP1 REVERT JUMPDEST POP PUSH2 0x373 PUSH1 0x4 DUP1 CALLDATASIZE SUB DUP2 ADD SWAP1 PUSH2 0x36E SWAP2 SWAP1 PUSH2 0x30AF JUMP JUMPDEST PUSH2 0xF9F JUMP JUMPDEST STOP JUMPDEST CALLVALUE DUP1 ISZERO PUSH2 0x381 JUMPI PUSH1 0x0 DUP1 REVERT JUMPDEST POP PUSH2 0x39C PUSH1 0x4 DUP1 CALLDATASIZE SUB DUP2 ADD SWAP1 PUSH2 0x397 SWAP2 SWAP1 PUSH2 0x3130 JUMP JUMPDEST PUSH2 0x1002 JUMP JUMPDEST PUSH1 0x40 MLOAD PUSH2 0x3A9 SWAP2 SWAP1 PUSH2 0x306A JUMP JUMPDEST PUSH1 0x40 MLOAD DUP1 SWAP2 SUB SWAP1 RETURN JUMPDEST PUSH2 0x3CC PUSH1 0x4 DUP1 CALLDATASIZE SUB DUP2 ADD SWAP1 PUSH2 0x3C7 SWAP2 SWAP1 PUSH2 0x328B JUMP JUMPDEST PUSH2 0x12C1 JUMP JUMPDEST STOP JUMPDEST CALLVALUE DUP1 ISZERO PUSH2 0x3DA JUMPI PUSH1 0x0 DUP1 REVERT JUMPDEST POP PUSH2 0x3F5 PUSH1 0x4 DUP1 CALLDATASIZE SUB DUP2 ADD SWAP1 PUSH2 0x3F0 SWAP2 SWAP1 PUSH2 0x330C JUMP JUMPDEST PUSH2 0x1488 JUMP JUMPDEST STOP JUMPDEST CALLVALUE DUP1 ISZERO PUSH2 0x403 JUMPI PUSH1 0x0 DUP1 REVERT JUMPDEST POP PUSH2 0x40C PUSH2 0x1690 JUMP JUMPDEST STOP JUMPDEST CALLVALUE DUP1 ISZERO PUSH2 0x41A JUMPI PUSH1 0x0 DUP1 REVERT JUMPDEST POP PUSH2 0x423 PUSH2 0x1827 JUMP JUMPDEST PUSH1 0x40 MLOAD PUSH2 0x430 SWAP2 SWAP1 PUSH2 0x2B59 JUMP JUMPDEST PUSH1 0x40 MLOAD DUP1 SWAP2 SUB SWAP1 RETURN JUMPDEST CALLVALUE DUP1 ISZERO PUSH2 0x445 JUMPI PUSH1 0x0 DUP1 REVERT JUMPDEST POP PUSH2 0x460 PUSH1 0x4 DUP1 CALLDATASIZE SUB DUP2 ADD SWAP1 PUSH2 0x45B SWAP2 SWAP1 PUSH2 0x3373 JUMP JUMPDEST PUSH2 0x1851 JUMP JUMPDEST PUSH1 0x40 MLOAD PUSH2 0x46D SWAP2 SWAP1 PUSH2 0x306A JUMP JUMPDEST PUSH1 0x40 MLOAD DUP1 SWAP2 SUB SWAP1 RETURN JUMPDEST CALLVALUE DUP1 ISZERO PUSH2 0x482 JUMPI PUSH1 0x0 DUP1 REVERT JUMPDEST POP PUSH2 0x49D PUSH1 0x4 DUP1 CALLDATASIZE SUB DUP2 ADD SWAP1 PUSH2 0x498 SWAP2 SWAP1 PUSH2 0x3517 JUMP JUMPDEST PUSH2 0x1953 JUMP JUMPDEST STOP JUMPDEST CALLVALUE DUP1 ISZERO PUSH2 0x4AB JUMPI PUSH1 0x0 DUP1 REVERT JUMPDEST POP PUSH2 0x4C6 PUSH1 0x4 DUP1 CALLDATASIZE SUB DUP2 ADD SWAP1 PUSH2 0x4C1 SWAP2 SWAP1 PUSH2 0x3586 JUMP JUMPDEST PUSH2 0x1A9B JUMP JUMPDEST STOP JUMPDEST CALLVALUE DUP1 ISZERO PUSH2 0x4D4 JUMPI PUSH1 0x0 DUP1 REVERT JUMPDEST POP PUSH2 0x4EF PUSH1 0x4 DUP1 CALLDATASIZE SUB DUP2 ADD SWAP1 PUSH2 0x4EA SWAP2 SWAP1 PUSH2 0x29E9 JUMP JUMPDEST PUSH2 0x1AD5 JUMP JUMPDEST STOP JUMPDEST CALLVALUE DUP1 ISZERO PUSH2 0x4FD JUMPI PUSH1 0x0 DUP1 REVERT JUMPDEST POP PUSH2 0x518 PUSH1 0x4 DUP1 CALLDATASIZE SUB DUP2 ADD SWAP1 PUSH2 0x513 SWAP2 SWAP1 PUSH2 0x35ED JUMP JUMPDEST PUSH2 0x1DC7 JUMP JUMPDEST STOP JUMPDEST CALLVALUE DUP1 ISZERO PUSH2 0x526 JUMPI PUSH1 0x0 DUP1 REVERT JUMPDEST POP PUSH2 0x541 PUSH1 0x4 DUP1 CALLDATASIZE SUB DUP2 ADD SWAP1 PUSH2 0x53C SWAP2 SWAP1 PUSH2 0x361A JUMP JUMPDEST PUSH2 0x1DDB JUMP JUMPDEST STOP JUMPDEST CALLVALUE DUP1 ISZERO PUSH2 0x54F JUMPI PUSH1 0x0 DUP1 REVERT JUMPDEST POP PUSH2 0x56A PUSH1 0x4 DUP1 CALLDATASIZE SUB DUP2 ADD SWAP1 PUSH2 0x565 SWAP2 SWAP1 PUSH2 0x35ED JUMP JUMPDEST PUSH2 0x1EDE JUMP JUMPDEST PUSH1 0x40 MLOAD PUSH2 0x577 SWAP2 SWAP1 PUSH2 0x306A JUMP JUMPDEST PUSH1 0x40 MLOAD DUP1 SWAP2 SUB SWAP1 RETURN JUMPDEST CALLVALUE DUP1 ISZERO PUSH2 0x58C JUMPI PUSH1 0x0 DUP1 REVERT JUMPDEST POP PUSH2 0x5A7 PUSH1 0x4 DUP1 CALLDATASIZE SUB DUP2 ADD SWAP1 PUSH2 0x5A2 SWAP2 SWAP1 PUSH2 0x30AF JUMP JUMPDEST PUSH2 0x1F33 JUMP JUMPDEST STOP JUMPDEST PUSH2 0x5B1 PUSH2 0x2073 JUMP JUMPDEST PUSH2 0x5F0 JUMPI PUSH1 0x40 MLOAD PUSH32 0x8C379A000000000000000000000000000000000000000000000000000000000 DUP2 MSTORE PUSH1 0x4 ADD PUSH2 0x5E7 SWAP1 PUSH2 0x36A6 JUMP JUMPDEST PUSH1 0x40 MLOAD DUP1 SWAP2 SUB SWAP1 REVERT JUMPDEST PUSH1 0x0 JUMPDEST DUP3 DUP3 SWAP1 POP DUP2 LT ISZERO PUSH2 0x77F JUMPI PUSH1 0x1 PUSH1 0x5 PUSH1 0x0 DUP6 DUP6 DUP6 DUP2 DUP2 LT PUSH2 0x617 JUMPI PUSH2 0x616 PUSH2 0x36C6 JUMP JUMPDEST JUMPDEST SWAP1 POP PUSH1 0x20 MUL ADD PUSH1 0x20 DUP2 ADD SWAP1 PUSH2 0x62C SWAP2 SWAP1 PUSH2 0x35ED JUMP JUMPDEST PUSH20 0xFFFFFFFFFFFFFFFFFFFFFFFFFFFFFFFFFFFFFFFF AND PUSH20 0xFFFFFFFFFFFFFFFFFFFFFFFFFFFFFFFFFFFFFFFF AND DUP2 MSTORE PUSH1 0x20 ADD SWAP1 DUP2 MSTORE PUSH1 0x20 ADD PUSH1 0x0 KECCAK256 PUSH1 0x0 PUSH2 0x100 EXP DUP2 SLOAD DUP2 PUSH1 0xFF MUL NOT AND SWAP1 DUP4 ISZERO ISZERO MUL OR SWAP1 SSTORE POP DUP3 DUP3 DUP3 DUP2 DUP2 LT PUSH2 0x690 JUMPI PUSH2 0x68F PUSH2 0x36C6 JUMP JUMPDEST JUMPDEST SWAP1 POP PUSH1 0x20 MUL ADD PUSH1 0x20 DUP2 ADD SWAP1 PUSH2 0x6A5 SWAP2 SWAP1 PUSH2 0x35ED JUMP JUMPDEST PUSH20 0xFFFFFFFFFFFFFFFFFFFFFFFFFFFFFFFFFFFFFFFF AND PUSH32 0x615A0C1CB00A60D4ACD77EC67ACF2F17F223EF0932D591052FABC33643FE7E82 PUSH1 0x40 MLOAD PUSH1 0x40 MLOAD DUP1 SWAP2 SUB SWAP1 LOG2 DUP3 DUP3 DUP3 DUP2 DUP2 LT PUSH2 0x6FA JUMPI PUSH2 0x6F9 PUSH2 0x36C6 JUMP JUMPDEST JUMPDEST SWAP1 POP PUSH1 0x20 MUL ADD PUSH1 0x20 DUP2 ADD SWAP1 PUSH2 0x70F SWAP2 SWAP1 PUSH2 0x35ED JUMP JUMPDEST PUSH20 0xFFFFFFFFFFFFFFFFFFFFFFFFFFFFFFFFFFFFFFFF AND PUSH4 0x79BA5097 PUSH1 0x40 MLOAD DUP2 PUSH4 0xFFFFFFFF AND PUSH1 0xE0 SHL DUP2 MSTORE PUSH1 0x4 ADD PUSH1 0x0 PUSH1 0x40 MLOAD DUP1 DUP4 SUB DUP2 PUSH1 0x0 DUP8 DUP1 EXTCODESIZE ISZERO DUP1 ISZERO PUSH2 0x756 JUMPI PUSH1 0x0 DUP1 REVERT JUMPDEST POP GAS CALL ISZERO DUP1 ISZERO PUSH2 0x76A JUMPI RETURNDATASIZE PUSH1 0x0 DUP1 RETURNDATACOPY RETURNDATASIZE PUSH1 0x0 REVERT JUMPDEST POP POP POP POP DUP1 PUSH2 0x778 SWAP1 PUSH2 0x3724 JUMP JUMPDEST SWAP1 POP PUSH2 0x5F3 JUMP JUMPDEST POP POP POP JUMP JUMPDEST PUSH2 0x78C PUSH2 0x20C0 JUMP JUMPDEST DUP3 PUSH32 0x0 PUSH20 0xFFFFFFFFFFFFFFFFFFFFFFFFFFFFFFFFFFFFFFFF AND DUP2 PUSH20 0xFFFFFFFFFFFFFFFFFFFFFFFFFFFFFFFFFFFFFFFF AND SUB PUSH2 0x81B JUMPI PUSH1 0x40 MLOAD PUSH32 0x8C379A000000000000000000000000000000000000000000000000000000000 DUP2 MSTORE PUSH1 0x4 ADD PUSH2 0x812 SWAP1 PUSH2 0x37B8 JUMP JUMPDEST PUSH1 0x40 MLOAD DUP1 SWAP2 SUB SWAP1 REVERT JUMPDEST PUSH1 0x0 DUP5 PUSH20 0xFFFFFFFFFFFFFFFFFFFFFFFFFFFFFFFFFFFFFFFF AND EXTCODESIZE SUB PUSH2 0x875 JUMPI PUSH1 0x40 MLOAD PUSH32 0x8C379A000000000000000000000000000000000000000000000000000000000 DUP2 MSTORE PUSH1 0x4 ADD PUSH2 0x86C SWAP1 PUSH2 0x3824 JUMP JUMPDEST PUSH1 0x40 MLOAD DUP1 SWAP2 SUB SWAP1 REVERT JUMPDEST PUSH1 0x0 DUP5 PUSH20 0xFFFFFFFFFFFFFFFFFFFFFFFFFFFFFFFFFFFFFFFF AND DUP5 DUP5 PUSH1 0x40 MLOAD PUSH2 0x89E SWAP3 SWAP2 SWAP1 PUSH2 0x3874 JUMP JUMPDEST PUSH1 0x0 PUSH1 0x40 MLOAD DUP1 DUP4 SUB DUP2 PUSH1 0x0 DUP7 GAS CALL SWAP2 POP POP RETURNDATASIZE DUP1 PUSH1 0x0 DUP2 EQ PUSH2 0x8DB JUMPI PUSH1 0x40 MLOAD SWAP2 POP PUSH1 0x1F NOT PUSH1 0x3F RETURNDATASIZE ADD AND DUP3 ADD PUSH1 0x40 MSTORE RETURNDATASIZE DUP3 MSTORE RETURNDATASIZE PUSH1 0x0 PUSH1 0x20 DUP5 ADD RETURNDATACOPY PUSH2 0x8E0 JUMP JUMPDEST PUSH1 0x60 SWAP2 POP JUMPDEST POP POP SWAP1 POP DUP1 PUSH2 0x924 JUMPI PUSH1 0x40 MLOAD PUSH32 0x8C379A000000000000000000000000000000000000000000000000000000000 DUP2 MSTORE PUSH1 0x4 ADD PUSH2 0x91B SWAP1 PUSH2 0x38D9 JUMP JUMPDEST PUSH1 0x40 MLOAD DUP1 SWAP2 SUB SWAP1 REVERT JUMPDEST POP POP POP POP POP JUMP JUMPDEST PUSH1 0x0 PUSH32 0x0 SWAP1 POP SWAP1 JUMP JUMPDEST PUSH1 0x40 MLOAD DUP1 PUSH1 0x40 ADD PUSH1 0x40 MSTORE DUP1 PUSH1 0xE DUP2 MSTORE PUSH1 0x20 ADD PUSH32 0x4F70657261746F7220312E302E30000000000000000000000000000000000000 DUP2 MSTORE POP DUP2 JUMP JUMPDEST PUSH1 0x60 PUSH1 0x1 DUP1 SLOAD DUP1 PUSH1 0x20 MUL PUSH1 0x20 ADD PUSH1 0x40 MLOAD SWAP1 DUP2 ADD PUSH1 0x40 MSTORE DUP1 SWAP3 SWAP2 SWAP1 DUP2 DUP2 MSTORE PUSH1 0x20 ADD DUP3 DUP1 SLOAD DUP1 ISZERO PUSH2 0xA10 JUMPI PUSH1 0x20 MUL DUP3 ADD SWAP2 SWAP1 PUSH1 0x0 MSTORE PUSH1 0x20 PUSH1 0x0 KECCAK256 SWAP1 JUMPDEST DUP2 PUSH1 0x0 SWAP1 SLOAD SWAP1 PUSH2 0x100 EXP SWAP1 DIV PUSH20 0xFFFFFFFFFFFFFFFFFFFFFFFFFFFFFFFFFFFFFFFF AND PUSH20 0xFFFFFFFFFFFFFFFFFFFFFFFFFFFFFFFFFFFFFFFF AND DUP2 MSTORE PUSH1 0x20 ADD SWAP1 PUSH1 0x1 ADD SWAP1 DUP1 DUP4 GT PUSH2 0x9C6 JUMPI JUMPDEST POP POP POP POP POP SWAP1 POP SWAP1 JUMP JUMPDEST PUSH2 0xA22 PUSH2 0x92B JUMP JUMPDEST PUSH20 0xFFFFFFFFFFFFFFFFFFFFFFFFFFFFFFFFFFFFFFFF AND CALLER PUSH20 0xFFFFFFFFFFFFFFFFFFFFFFFFFFFFFFFFFFFFFFFF AND EQ PUSH2 0xA8F JUMPI PUSH1 0x40 MLOAD PUSH32 0x8C379A000000000000000000000000000000000000000000000000000000000 DUP2 MSTORE PUSH1 0x4 ADD PUSH2 0xA86 SWAP1 PUSH2 0x3945 JUMP JUMPDEST PUSH1 0x40 MLOAD DUP1 SWAP2 SUB SWAP1 REVERT JUMPDEST PUSH1 0x0 DUP1 PUSH2 0xAA0 DUP11 DUP11 DUP13 DUP11 DUP11 DUP11 PUSH2 0x2152 JUMP JUMPDEST SWAP2 POP SWAP2 POP DUP8 PUSH32 0xD8D7ECC4800D25FA53CE0372F13A416D98907A7EF3D8D3BDD79CF4FE75529C65 DUP12 DUP5 DUP13 DUP15 DUP13 DUP8 DUP13 DUP13 DUP13 PUSH1 0x40 MLOAD PUSH2 0xAE4 SWAP10 SWAP9 SWAP8 SWAP7 SWAP6 SWAP5 SWAP4 SWAP3 SWAP2 SWAP1 PUSH2 0x39C1 JUMP JUMPDEST PUSH1 0x40 MLOAD DUP1 SWAP2 SUB SWAP1 LOG2 POP POP POP POP POP POP POP POP POP POP JUMP JUMPDEST PUSH2 0xB00 PUSH2 0x20C0 JUMP JUMPDEST PUSH1 0x0 JUMPDEST DUP4 DUP4 SWAP1 POP DUP2 LT ISZERO PUSH2 0xC30 JUMPI PUSH1 0x0 PUSH1 0x5 PUSH1 0x0 DUP7 DUP7 DUP6 DUP2 DUP2 LT PUSH2 0xB27 JUMPI PUSH2 0xB26 PUSH2 0x36C6 JUMP JUMPDEST JUMPDEST SWAP1 POP PUSH1 0x20 MUL ADD PUSH1 0x20 DUP2 ADD SWAP1 PUSH2 0xB3C SWAP2 SWAP1 PUSH2 0x35ED JUMP JUMPDEST PUSH20 0xFFFFFFFFFFFFFFFFFFFFFFFFFFFFFFFFFFFFFFFF AND PUSH20 0xFFFFFFFFFFFFFFFFFFFFFFFFFFFFFFFFFFFFFFFF AND DUP2 MSTORE PUSH1 0x20 ADD SWAP1 DUP2 MSTORE PUSH1 0x20 ADD PUSH1 0x0 KECCAK256 PUSH1 0x0 PUSH2 0x100 EXP DUP2 SLOAD DUP2 PUSH1 0xFF MUL NOT AND SWAP1 DUP4 ISZERO ISZERO MUL OR SWAP1 SSTORE POP DUP4 DUP4 DUP3 DUP2 DUP2 LT PUSH2 0xBA0 JUMPI PUSH2 0xB9F PUSH2 0x36C6 JUMP JUMPDEST JUMPDEST SWAP1 POP PUSH1 0x20 MUL ADD PUSH1 0x20 DUP2 ADD SWAP1 PUSH2 0xBB5 SWAP2 SWAP1 PUSH2 0x35ED JUMP JUMPDEST PUSH20 0xFFFFFFFFFFFFFFFFFFFFFFFFFFFFFFFFFFFFFFFF AND PUSH4 0xF2FDE38B DUP4 PUSH1 0x40 MLOAD DUP3 PUSH4 0xFFFFFFFF AND PUSH1 0xE0 SHL DUP2 MSTORE PUSH1 0x4 ADD PUSH2 0xBED SWAP2 SWAP1 PUSH2 0x2B59 JUMP JUMPDEST PUSH1 0x0 PUSH1 0x40 MLOAD DUP1 DUP4 SUB DUP2 PUSH1 0x0 DUP8 DUP1 EXTCODESIZE ISZERO DUP1 ISZERO PUSH2 0xC07 JUMPI PUSH1 0x0 DUP1 REVERT JUMPDEST POP GAS CALL ISZERO DUP1 ISZERO PUSH2 0xC1B JUMPI RETURNDATASIZE PUSH1 0x0 DUP1 RETURNDATACOPY RETURNDATASIZE PUSH1 0x0 REVERT JUMPDEST POP POP POP POP DUP1 PUSH2 0xC29 SWAP1 PUSH2 0x3724 JUMP JUMPDEST SWAP1 POP PUSH2 0xB03 JUMP JUMPDEST POP POP POP POP JUMP JUMPDEST PUSH2 0xC3E PUSH2 0x92B JUMP JUMPDEST PUSH20 0xFFFFFFFFFFFFFFFFFFFFFFFFFFFFFFFFFFFFFFFF AND CALLER PUSH20 0xFFFFFFFFFFFFFFFFFFFFFFFFFFFFFFFFFFFFFFFF AND EQ PUSH2 0xCAB JUMPI PUSH1 0x40 MLOAD PUSH32 0x8C379A000000000000000000000000000000000000000000000000000000000 DUP2 MSTORE PUSH1 0x4 ADD PUSH2 0xCA2 SWAP1 PUSH2 0x3945 JUMP JUMPDEST PUSH1 0x40 MLOAD DUP1 SWAP2 SUB SWAP1 REVERT JUMPDEST PUSH1 0x0 DUP1 PUSH2 0xCBC DUP12 DUP12 DUP11 DUP11 DUP11 DUP11 PUSH2 0x2152 JUMP JUMPDEST SWAP2 POP SWAP2 POP DUP9 PUSH32 0xD8D7ECC4800D25FA53CE0372F13A416D98907A7EF3D8D3BDD79CF4FE75529C65 DUP13 DUP5 DUP14 DUP16 DUP13 DUP8 DUP13 DUP13 DUP13 PUSH1 0x40 MLOAD PUSH2 0xD00 SWAP10 SWAP9 SWAP8 SWAP7 SWAP6 SWAP5 SWAP4 SWAP3 SWAP2 SWAP1 PUSH2 0x39C1 JUMP JUMPDEST PUSH1 0x40 MLOAD DUP1 SWAP2 SUB SWAP1 LOG2 POP POP POP POP POP POP POP POP POP POP POP JUMP JUMPDEST PUSH1 0x0 PUSH2 0xD1F PUSH2 0x2357 JUMP JUMPDEST DUP7 PUSH1 0x0 PUSH1 0x8 SHL PUSH1 0x4 PUSH1 0x0 DUP4 DUP2 MSTORE PUSH1 0x20 ADD SWAP1 DUP2 MSTORE PUSH1 0x20 ADD PUSH1 0x0 KECCAK256 PUSH1 0x0 ADD PUSH1 0x0 SWAP1 SLOAD SWAP1 PUSH2 0x100 EXP SWAP1 DIV PUSH1 0x8 SHL PUSH1 0xFF NOT AND SUB PUSH2 0xD8D JUMPI PUSH1 0x40 MLOAD PUSH32 0x8C379A000000000000000000000000000000000000000000000000000000000 DUP2 MSTORE PUSH1 0x4 ADD PUSH2 0xD84 SWAP1 PUSH2 0x3A94 JUMP JUMPDEST PUSH1 0x40 MLOAD DUP1 SWAP2 SUB SWAP1 REVERT JUMPDEST DUP6 PUSH1 0x5 PUSH1 0x0 DUP3 PUSH20 0xFFFFFFFFFFFFFFFFFFFFFFFFFFFFFFFFFFFFFFFF AND PUSH20 0xFFFFFFFFFFFFFFFFFFFFFFFFFFFFFFFFFFFFFFFF AND DUP2 MSTORE PUSH1 0x20 ADD SWAP1 DUP2 MSTORE PUSH1 0x20 ADD PUSH1 0x0 KECCAK256 PUSH1 0x0 SWAP1 SLOAD SWAP1 PUSH2 0x100 EXP SWAP1 DIV PUSH1 0xFF AND ISZERO PUSH2 0xE1B JUMPI PUSH1 0x40 MLOAD PUSH32 0x8C379A000000000000000000000000000000000000000000000000000000000 DUP2 MSTORE PUSH1 0x4 ADD PUSH2 0xE12 SWAP1 PUSH2 0x3B00 JUMP JUMPDEST PUSH1 0x40 MLOAD DUP1 SWAP2 SUB SWAP1 REVERT JUMPDEST PUSH2 0xE2A DUP10 DUP10 DUP10 DUP10 DUP10 PUSH1 0x1 PUSH2 0x23A1 JUMP JUMPDEST DUP9 PUSH32 0x9E9BC7616D42C2835D05AE617E508454E63B30B934BE8AA932EBC125E0E58A64 PUSH1 0x40 MLOAD PUSH1 0x40 MLOAD DUP1 SWAP2 SUB SWAP1 LOG2 PUSH3 0x61A80 GAS LT ISZERO PUSH2 0xE9D JUMPI PUSH1 0x40 MLOAD PUSH32 0x8C379A000000000000000000000000000000000000000000000000000000000 DUP2 MSTORE PUSH1 0x4 ADD PUSH2 0xE94 SWAP1 PUSH2 0x3B6C JUMP JUMPDEST PUSH1 0x40 MLOAD DUP1 SWAP2 SUB SWAP1 REVERT JUMPDEST PUSH1 0x0 DUP8 PUSH20 0xFFFFFFFFFFFFFFFFFFFFFFFFFFFFFFFFFFFFFFFF AND DUP8 DUP12 DUP8 PUSH1 0x40 MLOAD PUSH1 0x24 ADD PUSH2 0xECA SWAP3 SWAP2 SWAP1 PUSH2 0x3B8C JUMP JUMPDEST PUSH1 0x40 MLOAD PUSH1 0x20 DUP2 DUP4 SUB SUB DUP2 MSTORE SWAP1 PUSH1 0x40 MSTORE SWAP1 PUSH28 0xFFFFFFFFFFFFFFFFFFFFFFFFFFFFFFFFFFFFFFFFFFFFFFFFFFFFFFFF NOT AND PUSH1 0x20 DUP3 ADD DUP1 MLOAD PUSH28 0xFFFFFFFFFFFFFFFFFFFFFFFFFFFFFFFFFFFFFFFFFFFFFFFFFFFFFFFF DUP4 DUP2 DUP4 AND OR DUP4 MSTORE POP POP POP POP PUSH1 0x40 MLOAD PUSH2 0xF34 SWAP2 SWAP1 PUSH2 0x3BF1 JUMP JUMPDEST PUSH1 0x0 PUSH1 0x40 MLOAD DUP1 DUP4 SUB DUP2 PUSH1 0x0 DUP7 GAS CALL SWAP2 POP POP RETURNDATASIZE DUP1 PUSH1 0x0 DUP2 EQ PUSH2 0xF71 JUMPI PUSH1 0x40 MLOAD SWAP2 POP PUSH1 0x1F NOT PUSH1 0x3F RETURNDATASIZE ADD AND DUP3 ADD PUSH1 0x40 MSTORE RETURNDATASIZE DUP3 MSTORE RETURNDATASIZE PUSH1 0x0 PUSH1 0x20 DUP5 ADD RETURNDATACOPY PUSH2 0xF76 JUMP JUMPDEST PUSH1 0x60 SWAP2 POP JUMPDEST POP POP SWAP1 POP DUP1 SWAP4 POP POP POP POP SWAP7 SWAP6 POP POP POP POP POP POP JUMP JUMPDEST PUSH1 0x0 PUSH2 0xF94 PUSH2 0x250B JUMP JUMPDEST SWAP1 POP SWAP1 JUMP JUMPDEST PUSH2 0x12C DUP2 JUMP JUMPDEST PUSH2 0xFA7 PUSH2 0x2073 JUMP JUMPDEST PUSH2 0xFE6 JUMPI PUSH1 0x40 MLOAD PUSH32 0x8C379A000000000000000000000000000000000000000000000000000000000 DUP2 MSTORE PUSH1 0x4 ADD PUSH2 0xFDD SWAP1 PUSH2 0x36A6 JUMP JUMPDEST PUSH1 0x40 MLOAD DUP1 SWAP2 SUB SWAP1 REVERT JUMPDEST PUSH2 0xFF0 DUP5 DUP5 PUSH2 0x5A9 JUMP JUMPDEST PUSH2 0xFFC DUP5 DUP5 DUP5 DUP5 PUSH2 0x1F33 JUMP JUMPDEST POP POP POP POP JUMP JUMPDEST PUSH1 0x0 PUSH2 0x100C PUSH2 0x2357 JUMP JUMPDEST DUP8 PUSH1 0x0 PUSH1 0x8 SHL PUSH1 0x4 PUSH1 0x0 DUP4 DUP2 MSTORE PUSH1 0x20 ADD SWAP1 DUP2 MSTORE PUSH1 0x20 ADD PUSH1 0x0 KECCAK256 PUSH1 0x0 ADD PUSH1 0x0 SWAP1 SLOAD SWAP1 PUSH2 0x100 EXP SWAP1 DIV PUSH1 0x8 SHL PUSH1 0xFF NOT AND SUB PUSH2 0x107A JUMPI PUSH1 0x40 MLOAD PUSH32 0x8C379A000000000000000000000000000000000000000000000000000000000 DUP2 MSTORE PUSH1 0x4 ADD PUSH2 0x1071 SWAP1 PUSH2 0x3A94 JUMP JUMPDEST PUSH1 0x40 MLOAD DUP1 SWAP2 SUB SWAP1 REVERT JUMPDEST DUP7 PUSH1 0x5 PUSH1 0x0 DUP3 PUSH20 0xFFFFFFFFFFFFFFFFFFFFFFFFFFFFFFFFFFFFFFFF AND PUSH20 0xFFFFFFFFFFFFFFFFFFFFFFFFFFFFFFFFFFFFFFFF AND DUP2 MSTORE PUSH1 0x20 ADD SWAP1 DUP2 MSTORE PUSH1 0x20 ADD PUSH1 0x0 KECCAK256 PUSH1 0x0 SWAP1 SLOAD SWAP1 PUSH2 0x100 EXP SWAP1 DIV PUSH1 0xFF AND ISZERO PUSH2 0x1108 JUMPI PUSH1 0x40 MLOAD PUSH32 0x8C379A000000000000000000000000000000000000000000000000000000000 DUP2 MSTORE PUSH1 0x4 ADD PUSH2 0x10FF SWAP1 PUSH2 0x3B00 JUMP JUMPDEST PUSH1 0x40 MLOAD DUP1 SWAP2 SUB SWAP1 REVERT JUMPDEST DUP10 DUP6 DUP6 PUSH1 0x20 DUP3 DUP3 SWAP1 POP LT ISZERO PUSH2 0x1152 JUMPI PUSH1 0x40 MLOAD PUSH32 0x8C379A000000000000000000000000000000000000000000000000000000000 DUP2 MSTORE PUSH1 0x4 ADD PUSH2 0x1149 SWAP1 PUSH2 0x3C54 JUMP JUMPDEST PUSH1 0x40 MLOAD DUP1 SWAP2 SUB SWAP1 REVERT JUMPDEST PUSH1 0x0 DUP3 CALLDATALOAD SWAP1 POP DUP1 DUP5 EQ PUSH2 0x119A JUMPI PUSH1 0x40 MLOAD PUSH32 0x8C379A000000000000000000000000000000000000000000000000000000000 DUP2 MSTORE PUSH1 0x4 ADD PUSH2 0x1191 SWAP1 PUSH2 0x3CC0 JUMP JUMPDEST PUSH1 0x40 MLOAD DUP1 SWAP2 SUB SWAP1 REVERT JUMPDEST PUSH2 0x11A9 DUP15 DUP15 DUP15 DUP15 DUP15 PUSH1 0x2 PUSH2 0x23A1 JUMP JUMPDEST DUP14 PUSH32 0x9E9BC7616D42C2835D05AE617E508454E63B30B934BE8AA932EBC125E0E58A64 PUSH1 0x40 MLOAD PUSH1 0x40 MLOAD DUP1 SWAP2 SUB SWAP1 LOG2 PUSH3 0x61A80 GAS LT ISZERO PUSH2 0x121C JUMPI PUSH1 0x40 MLOAD PUSH32 0x8C379A000000000000000000000000000000000000000000000000000000000 DUP2 MSTORE PUSH1 0x4 ADD PUSH2 0x1213 SWAP1 PUSH2 0x3B6C JUMP JUMPDEST PUSH1 0x40 MLOAD DUP1 SWAP2 SUB SWAP1 REVERT JUMPDEST PUSH1 0x0 DUP13 PUSH20 0xFFFFFFFFFFFFFFFFFFFFFFFFFFFFFFFFFFFFFFFF AND DUP13 DUP12 DUP12 PUSH1 0x40 MLOAD PUSH1 0x20 ADD PUSH2 0x124A SWAP4 SWAP3 SWAP2 SWAP1 PUSH2 0x3D01 JUMP JUMPDEST PUSH1 0x40 MLOAD PUSH1 0x20 DUP2 DUP4 SUB SUB DUP2 MSTORE SWAP1 PUSH1 0x40 MSTORE PUSH1 0x40 MLOAD PUSH2 0x1266 SWAP2 SWAP1 PUSH2 0x3BF1 JUMP JUMPDEST PUSH1 0x0 PUSH1 0x40 MLOAD DUP1 DUP4 SUB DUP2 PUSH1 0x0 DUP7 GAS CALL SWAP2 POP POP RETURNDATASIZE DUP1 PUSH1 0x0 DUP2 EQ PUSH2 0x12A3 JUMPI PUSH1 0x40 MLOAD SWAP2 POP PUSH1 0x1F NOT PUSH1 0x3F RETURNDATASIZE ADD AND DUP3 ADD PUSH1 0x40 MSTORE RETURNDATASIZE DUP3 MSTORE RETURNDATASIZE PUSH1 0x0 PUSH1 0x20 DUP5 ADD RETURNDATACOPY PUSH2 0x12A8 JUMP JUMPDEST PUSH1 0x60 SWAP2 POP JUMPDEST POP POP SWAP1 POP DUP1 SWAP8 POP POP POP POP POP POP POP POP SWAP8 SWAP7 POP POP POP POP POP POP POP JUMP JUMPDEST PUSH1 0x0 DUP5 DUP5 SWAP1 POP GT DUP1 ISZERO PUSH2 0x12D9 JUMPI POP DUP2 DUP2 SWAP1 POP DUP5 DUP5 SWAP1 POP EQ JUMPDEST PUSH2 0x1318 JUMPI PUSH1 0x40 MLOAD PUSH32 0x8C379A000000000000000000000000000000000000000000000000000000000 DUP2 MSTORE PUSH1 0x4 ADD PUSH2 0x130F SWAP1 PUSH2 0x3D77 JUMP JUMPDEST PUSH1 0x40 MLOAD DUP1 SWAP2 SUB SWAP1 REVERT JUMPDEST PUSH1 0x0 CALLVALUE SWAP1 POP PUSH1 0x0 JUMPDEST DUP6 DUP6 SWAP1 POP DUP2 LT ISZERO PUSH2 0x143D JUMPI PUSH1 0x0 DUP5 DUP5 DUP4 DUP2 DUP2 LT PUSH2 0x1340 JUMPI PUSH2 0x133F PUSH2 0x36C6 JUMP JUMPDEST JUMPDEST SWAP1 POP PUSH1 0x20 MUL ADD CALLDATALOAD SWAP1 POP DUP1 DUP4 PUSH2 0x1355 SWAP2 SWAP1 PUSH2 0x3D97 JUMP JUMPDEST SWAP3 POP PUSH1 0x0 DUP8 DUP8 DUP5 DUP2 DUP2 LT PUSH2 0x136C JUMPI PUSH2 0x136B PUSH2 0x36C6 JUMP JUMPDEST JUMPDEST SWAP1 POP PUSH1 0x20 MUL ADD PUSH1 0x20 DUP2 ADD SWAP1 PUSH2 0x1381 SWAP2 SWAP1 PUSH2 0x3E09 JUMP JUMPDEST PUSH20 0xFFFFFFFFFFFFFFFFFFFFFFFFFFFFFFFFFFFFFFFF AND DUP3 PUSH1 0x40 MLOAD PUSH2 0x13A4 SWAP1 PUSH2 0x3E5C JUMP JUMPDEST PUSH1 0x0 PUSH1 0x40 MLOAD DUP1 DUP4 SUB DUP2 DUP6 DUP8 GAS CALL SWAP3 POP POP POP RETURNDATASIZE DUP1 PUSH1 0x0 DUP2 EQ PUSH2 0x13E1 JUMPI PUSH1 0x40 MLOAD SWAP2 POP PUSH1 0x1F NOT PUSH1 0x3F RETURNDATASIZE ADD AND DUP3 ADD PUSH1 0x40 MSTORE RETURNDATASIZE DUP3 MSTORE RETURNDATASIZE PUSH1 0x0 PUSH1 0x20 DUP5 ADD RETURNDATACOPY PUSH2 0x13E6 JUMP JUMPDEST PUSH1 0x60 SWAP2 POP JUMPDEST POP POP SWAP1 POP DUP1 PUSH2 0x142A JUMPI PUSH1 0x40 MLOAD PUSH32 0x8C379A000000000000000000000000000000000000000000000000000000000 DUP2 MSTORE PUSH1 0x4 ADD PUSH2 0x1421 SWAP1 PUSH2 0x3EE3 JUMP JUMPDEST PUSH1 0x40 MLOAD DUP1 SWAP2 SUB SWAP1 REVERT JUMPDEST POP POP DUP1 PUSH2 0x1436 SWAP1 PUSH2 0x3724 JUMP JUMPDEST SWAP1 POP PUSH2 0x1320 JUMP JUMPDEST POP PUSH1 0x0 DUP2 EQ PUSH2 0x1481 JUMPI PUSH1 0x40 MLOAD PUSH32 0x8C379A000000000000000000000000000000000000000000000000000000000 DUP2 MSTORE PUSH1 0x4 ADD PUSH2 0x1478 SWAP1 PUSH2 0x3F4F JUMP JUMPDEST PUSH1 0x40 MLOAD DUP1 SWAP2 SUB SWAP1 REVERT JUMPDEST POP POP POP POP POP JUMP JUMPDEST PUSH1 0x0 PUSH2 0x1496 DUP5 CALLER DUP6 DUP6 PUSH2 0x25C5 JUMP JUMPDEST SWAP1 POP DUP1 PUSH1 0xFF NOT AND PUSH1 0x4 PUSH1 0x0 DUP8 DUP2 MSTORE PUSH1 0x20 ADD SWAP1 DUP2 MSTORE PUSH1 0x20 ADD PUSH1 0x0 KECCAK256 PUSH1 0x0 ADD PUSH1 0x0 SWAP1 SLOAD SWAP1 PUSH2 0x100 EXP SWAP1 DIV PUSH1 0x8 SHL PUSH1 0xFF NOT AND EQ PUSH2 0x1505 JUMPI PUSH1 0x40 MLOAD PUSH32 0x8C379A000000000000000000000000000000000000000000000000000000000 DUP2 MSTORE PUSH1 0x4 ADD PUSH2 0x14FC SWAP1 PUSH2 0x3FBB JUMP JUMPDEST PUSH1 0x40 MLOAD DUP1 SWAP2 SUB SWAP1 REVERT JUMPDEST TIMESTAMP DUP3 GT ISZERO PUSH2 0x1548 JUMPI PUSH1 0x40 MLOAD PUSH32 0x8C379A000000000000000000000000000000000000000000000000000000000 DUP2 MSTORE PUSH1 0x4 ADD PUSH2 0x153F SWAP1 PUSH2 0x4027 JUMP JUMPDEST PUSH1 0x40 MLOAD DUP1 SWAP2 SUB SWAP1 REVERT JUMPDEST PUSH1 0x4 PUSH1 0x0 DUP7 DUP2 MSTORE PUSH1 0x20 ADD SWAP1 DUP2 MSTORE PUSH1 0x20 ADD PUSH1 0x0 KECCAK256 PUSH1 0x0 DUP1 DUP3 ADD PUSH1 0x0 PUSH2 0x100 EXP DUP2 SLOAD SWAP1 PUSH31 0xFFFFFFFFFFFFFFFFFFFFFFFFFFFFFFFFFFFFFFFFFFFFFFFFFFFFFFFFFFFFFF MUL NOT AND SWAP1 SSTORE PUSH1 0x0 DUP3 ADD PUSH1 0x1F PUSH2 0x100 EXP DUP2 SLOAD SWAP1 PUSH1 0xFF MUL NOT AND SWAP1 SSTORE POP POP DUP5 PUSH32 0xA7842B9EC549398102C0D91B1B9919B2F20558AEFDADF57528A95C6CD3292E93 PUSH1 0x40 MLOAD PUSH1 0x40 MLOAD DUP1 SWAP2 SUB SWAP1 LOG2 DUP4 PUSH1 0x6 PUSH1 0x0 DUP3 DUP3 SLOAD PUSH2 0x15E3 SWAP2 SWAP1 PUSH2 0x3D97 JUMP JUMPDEST SWAP3 POP POP DUP2 SWAP1 SSTORE POP PUSH32 0x0 PUSH20 0xFFFFFFFFFFFFFFFFFFFFFFFFFFFFFFFFFFFFFFFF AND PUSH4 0xA9059CBB CALLER DUP7 PUSH1 0x40 MLOAD DUP4 PUSH4 0xFFFFFFFF AND PUSH1 0xE0 SHL DUP2 MSTORE PUSH1 0x4 ADD PUSH2 0x1645 SWAP3 SWAP2 SWAP1 PUSH2 0x4047 JUMP JUMPDEST PUSH1 0x20 PUSH1 0x40 MLOAD DUP1 DUP4 SUB DUP2 PUSH1 0x0 DUP8 GAS CALL ISZERO DUP1 ISZERO PUSH2 0x1664 JUMPI RETURNDATASIZE PUSH1 0x0 DUP1 RETURNDATACOPY RETURNDATASIZE PUSH1 0x0 REVERT JUMPDEST POP POP POP POP PUSH1 0x40 MLOAD RETURNDATASIZE PUSH1 0x1F NOT PUSH1 0x1F DUP3 ADD AND DUP3 ADD DUP1 PUSH1 0x40 MSTORE POP DUP2 ADD SWAP1 PUSH2 0x1688 SWAP2 SWAP1 PUSH2 0x409C JUMP JUMPDEST POP POP POP POP POP POP JUMP JUMPDEST PUSH1 0x3 PUSH1 0x0 SWAP1 SLOAD SWAP1 PUSH2 0x100 EXP SWAP1 DIV PUSH20 0xFFFFFFFFFFFFFFFFFFFFFFFFFFFFFFFFFFFFFFFF AND PUSH20 0xFFFFFFFFFFFFFFFFFFFFFFFFFFFFFFFFFFFFFFFF AND CALLER PUSH20 0xFFFFFFFFFFFFFFFFFFFFFFFFFFFFFFFFFFFFFFFF AND EQ PUSH2 0x1720 JUMPI PUSH1 0x40 MLOAD PUSH32 0x8C379A000000000000000000000000000000000000000000000000000000000 DUP2 MSTORE PUSH1 0x4 ADD PUSH2 0x1717 SWAP1 PUSH2 0x4115 JUMP JUMPDEST PUSH1 0x40 MLOAD DUP1 SWAP2 SUB SWAP1 REVERT JUMPDEST PUSH1 0x0 PUSH1 0x2 PUSH1 0x0 SWAP1 SLOAD SWAP1 PUSH2 0x100 EXP SWAP1 DIV PUSH20 0xFFFFFFFFFFFFFFFFFFFFFFFFFFFFFFFFFFFFFFFF AND SWAP1 POP CALLER PUSH1 0x2 PUSH1 0x0 PUSH2 0x100 EXP DUP2 SLOAD DUP2 PUSH20 0xFFFFFFFFFFFFFFFFFFFFFFFFFFFFFFFFFFFFFFFF MUL NOT AND SWAP1 DUP4 PUSH20 0xFFFFFFFFFFFFFFFFFFFFFFFFFFFFFFFFFFFFFFFF AND MUL OR SWAP1 SSTORE POP PUSH1 0x0 PUSH1 0x3 PUSH1 0x0 PUSH2 0x100 EXP DUP2 SLOAD DUP2 PUSH20 0xFFFFFFFFFFFFFFFFFFFFFFFFFFFFFFFFFFFFFFFF MUL NOT AND SWAP1 DUP4 PUSH20 0xFFFFFFFFFFFFFFFFFFFFFFFFFFFFFFFFFFFFFFFF AND MUL OR SWAP1 SSTORE POP CALLER PUSH20 0xFFFFFFFFFFFFFFFFFFFFFFFFFFFFFFFFFFFFFFFF AND DUP2 PUSH20 0xFFFFFFFFFFFFFFFFFFFFFFFFFFFFFFFFFFFFFFFF AND PUSH32 0x8BE0079C531659141344CD1FD0A4F28419497F9722A3DAAFE3B4186F6B6457E0 PUSH1 0x40 MLOAD PUSH1 0x40 MLOAD DUP1 SWAP2 SUB SWAP1 LOG3 POP JUMP JUMPDEST PUSH1 0x0 PUSH1 0x2 PUSH1 0x0 SWAP1 SLOAD SWAP1 PUSH2 0x100 EXP SWAP1 DIV PUSH20 0xFFFFFFFFFFFFFFFFFFFFFFFFFFFFFFFFFFFFFFFF AND SWAP1 POP SWAP1 JUMP JUMPDEST PUSH1 0x0 PUSH2 0x185B PUSH2 0x20C0 JUMP JUMPDEST DUP4 DUP1 PUSH2 0x1865 PUSH2 0x250B JUMP JUMPDEST LT ISZERO PUSH2 0x18A6 JUMPI PUSH1 0x40 MLOAD PUSH32 0x8C379A000000000000000000000000000000000000000000000000000000000 DUP2 MSTORE PUSH1 0x4 ADD PUSH2 0x189D SWAP1 PUSH2 0x41A7 JUMP JUMPDEST PUSH1 0x40 MLOAD DUP1 SWAP2 SUB SWAP1 REVERT JUMPDEST PUSH32 0x0 PUSH20 0xFFFFFFFFFFFFFFFFFFFFFFFFFFFFFFFFFFFFFFFF AND PUSH4 0x4000AEA0 DUP8 DUP8 DUP8 DUP8 PUSH1 0x40 MLOAD DUP6 PUSH4 0xFFFFFFFF AND PUSH1 0xE0 SHL DUP2 MSTORE PUSH1 0x4 ADD PUSH2 0x1905 SWAP5 SWAP4 SWAP3 SWAP2 SWAP1 PUSH2 0x41C7 JUMP JUMPDEST PUSH1 0x20 PUSH1 0x40 MLOAD DUP1 DUP4 SUB DUP2 PUSH1 0x0 DUP8 GAS CALL ISZERO DUP1 ISZERO PUSH2 0x1924 JUMPI RETURNDATASIZE PUSH1 0x0 DUP1 RETURNDATACOPY RETURNDATASIZE PUSH1 0x0 REVERT JUMPDEST POP POP POP POP PUSH1 0x40 MLOAD RETURNDATASIZE PUSH1 0x1F NOT PUSH1 0x1F DUP3 ADD AND DUP3 ADD DUP1 PUSH1 0x40 MSTORE POP DUP2 ADD SWAP1 PUSH2 0x1948 SWAP2 SWAP1 PUSH2 0x409C JUMP JUMPDEST SWAP2 POP POP SWAP5 SWAP4 POP POP POP POP JUMP JUMPDEST PUSH2 0x195B PUSH2 0x92B JUMP JUMPDEST PUSH20 0xFFFFFFFFFFFFFFFFFFFFFFFFFFFFFFFFFFFFFFFF AND CALLER PUSH20 0xFFFFFFFFFFFFFFFFFFFFFFFFFFFFFFFFFFFFFFFF AND EQ PUSH2 0x19C8 JUMPI PUSH1 0x40 MLOAD PUSH32 0x8C379A000000000000000000000000000000000000000000000000000000000 DUP2 MSTORE PUSH1 0x4 ADD PUSH2 0x19BF SWAP1 PUSH2 0x3945 JUMP JUMPDEST PUSH1 0x40 MLOAD DUP1 SWAP2 SUB SWAP1 REVERT JUMPDEST DUP1 PUSH1 0x0 PUSH1 0x20 DUP3 ADD MLOAD SWAP1 POP PUSH2 0x19DC DUP2 DUP4 PUSH2 0x25FE JUMP JUMPDEST DUP5 PUSH1 0x24 DUP5 ADD MSTORE DUP4 PUSH1 0x44 DUP5 ADD MSTORE PUSH1 0x0 ADDRESS PUSH20 0xFFFFFFFFFFFFFFFFFFFFFFFFFFFFFFFFFFFFFFFF AND DUP5 PUSH1 0x40 MLOAD PUSH2 0x1A0F SWAP2 SWAP1 PUSH2 0x3BF1 JUMP JUMPDEST PUSH1 0x0 PUSH1 0x40 MLOAD DUP1 DUP4 SUB DUP2 DUP6 GAS DELEGATECALL SWAP2 POP POP RETURNDATASIZE DUP1 PUSH1 0x0 DUP2 EQ PUSH2 0x1A4A JUMPI PUSH1 0x40 MLOAD SWAP2 POP PUSH1 0x1F NOT PUSH1 0x3F RETURNDATASIZE ADD AND DUP3 ADD PUSH1 0x40 MSTORE RETURNDATASIZE DUP3 MSTORE RETURNDATASIZE PUSH1 0x0 PUSH1 0x20 DUP5 ADD RETURNDATACOPY PUSH2 0x1A4F JUMP JUMPDEST PUSH1 0x60 SWAP2 POP JUMPDEST POP POP SWAP1 POP DUP1 PUSH2 0x1A93 JUMPI PUSH1 0x40 MLOAD PUSH32 0x8C379A000000000000000000000000000000000000000000000000000000000 DUP2 MSTORE PUSH1 0x4 ADD PUSH2 0x1A8A SWAP1 PUSH2 0x4253 JUMP JUMPDEST PUSH1 0x40 MLOAD DUP1 SWAP2 SUB SWAP1 REVERT JUMPDEST POP POP POP POP POP POP JUMP JUMPDEST PUSH2 0x1ACF CALLER DUP6 PUSH1 0x40 MLOAD PUSH1 0x20 ADD PUSH2 0x1AB1 SWAP3 SWAP2 SWAP1 PUSH2 0x42DC JUMP JUMPDEST PUSH1 0x40 MLOAD PUSH1 0x20 DUP2 DUP4 SUB SUB DUP2 MSTORE SWAP1 PUSH1 0x40 MSTORE DUP1 MLOAD SWAP1 PUSH1 0x20 ADD KECCAK256 DUP5 DUP5 DUP5 PUSH2 0x1488 JUMP JUMPDEST POP POP POP POP JUMP JUMPDEST PUSH2 0x1ADD PUSH2 0x2073 JUMP JUMPDEST PUSH2 0x1B1C JUMPI PUSH1 0x40 MLOAD PUSH32 0x8C379A000000000000000000000000000000000000000000000000000000000 DUP2 MSTORE PUSH1 0x4 ADD PUSH2 0x1B13 SWAP1 PUSH2 0x36A6 JUMP JUMPDEST PUSH1 0x40 MLOAD DUP1 SWAP2 SUB SWAP1 REVERT JUMPDEST PUSH1 0x0 DUP3 DUP3 SWAP1 POP GT PUSH2 0x1B62 JUMPI PUSH1 0x40 MLOAD PUSH32 0x8C379A000000000000000000000000000000000000000000000000000000000 DUP2 MSTORE PUSH1 0x4 ADD PUSH2 0x1B59 SWAP1 PUSH2 0x4354 JUMP JUMPDEST PUSH1 0x40 MLOAD DUP1 SWAP2 SUB SWAP1 REVERT JUMPDEST PUSH1 0x0 PUSH1 0x1 DUP1 SLOAD SWAP1 POP SWAP1 POP PUSH1 0x0 JUMPDEST DUP2 DUP2 LT ISZERO PUSH2 0x1C1D JUMPI PUSH1 0x0 DUP1 PUSH1 0x0 PUSH1 0x1 DUP5 DUP2 SLOAD DUP2 LT PUSH2 0x1B90 JUMPI PUSH2 0x1B8F PUSH2 0x36C6 JUMP JUMPDEST JUMPDEST SWAP1 PUSH1 0x0 MSTORE PUSH1 0x20 PUSH1 0x0 KECCAK256 ADD PUSH1 0x0 SWAP1 SLOAD SWAP1 PUSH2 0x100 EXP SWAP1 DIV PUSH20 0xFFFFFFFFFFFFFFFFFFFFFFFFFFFFFFFFFFFFFFFF AND PUSH20 0xFFFFFFFFFFFFFFFFFFFFFFFFFFFFFFFFFFFFFFFF AND PUSH20 0xFFFFFFFFFFFFFFFFFFFFFFFFFFFFFFFFFFFFFFFF AND DUP2 MSTORE PUSH1 0x20 ADD SWAP1 DUP2 MSTORE PUSH1 0x20 ADD PUSH1 0x0 KECCAK256 PUSH1 0x0 PUSH2 0x100 EXP DUP2 SLOAD DUP2 PUSH1 0xFF MUL NOT AND SWAP1 DUP4 ISZERO ISZERO MUL OR SWAP1 SSTORE POP DUP1 PUSH2 0x1C16 SWAP1 PUSH2 0x3724 JUMP JUMPDEST SWAP1 POP PUSH2 0x1B6F JUMP JUMPDEST POP PUSH1 0x0 JUMPDEST DUP4 DUP4 SWAP1 POP DUP2 LT ISZERO PUSH2 0x1D74 JUMPI PUSH1 0x0 ISZERO ISZERO PUSH1 0x0 DUP1 DUP7 DUP7 DUP6 DUP2 DUP2 LT PUSH2 0x1C46 JUMPI PUSH2 0x1C45 PUSH2 0x36C6 JUMP JUMPDEST JUMPDEST SWAP1 POP PUSH1 0x20 MUL ADD PUSH1 0x20 DUP2 ADD SWAP1 PUSH2 0x1C5B SWAP2 SWAP1 PUSH2 0x35ED JUMP JUMPDEST PUSH20 0xFFFFFFFFFFFFFFFFFFFFFFFFFFFFFFFFFFFFFFFF AND PUSH20 0xFFFFFFFFFFFFFFFFFFFFFFFFFFFFFFFFFFFFFFFF AND DUP2 MSTORE PUSH1 0x20 ADD SWAP1 DUP2 MSTORE PUSH1 0x20 ADD PUSH1 0x0 KECCAK256 PUSH1 0x0 SWAP1 SLOAD SWAP1 PUSH2 0x100 EXP SWAP1 DIV PUSH1 0xFF AND ISZERO ISZERO EQ PUSH2 0x1CE5 JUMPI PUSH1 0x40 MLOAD PUSH32 0x8C379A000000000000000000000000000000000000000000000000000000000 DUP2 MSTORE PUSH1 0x4 ADD PUSH2 0x1CDC SWAP1 PUSH2 0x43C0 JUMP JUMPDEST PUSH1 0x40 MLOAD DUP1 SWAP2 SUB SWAP1 REVERT JUMPDEST PUSH1 0x1 PUSH1 0x0 DUP1 DUP7 DUP7 DUP6 DUP2 DUP2 LT PUSH2 0x1CFD JUMPI PUSH2 0x1CFC PUSH2 0x36C6 JUMP JUMPDEST JUMPDEST SWAP1 POP PUSH1 0x20 MUL ADD PUSH1 0x20 DUP2 ADD SWAP1 PUSH2 0x1D12 SWAP2 SWAP1 PUSH2 0x35ED JUMP JUMPDEST PUSH20 0xFFFFFFFFFFFFFFFFFFFFFFFFFFFFFFFFFFFFFFFF AND PUSH20 0xFFFFFFFFFFFFFFFFFFFFFFFFFFFFFFFFFFFFFFFF AND DUP2 MSTORE PUSH1 0x20 ADD SWAP1 DUP2 MSTORE PUSH1 0x20 ADD PUSH1 0x0 KECCAK256 PUSH1 0x0 PUSH2 0x100 EXP DUP2 SLOAD DUP2 PUSH1 0xFF MUL NOT AND SWAP1 DUP4 ISZERO ISZERO MUL OR SWAP1 SSTORE POP DUP1 PUSH2 0x1D6D SWAP1 PUSH2 0x3724 JUMP JUMPDEST SWAP1 POP PUSH2 0x1C21 JUMP JUMPDEST POP DUP3 DUP3 PUSH1 0x1 SWAP2 SWAP1 PUSH2 0x1D86 SWAP3 SWAP2 SWAP1 PUSH2 0x28B3 JUMP JUMPDEST POP PUSH32 0xF263CFB3E4298332E776194610CF9FDC09CCB3ADA8B9AA39764D882E11FBF0A0 DUP4 DUP4 CALLER PUSH1 0x40 MLOAD PUSH2 0x1DBA SWAP4 SWAP3 SWAP2 SWAP1 PUSH2 0x446B JUMP JUMPDEST PUSH1 0x40 MLOAD DUP1 SWAP2 SUB SWAP1 LOG1 POP POP POP JUMP JUMPDEST PUSH2 0x1DCF PUSH2 0x20C0 JUMP JUMPDEST PUSH2 0x1DD8 DUP2 PUSH2 0x2735 JUMP JUMPDEST POP JUMP JUMPDEST PUSH2 0x1DE3 PUSH2 0x20C0 JUMP JUMPDEST DUP1 DUP1 PUSH2 0x1DED PUSH2 0x250B JUMP JUMPDEST LT ISZERO PUSH2 0x1E2E JUMPI PUSH1 0x40 MLOAD PUSH32 0x8C379A000000000000000000000000000000000000000000000000000000000 DUP2 MSTORE PUSH1 0x4 ADD PUSH2 0x1E25 SWAP1 PUSH2 0x41A7 JUMP JUMPDEST PUSH1 0x40 MLOAD DUP1 SWAP2 SUB SWAP1 REVERT JUMPDEST PUSH32 0x0 PUSH20 0xFFFFFFFFFFFFFFFFFFFFFFFFFFFFFFFFFFFFFFFF AND PUSH4 0xA9059CBB DUP5 DUP5 PUSH1 0x40 MLOAD DUP4 PUSH4 0xFFFFFFFF AND PUSH1 0xE0 SHL DUP2 MSTORE PUSH1 0x4 ADD PUSH2 0x1E89 SWAP3 SWAP2 SWAP1 PUSH2 0x4047 JUMP JUMPDEST PUSH1 0x20 PUSH1 0x40 MLOAD DUP1 DUP4 SUB DUP2 PUSH1 0x0 DUP8 GAS CALL ISZERO DUP1 ISZERO PUSH2 0x1EA8 JUMPI RETURNDATASIZE PUSH1 0x0 DUP1 RETURNDATACOPY RETURNDATASIZE PUSH1 0x0 REVERT JUMPDEST POP POP POP POP PUSH1 0x40 MLOAD RETURNDATASIZE PUSH1 0x1F NOT PUSH1 0x1F DUP3 ADD AND DUP3 ADD DUP1 PUSH1 0x40 MSTORE POP DUP2 ADD SWAP1 PUSH2 0x1ECC SWAP2 SWAP1 PUSH2 0x409C JUMP JUMPDEST PUSH2 0x1ED9 JUMPI PUSH2 0x1ED8 PUSH2 0x449D JUMP JUMPDEST JUMPDEST POP POP POP JUMP JUMPDEST PUSH1 0x0 DUP1 PUSH1 0x0 DUP4 PUSH20 0xFFFFFFFFFFFFFFFFFFFFFFFFFFFFFFFFFFFFFFFF AND PUSH20 0xFFFFFFFFFFFFFFFFFFFFFFFFFFFFFFFFFFFFFFFF AND DUP2 MSTORE PUSH1 0x20 ADD SWAP1 DUP2 MSTORE PUSH1 0x20 ADD PUSH1 0x0 KECCAK256 PUSH1 0x0 SWAP1 SLOAD SWAP1 PUSH2 0x100 EXP SWAP1 DIV PUSH1 0xFF AND SWAP1 POP SWAP2 SWAP1 POP JUMP JUMPDEST PUSH2 0x1F3B PUSH2 0x2073 JUMP JUMPDEST PUSH2 0x1F7A JUMPI PUSH1 0x40 MLOAD PUSH32 0x8C379A000000000000000000000000000000000000000000000000000000000 DUP2 MSTORE PUSH1 0x4 ADD PUSH2 0x1F71 SWAP1 PUSH2 0x36A6 JUMP JUMPDEST PUSH1 0x40 MLOAD DUP1 SWAP2 SUB SWAP1 REVERT JUMPDEST PUSH32 0x1BB185903E2CB2F1B303523128B60E314DEA81DF4F8D9B7351CADD344F6E7727 DUP5 DUP5 DUP5 DUP5 CALLER PUSH1 0x40 MLOAD PUSH2 0x1FB1 SWAP6 SWAP5 SWAP4 SWAP3 SWAP2 SWAP1 PUSH2 0x44CC JUMP JUMPDEST PUSH1 0x40 MLOAD DUP1 SWAP2 SUB SWAP1 LOG1 PUSH1 0x0 JUMPDEST DUP5 DUP5 SWAP1 POP DUP2 LT ISZERO PUSH2 0x206C JUMPI DUP5 DUP5 DUP3 DUP2 DUP2 LT PUSH2 0x1FDA JUMPI PUSH2 0x1FD9 PUSH2 0x36C6 JUMP JUMPDEST JUMPDEST SWAP1 POP PUSH1 0x20 MUL ADD PUSH1 0x20 DUP2 ADD SWAP1 PUSH2 0x1FEF SWAP2 SWAP1 PUSH2 0x35ED JUMP JUMPDEST PUSH20 0xFFFFFFFFFFFFFFFFFFFFFFFFFFFFFFFFFFFFFFFF AND PUSH4 0xEE56997B DUP5 DUP5 PUSH1 0x40 MLOAD DUP4 PUSH4 0xFFFFFFFF AND PUSH1 0xE0 SHL DUP2 MSTORE PUSH1 0x4 ADD PUSH2 0x2029 SWAP3 SWAP2 SWAP1 PUSH2 0x4515 JUMP JUMPDEST PUSH1 0x0 PUSH1 0x40 MLOAD DUP1 DUP4 SUB DUP2 PUSH1 0x0 DUP8 DUP1 EXTCODESIZE ISZERO DUP1 ISZERO PUSH2 0x2043 JUMPI PUSH1 0x0 DUP1 REVERT JUMPDEST POP GAS CALL ISZERO DUP1 ISZERO PUSH2 0x2057 JUMPI RETURNDATASIZE PUSH1 0x0 DUP1 RETURNDATACOPY RETURNDATASIZE PUSH1 0x0 REVERT JUMPDEST POP POP POP POP DUP1 PUSH2 0x2065 SWAP1 PUSH2 0x3724 JUMP JUMPDEST SWAP1 POP PUSH2 0x1FBC JUMP JUMPDEST POP POP POP POP POP JUMP JUMPDEST PUSH1 0x0 PUSH2 0x207E CALLER PUSH2 0x1EDE JUMP JUMPDEST DUP1 PUSH2 0x20BB JUMPI POP CALLER PUSH20 0xFFFFFFFFFFFFFFFFFFFFFFFFFFFFFFFFFFFFFFFF AND PUSH2 0x20A3 PUSH2 0x1827 JUMP JUMPDEST PUSH20 0xFFFFFFFFFFFFFFFFFFFFFFFFFFFFFFFFFFFFFFFF AND EQ JUMPDEST SWAP1 POP SWAP1 JUMP JUMPDEST PUSH1 0x2 PUSH1 0x0 SWAP1 SLOAD SWAP1 PUSH2 0x100 EXP SWAP1 DIV PUSH20 0xFFFFFFFFFFFFFFFFFFFFFFFFFFFFFFFFFFFFFFFF AND PUSH20 0xFFFFFFFFFFFFFFFFFFFFFFFFFFFFFFFFFFFFFFFF AND CALLER PUSH20 0xFFFFFFFFFFFFFFFFFFFFFFFFFFFFFFFFFFFFFFFF AND EQ PUSH2 0x2150 JUMPI PUSH1 0x40 MLOAD PUSH32 0x8C379A000000000000000000000000000000000000000000000000000000000 DUP2 MSTORE PUSH1 0x4 ADD PUSH2 0x2147 SWAP1 PUSH2 0x4585 JUMP JUMPDEST PUSH1 0x40 MLOAD DUP1 SWAP2 SUB SWAP1 REVERT JUMPDEST JUMP JUMPDEST PUSH1 0x0 DUP1 DUP6 PUSH32 0x0 PUSH20 0xFFFFFFFFFFFFFFFFFFFFFFFFFFFFFFFFFFFFFFFF AND DUP2 PUSH20 0xFFFFFFFFFFFFFFFFFFFFFFFFFFFFFFFFFFFFFFFF AND SUB PUSH2 0x21E4 JUMPI PUSH1 0x40 MLOAD PUSH32 0x8C379A000000000000000000000000000000000000000000000000000000000 DUP2 MSTORE PUSH1 0x4 ADD PUSH2 0x21DB SWAP1 PUSH2 0x37B8 JUMP JUMPDEST PUSH1 0x40 MLOAD DUP1 SWAP2 SUB SWAP1 REVERT JUMPDEST DUP9 DUP6 PUSH1 0x40 MLOAD PUSH1 0x20 ADD PUSH2 0x21F7 SWAP3 SWAP2 SWAP1 PUSH2 0x42DC JUMP JUMPDEST PUSH1 0x40 MLOAD PUSH1 0x20 DUP2 DUP4 SUB SUB DUP2 MSTORE SWAP1 PUSH1 0x40 MSTORE DUP1 MLOAD SWAP1 PUSH1 0x20 ADD KECCAK256 SWAP3 POP PUSH1 0x0 PUSH1 0x8 SHL PUSH1 0x4 PUSH1 0x0 DUP6 DUP2 MSTORE PUSH1 0x20 ADD SWAP1 DUP2 MSTORE PUSH1 0x20 ADD PUSH1 0x0 KECCAK256 PUSH1 0x0 ADD PUSH1 0x0 SWAP1 SLOAD SWAP1 PUSH2 0x100 EXP SWAP1 DIV PUSH1 0x8 SHL PUSH1 0xFF NOT AND EQ PUSH2 0x227C JUMPI PUSH1 0x40 MLOAD PUSH32 0x8C379A000000000000000000000000000000000000000000000000000000000 DUP2 MSTORE PUSH1 0x4 ADD PUSH2 0x2273 SWAP1 PUSH2 0x45F1 JUMP JUMPDEST PUSH1 0x40 MLOAD DUP1 SWAP2 SUB SWAP1 REVERT JUMPDEST PUSH2 0x12C TIMESTAMP PUSH2 0x228A SWAP2 SWAP1 PUSH2 0x4611 JUMP JUMPDEST SWAP2 POP PUSH1 0x0 PUSH2 0x229A DUP10 DUP10 DUP10 DUP7 PUSH2 0x25C5 JUMP JUMPDEST SWAP1 POP PUSH1 0x40 MLOAD DUP1 PUSH1 0x40 ADD PUSH1 0x40 MSTORE DUP1 DUP3 PUSH1 0xFF NOT AND DUP2 MSTORE PUSH1 0x20 ADD PUSH2 0x22BA DUP8 PUSH2 0x2863 JUMP JUMPDEST PUSH1 0xFF AND DUP2 MSTORE POP PUSH1 0x4 PUSH1 0x0 DUP7 DUP2 MSTORE PUSH1 0x20 ADD SWAP1 DUP2 MSTORE PUSH1 0x20 ADD PUSH1 0x0 KECCAK256 PUSH1 0x0 DUP3 ADD MLOAD DUP2 PUSH1 0x0 ADD PUSH1 0x0 PUSH2 0x100 EXP DUP2 SLOAD DUP2 PUSH31 0xFFFFFFFFFFFFFFFFFFFFFFFFFFFFFFFFFFFFFFFFFFFFFFFFFFFFFFFFFFFFFF MUL NOT AND SWAP1 DUP4 PUSH1 0x8 SHR MUL OR SWAP1 SSTORE POP PUSH1 0x20 DUP3 ADD MLOAD DUP2 PUSH1 0x0 ADD PUSH1 0x1F PUSH2 0x100 EXP DUP2 SLOAD DUP2 PUSH1 0xFF MUL NOT AND SWAP1 DUP4 PUSH1 0xFF AND MUL OR SWAP1 SSTORE POP SWAP1 POP POP DUP9 PUSH1 0x6 SLOAD PUSH2 0x2344 SWAP2 SWAP1 PUSH2 0x4611 JUMP JUMPDEST PUSH1 0x6 DUP2 SWAP1 SSTORE POP POP POP SWAP7 POP SWAP7 SWAP5 POP POP POP POP POP JUMP JUMPDEST PUSH2 0x2360 CALLER PUSH2 0x1EDE JUMP JUMPDEST PUSH2 0x239F JUMPI PUSH1 0x40 MLOAD PUSH32 0x8C379A000000000000000000000000000000000000000000000000000000000 DUP2 MSTORE PUSH1 0x4 ADD PUSH2 0x2396 SWAP1 PUSH2 0x4691 JUMP JUMPDEST PUSH1 0x40 MLOAD DUP1 SWAP2 SUB SWAP1 REVERT JUMPDEST JUMP JUMPDEST PUSH1 0x0 PUSH2 0x23AF DUP7 DUP7 DUP7 DUP7 PUSH2 0x25C5 JUMP JUMPDEST SWAP1 POP DUP1 PUSH1 0xFF NOT AND PUSH1 0x4 PUSH1 0x0 DUP10 DUP2 MSTORE PUSH1 0x20 ADD SWAP1 DUP2 MSTORE PUSH1 0x20 ADD PUSH1 0x0 KECCAK256 PUSH1 0x0 ADD PUSH1 0x0 SWAP1 SLOAD SWAP1 PUSH2 0x100 EXP SWAP1 DIV PUSH1 0x8 SHL PUSH1 0xFF NOT AND EQ PUSH2 0x241E JUMPI PUSH1 0x40 MLOAD PUSH32 0x8C379A000000000000000000000000000000000000000000000000000000000 DUP2 MSTORE PUSH1 0x4 ADD PUSH2 0x2415 SWAP1 PUSH2 0x3FBB JUMP JUMPDEST PUSH1 0x40 MLOAD DUP1 SWAP2 SUB SWAP1 REVERT JUMPDEST PUSH2 0x2427 DUP3 PUSH2 0x2863 JUMP JUMPDEST PUSH1 0xFF AND PUSH1 0x4 PUSH1 0x0 DUP10 DUP2 MSTORE PUSH1 0x20 ADD SWAP1 DUP2 MSTORE PUSH1 0x20 ADD PUSH1 0x0 KECCAK256 PUSH1 0x0 ADD PUSH1 0x1F SWAP1 SLOAD SWAP1 PUSH2 0x100 EXP SWAP1 DIV PUSH1 0xFF AND PUSH1 0xFF AND GT ISZERO PUSH2 0x2492 JUMPI PUSH1 0x40 MLOAD PUSH32 0x8C379A000000000000000000000000000000000000000000000000000000000 DUP2 MSTORE PUSH1 0x4 ADD PUSH2 0x2489 SWAP1 PUSH2 0x46FD JUMP JUMPDEST PUSH1 0x40 MLOAD DUP1 SWAP2 SUB SWAP1 REVERT JUMPDEST DUP6 PUSH1 0x6 SLOAD PUSH2 0x24A0 SWAP2 SWAP1 PUSH2 0x3D97 JUMP JUMPDEST PUSH1 0x6 DUP2 SWAP1 SSTORE POP PUSH1 0x4 PUSH1 0x0 DUP9 DUP2 MSTORE PUSH1 0x20 ADD SWAP1 DUP2 MSTORE PUSH1 0x20 ADD PUSH1 0x0 KECCAK256 PUSH1 0x0 DUP1 DUP3 ADD PUSH1 0x0 PUSH2 0x100 EXP DUP2 SLOAD SWAP1 PUSH31 0xFFFFFFFFFFFFFFFFFFFFFFFFFFFFFFFFFFFFFFFFFFFFFFFFFFFFFFFFFFFFFF MUL NOT AND SWAP1 SSTORE PUSH1 0x0 DUP3 ADD PUSH1 0x1F PUSH2 0x100 EXP DUP2 SLOAD SWAP1 PUSH1 0xFF MUL NOT AND SWAP1 SSTORE POP POP POP POP POP POP POP POP POP JUMP JUMPDEST PUSH1 0x0 PUSH1 0x1 PUSH1 0x6 SLOAD PUSH2 0x251C SWAP2 SWAP1 PUSH2 0x3D97 JUMP JUMPDEST PUSH32 0x0 PUSH20 0xFFFFFFFFFFFFFFFFFFFFFFFFFFFFFFFFFFFFFFFF AND PUSH4 0x70A08231 ADDRESS PUSH1 0x40 MLOAD DUP3 PUSH4 0xFFFFFFFF AND PUSH1 0xE0 SHL DUP2 MSTORE PUSH1 0x4 ADD PUSH2 0x2575 SWAP2 SWAP1 PUSH2 0x2B59 JUMP JUMPDEST PUSH1 0x20 PUSH1 0x40 MLOAD DUP1 DUP4 SUB DUP2 DUP7 GAS STATICCALL ISZERO DUP1 ISZERO PUSH2 0x2592 JUMPI RETURNDATASIZE PUSH1 0x0 DUP1 RETURNDATACOPY RETURNDATASIZE PUSH1 0x0 REVERT JUMPDEST POP POP POP POP PUSH1 0x40 MLOAD RETURNDATASIZE PUSH1 0x1F NOT PUSH1 0x1F DUP3 ADD AND DUP3 ADD DUP1 PUSH1 0x40 MSTORE POP DUP2 ADD SWAP1 PUSH2 0x25B6 SWAP2 SWAP1 PUSH2 0x4732 JUMP JUMPDEST PUSH2 0x25C0 SWAP2 SWAP1 PUSH2 0x3D97 JUMP JUMPDEST SWAP1 POP SWAP1 JUMP JUMPDEST PUSH1 0x0 DUP5 DUP5 DUP5 DUP5 PUSH1 0x40 MLOAD PUSH1 0x20 ADD PUSH2 0x25DE SWAP5 SWAP4 SWAP3 SWAP2 SWAP1 PUSH2 0x475F JUMP JUMPDEST PUSH1 0x40 MLOAD PUSH1 0x20 DUP2 DUP4 SUB SUB DUP2 MSTORE SWAP1 PUSH1 0x40 MSTORE DUP1 MLOAD SWAP1 PUSH1 0x20 ADD KECCAK256 SWAP1 POP SWAP5 SWAP4 POP POP POP POP JUMP JUMPDEST PUSH1 0x2 PUSH1 0x20 PUSH2 0x260C SWAP2 SWAP1 PUSH2 0x47AD JUMP JUMPDEST PUSH1 0x4 PUSH2 0x2618 SWAP2 SWAP1 PUSH2 0x4611 JUMP JUMPDEST DUP2 MLOAD LT ISZERO PUSH2 0x265B JUMPI PUSH1 0x40 MLOAD PUSH32 0x8C379A000000000000000000000000000000000000000000000000000000000 DUP2 MSTORE PUSH1 0x4 ADD PUSH2 0x2652 SWAP1 PUSH2 0x483B JUMP JUMPDEST PUSH1 0x40 MLOAD DUP1 SWAP2 SUB SWAP1 REVERT JUMPDEST PUSH4 0x3C6D41B9 PUSH1 0xE0 SHL PUSH28 0xFFFFFFFFFFFFFFFFFFFFFFFFFFFFFFFFFFFFFFFFFFFFFFFFFFFFFFFF NOT AND DUP3 PUSH28 0xFFFFFFFFFFFFFFFFFFFFFFFFFFFFFFFFFFFFFFFFFFFFFFFFFFFFFFFF NOT AND EQ DUP1 PUSH2 0x26F2 JUMPI POP PUSH4 0x40429946 PUSH1 0xE0 SHL PUSH28 0xFFFFFFFFFFFFFFFFFFFFFFFFFFFFFFFFFFFFFFFFFFFFFFFFFFFFFFFF NOT AND DUP3 PUSH28 0xFFFFFFFFFFFFFFFFFFFFFFFFFFFFFFFFFFFFFFFFFFFFFFFFFFFFFFFF NOT AND EQ JUMPDEST PUSH2 0x2731 JUMPI PUSH1 0x40 MLOAD PUSH32 0x8C379A000000000000000000000000000000000000000000000000000000000 DUP2 MSTORE PUSH1 0x4 ADD PUSH2 0x2728 SWAP1 PUSH2 0x48A7 JUMP JUMPDEST PUSH1 0x40 MLOAD DUP1 SWAP2 SUB SWAP1 REVERT JUMPDEST POP POP JUMP JUMPDEST CALLER PUSH20 0xFFFFFFFFFFFFFFFFFFFFFFFFFFFFFFFFFFFFFFFF AND DUP2 PUSH20 0xFFFFFFFFFFFFFFFFFFFFFFFFFFFFFFFFFFFFFFFF AND SUB PUSH2 0x27A3 JUMPI PUSH1 0x40 MLOAD PUSH32 0x8C379A000000000000000000000000000000000000000000000000000000000 DUP2 MSTORE PUSH1 0x4 ADD PUSH2 0x279A SWAP1 PUSH2 0x4913 JUMP JUMPDEST PUSH1 0x40 MLOAD DUP1 SWAP2 SUB SWAP1 REVERT JUMPDEST DUP1 PUSH1 0x3 PUSH1 0x0 PUSH2 0x100 EXP DUP2 SLOAD DUP2 PUSH20 0xFFFFFFFFFFFFFFFFFFFFFFFFFFFFFFFFFFFFFFFF MUL NOT AND SWAP1 DUP4 PUSH20 0xFFFFFFFFFFFFFFFFFFFFFFFFFFFFFFFFFFFFFFFF AND MUL OR SWAP1 SSTORE POP DUP1 PUSH20 0xFFFFFFFFFFFFFFFFFFFFFFFFFFFFFFFFFFFFFFFF AND PUSH1 0x2 PUSH1 0x0 SWAP1 SLOAD SWAP1 PUSH2 0x100 EXP SWAP1 DIV PUSH20 0xFFFFFFFFFFFFFFFFFFFFFFFFFFFFFFFFFFFFFFFF AND PUSH20 0xFFFFFFFFFFFFFFFFFFFFFFFFFFFFFFFFFFFFFFFF AND PUSH32 0xED8889F560326EB138920D842192F0EB3DD22B4F139C87A2C57538E05BAE1278 PUSH1 0x40 MLOAD PUSH1 0x40 MLOAD DUP1 SWAP2 SUB SWAP1 LOG3 POP JUMP JUMPDEST PUSH1 0x0 PUSH1 0xFF DUP1 AND DUP3 GT ISZERO PUSH2 0x28AB JUMPI PUSH1 0x40 MLOAD PUSH32 0x8C379A000000000000000000000000000000000000000000000000000000000 DUP2 MSTORE PUSH1 0x4 ADD PUSH2 0x28A2 SWAP1 PUSH2 0x49A5 JUMP JUMPDEST PUSH1 0x40 MLOAD DUP1 SWAP2 SUB SWAP1 REVERT JUMPDEST DUP2 SWAP1 POP SWAP2 SWAP1 POP JUMP JUMPDEST DUP3 DUP1 SLOAD DUP3 DUP3 SSTORE SWAP1 PUSH1 0x0 MSTORE PUSH1 0x20 PUSH1 0x0 KECCAK256 SWAP1 DUP2 ADD SWAP3 DUP3 ISZERO PUSH2 0x2942 JUMPI SWAP2 PUSH1 0x20 MUL DUP3 ADD JUMPDEST DUP3 DUP2 GT ISZERO PUSH2 0x2941 JUMPI DUP3 CALLDATALOAD PUSH20 0xFFFFFFFFFFFFFFFFFFFFFFFFFFFFFFFFFFFFFFFF AND DUP3 PUSH1 0x0 PUSH2 0x100 EXP DUP2 SLOAD DUP2 PUSH20 0xFFFFFFFFFFFFFFFFFFFFFFFFFFFFFFFFFFFFFFFF MUL NOT AND SWAP1 DUP4 PUSH20 0xFFFFFFFFFFFFFFFFFFFFFFFFFFFFFFFFFFFFFFFF AND MUL OR SWAP1 SSTORE POP SWAP2 PUSH1 0x20 ADD SWAP2 SWAP1 PUSH1 0x1 ADD SWAP1 PUSH2 0x28D3 JUMP JUMPDEST JUMPDEST POP SWAP1 POP PUSH2 0x294F SWAP2 SWAP1 PUSH2 0x2953 JUMP JUMPDEST POP SWAP1 JUMP JUMPDEST JUMPDEST DUP1 DUP3 GT ISZERO PUSH2 0x296C JUMPI PUSH1 0x0 DUP2 PUSH1 0x0 SWAP1 SSTORE POP PUSH1 0x1 ADD PUSH2 0x2954 JUMP JUMPDEST POP SWAP1 JUMP JUMPDEST PUSH1 0x0 PUSH1 0x40 MLOAD SWAP1 POP SWAP1 JUMP JUMPDEST PUSH1 0x0 DUP1 REVERT JUMPDEST PUSH1 0x0 DUP1 REVERT JUMPDEST PUSH1 0x0 DUP1 REVERT JUMPDEST PUSH1 0x0 DUP1 REVERT JUMPDEST PUSH1 0x0 DUP1 REVERT JUMPDEST PUSH1 0x0 DUP1 DUP4 PUSH1 0x1F DUP5 ADD SLT PUSH2 0x29A9 JUMPI PUSH2 0x29A8 PUSH2 0x2984 JUMP JUMPDEST JUMPDEST DUP3 CALLDATALOAD SWAP1 POP PUSH8 0xFFFFFFFFFFFFFFFF DUP2 GT ISZERO PUSH2 0x29C6 JUMPI PUSH2 0x29C5 PUSH2 0x2989 JUMP JUMPDEST JUMPDEST PUSH1 0x20 DUP4 ADD SWAP2 POP DUP4 PUSH1 0x20 DUP3 MUL DUP4 ADD GT ISZERO PUSH2 0x29E2 JUMPI PUSH2 0x29E1 PUSH2 0x298E JUMP JUMPDEST JUMPDEST SWAP3 POP SWAP3 SWAP1 POP JUMP JUMPDEST PUSH1 0x0 DUP1 PUSH1 0x20 DUP4 DUP6 SUB SLT ISZERO PUSH2 0x2A00 JUMPI PUSH2 0x29FF PUSH2 0x297A JUMP JUMPDEST JUMPDEST PUSH1 0x0 DUP4 ADD CALLDATALOAD PUSH8 0xFFFFFFFFFFFFFFFF DUP2 GT ISZERO PUSH2 0x2A1E JUMPI PUSH2 0x2A1D PUSH2 0x297F JUMP JUMPDEST JUMPDEST PUSH2 0x2A2A DUP6 DUP3 DUP7 ADD PUSH2 0x2993 JUMP JUMPDEST SWAP3 POP SWAP3 POP POP SWAP3 POP SWAP3 SWAP1 POP JUMP JUMPDEST PUSH1 0x0 PUSH20 0xFFFFFFFFFFFFFFFFFFFFFFFFFFFFFFFFFFFFFFFF DUP3 AND SWAP1 POP SWAP2 SWAP1 POP JUMP JUMPDEST PUSH1 0x0 PUSH2 0x2A61 DUP3 PUSH2 0x2A36 JUMP JUMPDEST SWAP1 POP SWAP2 SWAP1 POP JUMP JUMPDEST PUSH2 0x2A71 DUP2 PUSH2 0x2A56 JUMP JUMPDEST DUP2 EQ PUSH2 0x2A7C JUMPI PUSH1 0x0 DUP1 REVERT JUMPDEST POP JUMP JUMPDEST PUSH1 0x0 DUP2 CALLDATALOAD SWAP1 POP PUSH2 0x2A8E DUP2 PUSH2 0x2A68 JUMP JUMPDEST SWAP3 SWAP2 POP POP JUMP JUMPDEST PUSH1 0x0 DUP1 DUP4 PUSH1 0x1F DUP5 ADD SLT PUSH2 0x2AAA JUMPI PUSH2 0x2AA9 PUSH2 0x2984 JUMP JUMPDEST JUMPDEST DUP3 CALLDATALOAD SWAP1 POP PUSH8 0xFFFFFFFFFFFFFFFF DUP2 GT ISZERO PUSH2 0x2AC7 JUMPI PUSH2 0x2AC6 PUSH2 0x2989 JUMP JUMPDEST JUMPDEST PUSH1 0x20 DUP4 ADD SWAP2 POP DUP4 PUSH1 0x1 DUP3 MUL DUP4 ADD GT ISZERO PUSH2 0x2AE3 JUMPI PUSH2 0x2AE2 PUSH2 0x298E JUMP JUMPDEST JUMPDEST SWAP3 POP SWAP3 SWAP1 POP JUMP JUMPDEST PUSH1 0x0 DUP1 PUSH1 0x0 PUSH1 0x40 DUP5 DUP7 SUB SLT ISZERO PUSH2 0x2B03 JUMPI PUSH2 0x2B02 PUSH2 0x297A JUMP JUMPDEST JUMPDEST PUSH1 0x0 PUSH2 0x2B11 DUP7 DUP3 DUP8 ADD PUSH2 0x2A7F JUMP JUMPDEST SWAP4 POP POP PUSH1 0x20 DUP5 ADD CALLDATALOAD PUSH8 0xFFFFFFFFFFFFFFFF DUP2 GT ISZERO PUSH2 0x2B32 JUMPI PUSH2 0x2B31 PUSH2 0x297F JUMP JUMPDEST JUMPDEST PUSH2 0x2B3E DUP7 DUP3 DUP8 ADD PUSH2 0x2A94 JUMP JUMPDEST SWAP3 POP SWAP3 POP POP SWAP3 POP SWAP3 POP SWAP3 JUMP JUMPDEST PUSH2 0x2B53 DUP2 PUSH2 0x2A56 JUMP JUMPDEST DUP3 MSTORE POP POP JUMP JUMPDEST PUSH1 0x0 PUSH1 0x20 DUP3 ADD SWAP1 POP PUSH2 0x2B6E PUSH1 0x0 DUP4 ADD DUP5 PUSH2 0x2B4A JUMP JUMPDEST SWAP3 SWAP2 POP POP JUMP JUMPDEST PUSH1 0x0 DUP2 MLOAD SWAP1 POP SWAP2 SWAP1 POP JUMP JUMPDEST PUSH1 0x0 DUP3 DUP3 MSTORE PUSH1 0x20 DUP3 ADD SWAP1 POP SWAP3 SWAP2 POP POP JUMP JUMPDEST PUSH1 0x0 JUMPDEST DUP4 DUP2 LT ISZERO PUSH2 0x2BAE JUMPI DUP1 DUP3 ADD MLOAD DUP2 DUP5 ADD MSTORE PUSH1 0x20 DUP2 ADD SWAP1 POP PUSH2 0x2B93 JUMP JUMPDEST PUSH1 0x0 DUP5 DUP5 ADD MSTORE POP POP POP POP JUMP JUMPDEST PUSH1 0x0 PUSH1 0x1F NOT PUSH1 0x1F DUP4 ADD AND SWAP1 POP SWAP2 SWAP1 POP JUMP JUMPDEST PUSH1 0x0 PUSH2 0x2BD6 DUP3 PUSH2 0x2B74 JUMP JUMPDEST PUSH2 0x2BE0 DUP2 DUP6 PUSH2 0x2B7F JUMP JUMPDEST SWAP4 POP PUSH2 0x2BF0 DUP2 DUP6 PUSH1 0x20 DUP7 ADD PUSH2 0x2B90 JUMP JUMPDEST PUSH2 0x2BF9 DUP2 PUSH2 0x2BBA JUMP JUMPDEST DUP5 ADD SWAP2 POP POP SWAP3 SWAP2 POP POP JUMP JUMPDEST PUSH1 0x0 PUSH1 0x20 DUP3 ADD SWAP1 POP DUP2 DUP2 SUB PUSH1 0x0 DUP4 ADD MSTORE PUSH2 0x2C1E DUP2 DUP5 PUSH2 0x2BCB JUMP JUMPDEST SWAP1 POP SWAP3 SWAP2 POP POP JUMP JUMPDEST PUSH1 0x0 DUP2 MLOAD SWAP1 POP SWAP2 SWAP1 POP JUMP JUMPDEST PUSH1 0x0 DUP3 DUP3 MSTORE PUSH1 0x20 DUP3 ADD SWAP1 POP SWAP3 SWAP2 POP POP JUMP JUMPDEST PUSH1 0x0 DUP2 SWAP1 POP PUSH1 0x20 DUP3 ADD SWAP1 POP SWAP2 SWAP1 POP JUMP JUMPDEST PUSH2 0x2C5B DUP2 PUSH2 0x2A56 JUMP JUMPDEST DUP3 MSTORE POP POP JUMP JUMPDEST PUSH1 0x0 PUSH2 0x2C6D DUP4 DUP4 PUSH2 0x2C52 JUMP JUMPDEST PUSH1 0x20 DUP4 ADD SWAP1 POP SWAP3 SWAP2 POP POP JUMP JUMPDEST PUSH1 0x0 PUSH1 0x20 DUP3 ADD SWAP1 POP SWAP2 SWAP1 POP JUMP JUMPDEST PUSH1 0x0 PUSH2 0x2C91 DUP3 PUSH2 0x2C26 JUMP JUMPDEST PUSH2 0x2C9B DUP2 DUP6 PUSH2 0x2C31 JUMP JUMPDEST SWAP4 POP PUSH2 0x2CA6 DUP4 PUSH2 0x2C42 JUMP JUMPDEST DUP1 PUSH1 0x0 JUMPDEST DUP4 DUP2 LT ISZERO PUSH2 0x2CD7 JUMPI DUP2 MLOAD PUSH2 0x2CBE DUP9 DUP3 PUSH2 0x2C61 JUMP JUMPDEST SWAP8 POP PUSH2 0x2CC9 DUP4 PUSH2 0x2C79 JUMP JUMPDEST SWAP3 POP POP PUSH1 0x1 DUP2 ADD SWAP1 POP PUSH2 0x2CAA JUMP JUMPDEST POP DUP6 SWAP4 POP POP POP POP SWAP3 SWAP2 POP POP JUMP JUMPDEST PUSH1 0x0 PUSH1 0x20 DUP3 ADD SWAP1 POP DUP2 DUP2 SUB PUSH1 0x0 DUP4 ADD MSTORE PUSH2 0x2CFE DUP2 DUP5 PUSH2 0x2C86 JUMP JUMPDEST SWAP1 POP SWAP3 SWAP2 POP POP JUMP JUMPDEST PUSH1 0x0 DUP2 SWAP1 POP SWAP2 SWAP1 POP JUMP JUMPDEST PUSH2 0x2D19 DUP2 PUSH2 0x2D06 JUMP JUMPDEST DUP2 EQ PUSH2 0x2D24 JUMPI PUSH1 0x0 DUP1 REVERT JUMPDEST POP JUMP JUMPDEST PUSH1 0x0 DUP2 CALLDATALOAD SWAP1 POP PUSH2 0x2D36 DUP2 PUSH2 0x2D10 JUMP JUMPDEST SWAP3 SWAP2 POP POP JUMP JUMPDEST PUSH1 0x0 DUP2 SWAP1 POP SWAP2 SWAP1 POP JUMP JUMPDEST PUSH2 0x2D4F DUP2 PUSH2 0x2D3C JUMP JUMPDEST DUP2 EQ PUSH2 0x2D5A JUMPI PUSH1 0x0 DUP1 REVERT JUMPDEST POP JUMP JUMPDEST PUSH1 0x0 DUP2 CALLDATALOAD SWAP1 POP PUSH2 0x2D6C DUP2 PUSH2 0x2D46 JUMP JUMPDEST SWAP3 SWAP2 POP POP JUMP JUMPDEST PUSH1 0x0 PUSH32 0xFFFFFFFF00000000000000000000000000000000000000000000000000000000 DUP3 AND SWAP1 POP SWAP2 SWAP1 POP JUMP JUMPDEST PUSH2 0x2DA7 DUP2 PUSH2 0x2D72 JUMP JUMPDEST DUP2 EQ PUSH2 0x2DB2 JUMPI PUSH1 0x0 DUP1 REVERT JUMPDEST POP JUMP JUMPDEST PUSH1 0x0 DUP2 CALLDATALOAD SWAP1 POP PUSH2 0x2DC4 DUP2 PUSH2 0x2D9E JUMP JUMPDEST SWAP3 SWAP2 POP POP JUMP JUMPDEST PUSH1 0x0 DUP1 PUSH1 0x0 DUP1 PUSH1 0x0 DUP1 PUSH1 0x0 DUP1 PUSH1 0xE0 DUP10 DUP12 SUB SLT ISZERO PUSH2 0x2DEA JUMPI PUSH2 0x2DE9 PUSH2 0x297A JUMP JUMPDEST JUMPDEST PUSH1 0x0 PUSH2 0x2DF8 DUP12 DUP3 DUP13 ADD PUSH2 0x2A7F JUMP JUMPDEST SWAP9 POP POP PUSH1 0x20 PUSH2 0x2E09 DUP12 DUP3 DUP13 ADD PUSH2 0x2D27 JUMP JUMPDEST SWAP8 POP POP PUSH1 0x40 PUSH2 0x2E1A DUP12 DUP3 DUP13 ADD PUSH2 0x2D5D JUMP JUMPDEST SWAP7 POP POP PUSH1 0x60 PUSH2 0x2E2B DUP12 DUP3 DUP13 ADD PUSH2 0x2DB5 JUMP JUMPDEST SWAP6 POP POP PUSH1 0x80 PUSH2 0x2E3C DUP12 DUP3 DUP13 ADD PUSH2 0x2D27 JUMP JUMPDEST SWAP5 POP POP PUSH1 0xA0 PUSH2 0x2E4D DUP12 DUP3 DUP13 ADD PUSH2 0x2D27 JUMP JUMPDEST SWAP4 POP POP PUSH1 0xC0 DUP10 ADD CALLDATALOAD PUSH8 0xFFFFFFFFFFFFFFFF DUP2 GT ISZERO PUSH2 0x2E6E JUMPI PUSH2 0x2E6D PUSH2 0x297F JUMP JUMPDEST JUMPDEST PUSH2 0x2E7A DUP12 DUP3 DUP13 ADD PUSH2 0x2A94 JUMP JUMPDEST SWAP3 POP SWAP3 POP POP SWAP3 SWAP6 SWAP9 POP SWAP3 SWAP6 SWAP9 SWAP1 SWAP4 SWAP7 POP JUMP JUMPDEST PUSH1 0x0 DUP1 PUSH1 0x0 PUSH1 0x40 DUP5 DUP7 SUB SLT ISZERO PUSH2 0x2EA5 JUMPI PUSH2 0x2EA4 PUSH2 0x297A JUMP JUMPDEST JUMPDEST PUSH1 0x0 DUP5 ADD CALLDATALOAD PUSH8 0xFFFFFFFFFFFFFFFF DUP2 GT ISZERO PUSH2 0x2EC3 JUMPI PUSH2 0x2EC2 PUSH2 0x297F JUMP JUMPDEST JUMPDEST PUSH2 0x2ECF DUP7 DUP3 DUP8 ADD PUSH2 0x2993 JUMP JUMPDEST SWAP4 POP SWAP4 POP POP PUSH1 0x20 PUSH2 0x2EE2 DUP7 DUP3 DUP8 ADD PUSH2 0x2A7F JUMP JUMPDEST SWAP2 POP POP SWAP3 POP SWAP3 POP SWAP3 JUMP JUMPDEST PUSH1 0x0 DUP1 PUSH1 0x0 DUP1 PUSH1 0x0 DUP1 PUSH1 0x0 DUP1 PUSH1 0x0 PUSH2 0x100 DUP11 DUP13 SUB SLT ISZERO PUSH2 0x2F0F JUMPI PUSH2 0x2F0E PUSH2 0x297A JUMP JUMPDEST JUMPDEST PUSH1 0x0 PUSH2 0x2F1D DUP13 DUP3 DUP14 ADD PUSH2 0x2A7F JUMP JUMPDEST SWAP10 POP POP PUSH1 0x20 PUSH2 0x2F2E DUP13 DUP3 DUP14 ADD PUSH2 0x2D27 JUMP JUMPDEST SWAP9 POP POP PUSH1 0x40 PUSH2 0x2F3F DUP13 DUP3 DUP14 ADD PUSH2 0x2D5D JUMP JUMPDEST SWAP8 POP POP PUSH1 0x60 PUSH2 0x2F50 DUP13 DUP3 DUP14 ADD PUSH2 0x2A7F JUMP JUMPDEST SWAP7 POP POP PUSH1 0x80 PUSH2 0x2F61 DUP13 DUP3 DUP14 ADD PUSH2 0x2DB5 JUMP JUMPDEST SWAP6 POP POP PUSH1 0xA0 PUSH2 0x2F72 DUP13 DUP3 DUP14 ADD PUSH2 0x2D27 JUMP JUMPDEST SWAP5 POP POP PUSH1 0xC0 PUSH2 0x2F83 DUP13 DUP3 DUP14 ADD PUSH2 0x2D27 JUMP JUMPDEST SWAP4 POP POP PUSH1 0xE0 DUP11 ADD CALLDATALOAD PUSH8 0xFFFFFFFFFFFFFFFF DUP2 GT ISZERO PUSH2 0x2FA4 JUMPI PUSH2 0x2FA3 PUSH2 0x297F JUMP JUMPDEST JUMPDEST PUSH2 0x2FB0 DUP13 DUP3 DUP14 ADD PUSH2 0x2A94 JUMP JUMPDEST SWAP3 POP SWAP3 POP POP SWAP3 SWAP6 SWAP9 POP SWAP3 SWAP6 SWAP9 POP SWAP3 SWAP6 SWAP9 JUMP JUMPDEST PUSH1 0x0 DUP1 PUSH1 0x0 DUP1 PUSH1 0x0 DUP1 PUSH1 0xC0 DUP8 DUP10 SUB SLT ISZERO PUSH2 0x2FDF JUMPI PUSH2 0x2FDE PUSH2 0x297A JUMP JUMPDEST JUMPDEST PUSH1 0x0 PUSH2 0x2FED DUP10 DUP3 DUP11 ADD PUSH2 0x2D5D JUMP JUMPDEST SWAP7 POP POP PUSH1 0x20 PUSH2 0x2FFE DUP10 DUP3 DUP11 ADD PUSH2 0x2D27 JUMP JUMPDEST SWAP6 POP POP PUSH1 0x40 PUSH2 0x300F DUP10 DUP3 DUP11 ADD PUSH2 0x2A7F JUMP JUMPDEST SWAP5 POP POP PUSH1 0x60 PUSH2 0x3020 DUP10 DUP3 DUP11 ADD PUSH2 0x2DB5 JUMP JUMPDEST SWAP4 POP POP PUSH1 0x80 PUSH2 0x3031 DUP10 DUP3 DUP11 ADD PUSH2 0x2D27 JUMP JUMPDEST SWAP3 POP POP PUSH1 0xA0 PUSH2 0x3042 DUP10 DUP3 DUP11 ADD PUSH2 0x2D5D JUMP JUMPDEST SWAP2 POP POP SWAP3 SWAP6 POP SWAP3 SWAP6 POP SWAP3 SWAP6 JUMP JUMPDEST PUSH1 0x0 DUP2 ISZERO ISZERO SWAP1 POP SWAP2 SWAP1 POP JUMP JUMPDEST PUSH2 0x3064 DUP2 PUSH2 0x304F JUMP JUMPDEST DUP3 MSTORE POP POP JUMP JUMPDEST PUSH1 0x0 PUSH1 0x20 DUP3 ADD SWAP1 POP PUSH2 0x307F PUSH1 0x0 DUP4 ADD DUP5 PUSH2 0x305B JUMP JUMPDEST SWAP3 SWAP2 POP POP JUMP JUMPDEST PUSH2 0x308E DUP2 PUSH2 0x2D06 JUMP JUMPDEST DUP3 MSTORE POP POP JUMP JUMPDEST PUSH1 0x0 PUSH1 0x20 DUP3 ADD SWAP1 POP PUSH2 0x30A9 PUSH1 0x0 DUP4 ADD DUP5 PUSH2 0x3085 JUMP JUMPDEST SWAP3 SWAP2 POP POP JUMP JUMPDEST PUSH1 0x0 DUP1 PUSH1 0x0 DUP1 PUSH1 0x40 DUP6 DUP8 SUB SLT ISZERO PUSH2 0x30C9 JUMPI PUSH2 0x30C8 PUSH2 0x297A JUMP JUMPDEST JUMPDEST PUSH1 0x0 DUP6 ADD CALLDATALOAD PUSH8 0xFFFFFFFFFFFFFFFF DUP2 GT ISZERO PUSH2 0x30E7 JUMPI PUSH2 0x30E6 PUSH2 0x297F JUMP JUMPDEST JUMPDEST PUSH2 0x30F3 DUP8 DUP3 DUP9 ADD PUSH2 0x2993 JUMP JUMPDEST SWAP5 POP SWAP5 POP POP PUSH1 0x20 DUP6 ADD CALLDATALOAD PUSH8 0xFFFFFFFFFFFFFFFF DUP2 GT ISZERO PUSH2 0x3116 JUMPI PUSH2 0x3115 PUSH2 0x297F JUMP JUMPDEST JUMPDEST PUSH2 0x3122 DUP8 DUP3 DUP9 ADD PUSH2 0x2993 JUMP JUMPDEST SWAP3 POP SWAP3 POP POP SWAP3 SWAP6 SWAP2 SWAP5 POP SWAP3 POP JUMP JUMPDEST PUSH1 0x0 DUP1 PUSH1 0x0 DUP1 PUSH1 0x0 DUP1 PUSH1 0x0 PUSH1 0xC0 DUP9 DUP11 SUB SLT ISZERO PUSH2 0x314F JUMPI PUSH2 0x314E PUSH2 0x297A JUMP JUMPDEST JUMPDEST PUSH1 0x0 PUSH2 0x315D DUP11 DUP3 DUP12 ADD PUSH2 0x2D5D JUMP JUMPDEST SWAP8 POP POP PUSH1 0x20 PUSH2 0x316E DUP11 DUP3 DUP12 ADD PUSH2 0x2D27 JUMP JUMPDEST SWAP7 POP POP PUSH1 0x40 PUSH2 0x317F DUP11 DUP3 DUP12 ADD PUSH2 0x2A7F JUMP JUMPDEST SWAP6 POP POP PUSH1 0x60 PUSH2 0x3190 DUP11 DUP3 DUP12 ADD PUSH2 0x2DB5 JUMP JUMPDEST SWAP5 POP POP PUSH1 0x80 PUSH2 0x31A1 DUP11 DUP3 DUP12 ADD PUSH2 0x2D27 JUMP JUMPDEST SWAP4 POP POP PUSH1 0xA0 DUP9 ADD CALLDATALOAD PUSH8 0xFFFFFFFFFFFFFFFF DUP2 GT ISZERO PUSH2 0x31C2 JUMPI PUSH2 0x31C1 PUSH2 0x297F JUMP JUMPDEST JUMPDEST PUSH2 0x31CE DUP11 DUP3 DUP12 ADD PUSH2 0x2A94 JUMP JUMPDEST SWAP3 POP SWAP3 POP POP SWAP3 SWAP6 SWAP9 SWAP2 SWAP5 SWAP8 POP SWAP3 SWAP6 POP JUMP JUMPDEST PUSH1 0x0 DUP1 DUP4 PUSH1 0x1F DUP5 ADD SLT PUSH2 0x31F5 JUMPI PUSH2 0x31F4 PUSH2 0x2984 JUMP JUMPDEST JUMPDEST DUP3 CALLDATALOAD SWAP1 POP PUSH8 0xFFFFFFFFFFFFFFFF DUP2 GT ISZERO PUSH2 0x3212 JUMPI PUSH2 0x3211 PUSH2 0x2989 JUMP JUMPDEST JUMPDEST PUSH1 0x20 DUP4 ADD SWAP2 POP DUP4 PUSH1 0x20 DUP3 MUL DUP4 ADD GT ISZERO PUSH2 0x322E JUMPI PUSH2 0x322D PUSH2 0x298E JUMP JUMPDEST JUMPDEST SWAP3 POP SWAP3 SWAP1 POP JUMP JUMPDEST PUSH1 0x0 DUP1 DUP4 PUSH1 0x1F DUP5 ADD SLT PUSH2 0x324B JUMPI PUSH2 0x324A PUSH2 0x2984 JUMP JUMPDEST JUMPDEST DUP3 CALLDATALOAD SWAP1 POP PUSH8 0xFFFFFFFFFFFFFFFF DUP2 GT ISZERO PUSH2 0x3268 JUMPI PUSH2 0x3267 PUSH2 0x2989 JUMP JUMPDEST JUMPDEST PUSH1 0x20 DUP4 ADD SWAP2 POP DUP4 PUSH1 0x20 DUP3 MUL DUP4 ADD GT ISZERO PUSH2 0x3284 JUMPI PUSH2 0x3283 PUSH2 0x298E JUMP JUMPDEST JUMPDEST SWAP3 POP SWAP3 SWAP1 POP JUMP JUMPDEST PUSH1 0x0 DUP1 PUSH1 0x0 DUP1 PUSH1 0x40 DUP6 DUP8 SUB SLT ISZERO PUSH2 0x32A5 JUMPI PUSH2 0x32A4 PUSH2 0x297A JUMP JUMPDEST JUMPDEST PUSH1 0x0 DUP6 ADD CALLDATALOAD PUSH8 0xFFFFFFFFFFFFFFFF DUP2 GT ISZERO PUSH2 0x32C3 JUMPI PUSH2 0x32C2 PUSH2 0x297F JUMP JUMPDEST JUMPDEST PUSH2 0x32CF DUP8 DUP3 DUP9 ADD PUSH2 0x31DF JUMP JUMPDEST SWAP5 POP SWAP5 POP POP PUSH1 0x20 DUP6 ADD CALLDATALOAD PUSH8 0xFFFFFFFFFFFFFFFF DUP2 GT ISZERO PUSH2 0x32F2 JUMPI PUSH2 0x32F1 PUSH2 0x297F JUMP JUMPDEST JUMPDEST PUSH2 0x32FE DUP8 DUP3 DUP9 ADD PUSH2 0x3235 JUMP JUMPDEST SWAP3 POP SWAP3 POP POP SWAP3 SWAP6 SWAP2 SWAP5 POP SWAP3 POP JUMP JUMPDEST PUSH1 0x0 DUP1 PUSH1 0x0 DUP1 PUSH1 0x80 DUP6 DUP8 SUB SLT ISZERO PUSH2 0x3326 JUMPI PUSH2 0x3325 PUSH2 0x297A JUMP JUMPDEST JUMPDEST PUSH1 0x0 PUSH2 0x3334 DUP8 DUP3 DUP9 ADD PUSH2 0x2D5D JUMP JUMPDEST SWAP5 POP POP PUSH1 0x20 PUSH2 0x3345 DUP8 DUP3 DUP9 ADD PUSH2 0x2D27 JUMP JUMPDEST SWAP4 POP POP PUSH1 0x40 PUSH2 0x3356 DUP8 DUP3 DUP9 ADD PUSH2 0x2DB5 JUMP JUMPDEST SWAP3 POP POP PUSH1 0x60 PUSH2 0x3367 DUP8 DUP3 DUP9 ADD PUSH2 0x2D27 JUMP JUMPDEST SWAP2 POP POP SWAP3 SWAP6 SWAP2 SWAP5 POP SWAP3 POP JUMP JUMPDEST PUSH1 0x0 DUP1 PUSH1 0x0 DUP1 PUSH1 0x60 DUP6 DUP8 SUB SLT ISZERO PUSH2 0x338D JUMPI PUSH2 0x338C PUSH2 0x297A JUMP JUMPDEST JUMPDEST PUSH1 0x0 PUSH2 0x339B DUP8 DUP3 DUP9 ADD PUSH2 0x2A7F JUMP JUMPDEST SWAP5 POP POP PUSH1 0x20 PUSH2 0x33AC DUP8 DUP3 DUP9 ADD PUSH2 0x2D27 JUMP JUMPDEST SWAP4 POP POP PUSH1 0x40 DUP6 ADD CALLDATALOAD PUSH8 0xFFFFFFFFFFFFFFFF DUP2 GT ISZERO PUSH2 0x33CD JUMPI PUSH2 0x33CC PUSH2 0x297F JUMP JUMPDEST JUMPDEST PUSH2 0x33D9 DUP8 DUP3 DUP9 ADD PUSH2 0x2A94 JUMP JUMPDEST SWAP3 POP SWAP3 POP POP SWAP3 SWAP6 SWAP2 SWAP5 POP SWAP3 POP JUMP JUMPDEST PUSH1 0x0 DUP1 REVERT JUMPDEST PUSH32 0x4E487B7100000000000000000000000000000000000000000000000000000000 PUSH1 0x0 MSTORE PUSH1 0x41 PUSH1 0x4 MSTORE PUSH1 0x24 PUSH1 0x0 REVERT JUMPDEST PUSH2 0x3424 DUP3 PUSH2 0x2BBA JUMP JUMPDEST DUP2 ADD DUP2 DUP2 LT PUSH8 0xFFFFFFFFFFFFFFFF DUP3 GT OR ISZERO PUSH2 0x3443 JUMPI PUSH2 0x3442 PUSH2 0x33EC JUMP JUMPDEST JUMPDEST DUP1 PUSH1 0x40 MSTORE POP POP POP JUMP JUMPDEST PUSH1 0x0 PUSH2 0x3456 PUSH2 0x2970 JUMP JUMPDEST SWAP1 POP PUSH2 0x3462 DUP3 DUP3 PUSH2 0x341B JUMP JUMPDEST SWAP2 SWAP1 POP JUMP JUMPDEST PUSH1 0x0 PUSH8 0xFFFFFFFFFFFFFFFF DUP3 GT ISZERO PUSH2 0x3482 JUMPI PUSH2 0x3481 PUSH2 0x33EC JUMP JUMPDEST JUMPDEST PUSH2 0x348B DUP3 PUSH2 0x2BBA JUMP JUMPDEST SWAP1 POP PUSH1 0x20 DUP2 ADD SWAP1 POP SWAP2 SWAP1 POP JUMP JUMPDEST DUP3 DUP2 DUP4 CALLDATACOPY PUSH1 0x0 DUP4 DUP4 ADD MSTORE POP POP POP JUMP JUMPDEST PUSH1 0x0 PUSH2 0x34BA PUSH2 0x34B5 DUP5 PUSH2 0x3467 JUMP JUMPDEST PUSH2 0x344C JUMP JUMPDEST SWAP1 POP DUP3 DUP2 MSTORE PUSH1 0x20 DUP2 ADD DUP5 DUP5 DUP5 ADD GT ISZERO PUSH2 0x34D6 JUMPI PUSH2 0x34D5 PUSH2 0x33E7 JUMP JUMPDEST JUMPDEST PUSH2 0x34E1 DUP5 DUP3 DUP6 PUSH2 0x3498 JUMP JUMPDEST POP SWAP4 SWAP3 POP POP POP JUMP JUMPDEST PUSH1 0x0 DUP3 PUSH1 0x1F DUP4 ADD SLT PUSH2 0x34FE JUMPI PUSH2 0x34FD PUSH2 0x2984 JUMP JUMPDEST JUMPDEST DUP2 CALLDATALOAD PUSH2 0x350E DUP5 DUP3 PUSH1 0x20 DUP7 ADD PUSH2 0x34A7 JUMP JUMPDEST SWAP2 POP POP SWAP3 SWAP2 POP POP JUMP JUMPDEST PUSH1 0x0 DUP1 PUSH1 0x0 PUSH1 0x60 DUP5 DUP7 SUB SLT ISZERO PUSH2 0x3530 JUMPI PUSH2 0x352F PUSH2 0x297A JUMP JUMPDEST JUMPDEST PUSH1 0x0 PUSH2 0x353E DUP7 DUP3 DUP8 ADD PUSH2 0x2A7F JUMP JUMPDEST SWAP4 POP POP PUSH1 0x20 PUSH2 0x354F DUP7 DUP3 DUP8 ADD PUSH2 0x2D27 JUMP JUMPDEST SWAP3 POP POP PUSH1 0x40 DUP5 ADD CALLDATALOAD PUSH8 0xFFFFFFFFFFFFFFFF DUP2 GT ISZERO PUSH2 0x3570 JUMPI PUSH2 0x356F PUSH2 0x297F JUMP JUMPDEST JUMPDEST PUSH2 0x357C DUP7 DUP3 DUP8 ADD PUSH2 0x34E9 JUMP JUMPDEST SWAP2 POP POP SWAP3 POP SWAP3 POP SWAP3 JUMP JUMPDEST PUSH1 0x0 DUP1 PUSH1 0x0 DUP1 PUSH1 0x80 DUP6 DUP8 SUB SLT ISZERO PUSH2 0x35A0 JUMPI PUSH2 0x359F PUSH2 0x297A JUMP JUMPDEST JUMPDEST PUSH1 0x0 PUSH2 0x35AE DUP8 DUP3 DUP9 ADD PUSH2 0x2D27 JUMP JUMPDEST SWAP5 POP POP PUSH1 0x20 PUSH2 0x35BF DUP8 DUP3 DUP9 ADD PUSH2 0x2D27 JUMP JUMPDEST SWAP4 POP POP PUSH1 0x40 PUSH2 0x35D0 DUP8 DUP3 DUP9 ADD PUSH2 0x2DB5 JUMP JUMPDEST SWAP3 POP POP PUSH1 0x60 PUSH2 0x35E1 DUP8 DUP3 DUP9 ADD PUSH2 0x2D27 JUMP JUMPDEST SWAP2 POP POP SWAP3 SWAP6 SWAP2 SWAP5 POP SWAP3 POP JUMP JUMPDEST PUSH1 0x0 PUSH1 0x20 DUP3 DUP5 SUB SLT ISZERO PUSH2 0x3603 JUMPI PUSH2 0x3602 PUSH2 0x297A JUMP JUMPDEST JUMPDEST PUSH1 0x0 PUSH2 0x3611 DUP5 DUP3 DUP6 ADD PUSH2 0x2A7F JUMP JUMPDEST SWAP2 POP POP SWAP3 SWAP2 POP POP JUMP JUMPDEST PUSH1 0x0 DUP1 PUSH1 0x40 DUP4 DUP6 SUB SLT ISZERO PUSH2 0x3631 JUMPI PUSH2 0x3630 PUSH2 0x297A JUMP JUMPDEST JUMPDEST PUSH1 0x0 PUSH2 0x363F DUP6 DUP3 DUP7 ADD PUSH2 0x2A7F JUMP JUMPDEST SWAP3 POP POP PUSH1 0x20 PUSH2 0x3650 DUP6 DUP3 DUP7 ADD PUSH2 0x2D27 JUMP JUMPDEST SWAP2 POP POP SWAP3 POP SWAP3 SWAP1 POP JUMP JUMPDEST PUSH32 0x43616E6E6F742073657420617574686F72697A65642073656E64657273000000 PUSH1 0x0 DUP3 ADD MSTORE POP JUMP JUMPDEST PUSH1 0x0 PUSH2 0x3690 PUSH1 0x1D DUP4 PUSH2 0x2B7F JUMP JUMPDEST SWAP2 POP PUSH2 0x369B DUP3 PUSH2 0x365A JUMP JUMPDEST PUSH1 0x20 DUP3 ADD SWAP1 POP SWAP2 SWAP1 POP JUMP JUMPDEST PUSH1 0x0 PUSH1 0x20 DUP3 ADD SWAP1 POP DUP2 DUP2 SUB PUSH1 0x0 DUP4 ADD MSTORE PUSH2 0x36BF DUP2 PUSH2 0x3683 JUMP JUMPDEST SWAP1 POP SWAP2 SWAP1 POP JUMP JUMPDEST PUSH32 0x4E487B7100000000000000000000000000000000000000000000000000000000 PUSH1 0x0 MSTORE PUSH1 0x32 PUSH1 0x4 MSTORE PUSH1 0x24 PUSH1 0x0 REVERT JUMPDEST PUSH32 0x4E487B7100000000000000000000000000000000000000000000000000000000 PUSH1 0x0 MSTORE PUSH1 0x11 PUSH1 0x4 MSTORE PUSH1 0x24 PUSH1 0x0 REVERT JUMPDEST PUSH1 0x0 PUSH2 0x372F DUP3 PUSH2 0x2D06 JUMP JUMPDEST SWAP2 POP PUSH32 0xFFFFFFFFFFFFFFFFFFFFFFFFFFFFFFFFFFFFFFFFFFFFFFFFFFFFFFFFFFFFFFFF DUP3 SUB PUSH2 0x3761 JUMPI PUSH2 0x3760 PUSH2 0x36F5 JUMP JUMPDEST JUMPDEST PUSH1 0x1 DUP3 ADD SWAP1 POP SWAP2 SWAP1 POP JUMP JUMPDEST PUSH32 0x43616E6E6F742063616C6C20746F204C494E4B00000000000000000000000000 PUSH1 0x0 DUP3 ADD MSTORE POP JUMP JUMPDEST PUSH1 0x0 PUSH2 0x37A2 PUSH1 0x13 DUP4 PUSH2 0x2B7F JUMP JUMPDEST SWAP2 POP PUSH2 0x37AD DUP3 PUSH2 0x376C JUMP JUMPDEST PUSH1 0x20 DUP3 ADD SWAP1 POP SWAP2 SWAP1 POP JUMP JUMPDEST PUSH1 0x0 PUSH1 0x20 DUP3 ADD SWAP1 POP DUP2 DUP2 SUB PUSH1 0x0 DUP4 ADD MSTORE PUSH2 0x37D1 DUP2 PUSH2 0x3795 JUMP JUMPDEST SWAP1 POP SWAP2 SWAP1 POP JUMP JUMPDEST PUSH32 0x4D75737420666F727761726420746F206120636F6E7472616374000000000000 PUSH1 0x0 DUP3 ADD MSTORE POP JUMP JUMPDEST PUSH1 0x0 PUSH2 0x380E PUSH1 0x1A DUP4 PUSH2 0x2B7F JUMP JUMPDEST SWAP2 POP PUSH2 0x3819 DUP3 PUSH2 0x37D8 JUMP JUMPDEST PUSH1 0x20 DUP3 ADD SWAP1 POP SWAP2 SWAP1 POP JUMP JUMPDEST PUSH1 0x0 PUSH1 0x20 DUP3 ADD SWAP1 POP DUP2 DUP2 SUB PUSH1 0x0 DUP4 ADD MSTORE PUSH2 0x383D DUP2 PUSH2 0x3801 JUMP JUMPDEST SWAP1 POP SWAP2 SWAP1 POP JUMP JUMPDEST PUSH1 0x0 DUP2 SWAP1 POP SWAP3 SWAP2 POP POP JUMP JUMPDEST PUSH1 0x0 PUSH2 0x385B DUP4 DUP6 PUSH2 0x3844 JUMP JUMPDEST SWAP4 POP PUSH2 0x3868 DUP4 DUP6 DUP5 PUSH2 0x3498 JUMP JUMPDEST DUP3 DUP5 ADD SWAP1 POP SWAP4 SWAP3 POP POP POP JUMP JUMPDEST PUSH1 0x0 PUSH2 0x3881 DUP3 DUP5 DUP7 PUSH2 0x384F JUMP JUMPDEST SWAP2 POP DUP2 SWAP1 POP SWAP4 SWAP3 POP POP POP JUMP JUMPDEST PUSH32 0x466F727761726465642063616C6C206661696C65640000000000000000000000 PUSH1 0x0 DUP3 ADD MSTORE POP JUMP JUMPDEST PUSH1 0x0 PUSH2 0x38C3 PUSH1 0x15 DUP4 PUSH2 0x2B7F JUMP JUMPDEST SWAP2 POP PUSH2 0x38CE DUP3 PUSH2 0x388D JUMP JUMPDEST PUSH1 0x20 DUP3 ADD SWAP1 POP SWAP2 SWAP1 POP JUMP JUMPDEST PUSH1 0x0 PUSH1 0x20 DUP3 ADD SWAP1 POP DUP2 DUP2 SUB PUSH1 0x0 DUP4 ADD MSTORE PUSH2 0x38F2 DUP2 PUSH2 0x38B6 JUMP JUMPDEST SWAP1 POP SWAP2 SWAP1 POP JUMP JUMPDEST PUSH32 0x4D75737420757365204C494E4B20746F6B656E00000000000000000000000000 PUSH1 0x0 DUP3 ADD MSTORE POP JUMP JUMPDEST PUSH1 0x0 PUSH2 0x392F PUSH1 0x13 DUP4 PUSH2 0x2B7F JUMP JUMPDEST SWAP2 POP PUSH2 0x393A DUP3 PUSH2 0x38F9 JUMP JUMPDEST PUSH1 0x20 DUP3 ADD SWAP1 POP SWAP2 SWAP1 POP JUMP JUMPDEST PUSH1 0x0 PUSH1 0x20 DUP3 ADD SWAP1 POP DUP2 DUP2 SUB PUSH1 0x0 DUP4 ADD MSTORE PUSH2 0x395E DUP2 PUSH2 0x3922 JUMP JUMPDEST SWAP1 POP SWAP2 SWAP1 POP JUMP JUMPDEST PUSH2 0x396E DUP2 PUSH2 0x2D3C JUMP JUMPDEST DUP3 MSTORE POP POP JUMP JUMPDEST PUSH2 0x397D DUP2 PUSH2 0x2D72 JUMP JUMPDEST DUP3 MSTORE POP POP JUMP JUMPDEST PUSH1 0x0 DUP3 DUP3 MSTORE PUSH1 0x20 DUP3 ADD SWAP1 POP SWAP3 SWAP2 POP POP JUMP JUMPDEST PUSH1 0x0 PUSH2 0x39A0 DUP4 DUP6 PUSH2 0x3983 JUMP JUMPDEST SWAP4 POP PUSH2 0x39AD DUP4 DUP6 DUP5 PUSH2 0x3498 JUMP JUMPDEST PUSH2 0x39B6 DUP4 PUSH2 0x2BBA JUMP JUMPDEST DUP5 ADD SWAP1 POP SWAP4 SWAP3 POP POP POP JUMP JUMPDEST PUSH1 0x0 PUSH2 0x100 DUP3 ADD SWAP1 POP PUSH2 0x39D7 PUSH1 0x0 DUP4 ADD DUP13 PUSH2 0x2B4A JUMP JUMPDEST PUSH2 0x39E4 PUSH1 0x20 DUP4 ADD DUP12 PUSH2 0x3965 JUMP JUMPDEST PUSH2 0x39F1 PUSH1 0x40 DUP4 ADD DUP11 PUSH2 0x3085 JUMP JUMPDEST PUSH2 0x39FE PUSH1 0x60 DUP4 ADD DUP10 PUSH2 0x2B4A JUMP JUMPDEST PUSH2 0x3A0B PUSH1 0x80 DUP4 ADD DUP9 PUSH2 0x3974 JUMP JUMPDEST PUSH2 0x3A18 PUSH1 0xA0 DUP4 ADD DUP8 PUSH2 0x3085 JUMP JUMPDEST PUSH2 0x3A25 PUSH1 0xC0 DUP4 ADD DUP7 PUSH2 0x3085 JUMP JUMPDEST DUP2 DUP2 SUB PUSH1 0xE0 DUP4 ADD MSTORE PUSH2 0x3A38 DUP2 DUP5 DUP7 PUSH2 0x3994 JUMP JUMPDEST SWAP1 POP SWAP11 SWAP10 POP POP POP POP POP POP POP POP POP POP JUMP JUMPDEST PUSH32 0x4D757374206861766520612076616C6964207265717565737449640000000000 PUSH1 0x0 DUP3 ADD MSTORE POP JUMP JUMPDEST PUSH1 0x0 PUSH2 0x3A7E PUSH1 0x1B DUP4 PUSH2 0x2B7F JUMP JUMPDEST SWAP2 POP PUSH2 0x3A89 DUP3 PUSH2 0x3A48 JUMP JUMPDEST PUSH1 0x20 DUP3 ADD SWAP1 POP SWAP2 SWAP1 POP JUMP JUMPDEST PUSH1 0x0 PUSH1 0x20 DUP3 ADD SWAP1 POP DUP2 DUP2 SUB PUSH1 0x0 DUP4 ADD MSTORE PUSH2 0x3AAD DUP2 PUSH2 0x3A71 JUMP JUMPDEST SWAP1 POP SWAP2 SWAP1 POP JUMP JUMPDEST PUSH32 0x43616E6E6F742063616C6C206F776E656420636F6E7472616374000000000000 PUSH1 0x0 DUP3 ADD MSTORE POP JUMP JUMPDEST PUSH1 0x0 PUSH2 0x3AEA PUSH1 0x1A DUP4 PUSH2 0x2B7F JUMP JUMPDEST SWAP2 POP PUSH2 0x3AF5 DUP3 PUSH2 0x3AB4 JUMP JUMPDEST PUSH1 0x20 DUP3 ADD SWAP1 POP SWAP2 SWAP1 POP JUMP JUMPDEST PUSH1 0x0 PUSH1 0x20 DUP3 ADD SWAP1 POP DUP2 DUP2 SUB PUSH1 0x0 DUP4 ADD MSTORE PUSH2 0x3B19 DUP2 PUSH2 0x3ADD JUMP JUMPDEST SWAP1 POP SWAP2 SWAP1 POP JUMP JUMPDEST PUSH32 0x4D7573742070726F7669646520636F6E73756D657220656E6F75676820676173 PUSH1 0x0 DUP3 ADD MSTORE POP JUMP JUMPDEST PUSH1 0x0 PUSH2 0x3B56 PUSH1 0x20 DUP4 PUSH2 0x2B7F JUMP JUMPDEST SWAP2 POP PUSH2 0x3B61 DUP3 PUSH2 0x3B20 JUMP JUMPDEST PUSH1 0x20 DUP3 ADD SWAP1 POP SWAP2 SWAP1 POP JUMP JUMPDEST PUSH1 0x0 PUSH1 0x20 DUP3 ADD SWAP1 POP DUP2 DUP2 SUB PUSH1 0x0 DUP4 ADD MSTORE PUSH2 0x3B85 DUP2 PUSH2 0x3B49 JUMP JUMPDEST SWAP1 POP SWAP2 SWAP1 POP JUMP JUMPDEST PUSH1 0x0 PUSH1 0x40 DUP3 ADD SWAP1 POP PUSH2 0x3BA1 PUSH1 0x0 DUP4 ADD DUP6 PUSH2 0x3965 JUMP JUMPDEST PUSH2 0x3BAE PUSH1 0x20 DUP4 ADD DUP5 PUSH2 0x3965 JUMP JUMPDEST SWAP4 SWAP3 POP POP POP JUMP JUMPDEST PUSH1 0x0 DUP2 MLOAD SWAP1 POP SWAP2 SWAP1 POP JUMP JUMPDEST PUSH1 0x0 PUSH2 0x3BCB DUP3 PUSH2 0x3BB5 JUMP JUMPDEST PUSH2 0x3BD5 DUP2 DUP6 PUSH2 0x3844 JUMP JUMPDEST SWAP4 POP PUSH2 0x3BE5 DUP2 DUP6 PUSH1 0x20 DUP7 ADD PUSH2 0x2B90 JUMP JUMPDEST DUP1 DUP5 ADD SWAP2 POP POP SWAP3 SWAP2 POP POP JUMP JUMPDEST PUSH1 0x0 PUSH2 0x3BFD DUP3 DUP5 PUSH2 0x3BC0 JUMP JUMPDEST SWAP2 POP DUP2 SWAP1 POP SWAP3 SWAP2 POP POP JUMP JUMPDEST PUSH32 0x526573706F6E7365206D757374206265203E2033322062797465730000000000 PUSH1 0x0 DUP3 ADD MSTORE POP JUMP JUMPDEST PUSH1 0x0 PUSH2 0x3C3E PUSH1 0x1B DUP4 PUSH2 0x2B7F JUMP JUMPDEST SWAP2 POP PUSH2 0x3C49 DUP3 PUSH2 0x3C08 JUMP JUMPDEST PUSH1 0x20 DUP3 ADD SWAP1 POP SWAP2 SWAP1 POP JUMP JUMPDEST PUSH1 0x0 PUSH1 0x20 DUP3 ADD SWAP1 POP DUP2 DUP2 SUB PUSH1 0x0 DUP4 ADD MSTORE PUSH2 0x3C6D DUP2 PUSH2 0x3C31 JUMP JUMPDEST SWAP1 POP SWAP2 SWAP1 POP JUMP JUMPDEST PUSH32 0x466972737420776F7264206D7573742062652072657175657374496400000000 PUSH1 0x0 DUP3 ADD MSTORE POP JUMP JUMPDEST PUSH1 0x0 PUSH2 0x3CAA PUSH1 0x1C DUP4 PUSH2 0x2B7F JUMP JUMPDEST SWAP2 POP PUSH2 0x3CB5 DUP3 PUSH2 0x3C74 JUMP JUMPDEST PUSH1 0x20 DUP3 ADD SWAP1 POP SWAP2 SWAP1 POP JUMP JUMPDEST PUSH1 0x0 PUSH1 0x20 DUP3 ADD SWAP1 POP DUP2 DUP2 SUB PUSH1 0x0 DUP4 ADD MSTORE PUSH2 0x3CD9 DUP2 PUSH2 0x3C9D JUMP JUMPDEST SWAP1 POP SWAP2 SWAP1 POP JUMP JUMPDEST PUSH1 0x0 DUP2 SWAP1 POP SWAP2 SWAP1 POP JUMP JUMPDEST PUSH2 0x3CFB PUSH2 0x3CF6 DUP3 PUSH2 0x2D72 JUMP JUMPDEST PUSH2 0x3CE0 JUMP JUMPDEST DUP3 MSTORE POP POP JUMP JUMPDEST PUSH1 0x0 PUSH2 0x3D0D DUP3 DUP7 PUSH2 0x3CEA JUMP JUMPDEST PUSH1 0x4 DUP3 ADD SWAP2 POP PUSH2 0x3D1E DUP3 DUP5 DUP7 PUSH2 0x384F JUMP JUMPDEST SWAP2 POP DUP2 SWAP1 POP SWAP5 SWAP4 POP POP POP POP JUMP JUMPDEST PUSH32 0x496E76616C6964206172726179206C656E677468287329000000000000000000 PUSH1 0x0 DUP3 ADD MSTORE POP JUMP JUMPDEST PUSH1 0x0 PUSH2 0x3D61 PUSH1 0x17 DUP4 PUSH2 0x2B7F JUMP JUMPDEST SWAP2 POP PUSH2 0x3D6C DUP3 PUSH2 0x3D2B JUMP JUMPDEST PUSH1 0x20 DUP3 ADD SWAP1 POP SWAP2 SWAP1 POP JUMP JUMPDEST PUSH1 0x0 PUSH1 0x20 DUP3 ADD SWAP1 POP DUP2 DUP2 SUB PUSH1 0x0 DUP4 ADD MSTORE PUSH2 0x3D90 DUP2 PUSH2 0x3D54 JUMP JUMPDEST SWAP1 POP SWAP2 SWAP1 POP JUMP JUMPDEST PUSH1 0x0 PUSH2 0x3DA2 DUP3 PUSH2 0x2D06 JUMP JUMPDEST SWAP2 POP PUSH2 0x3DAD DUP4 PUSH2 0x2D06 JUMP JUMPDEST SWAP3 POP DUP3 DUP3 SUB SWAP1 POP DUP2 DUP2 GT ISZERO PUSH2 0x3DC5 JUMPI PUSH2 0x3DC4 PUSH2 0x36F5 JUMP JUMPDEST JUMPDEST SWAP3 SWAP2 POP POP JUMP JUMPDEST PUSH1 0x0 PUSH2 0x3DD6 DUP3 PUSH2 0x2A36 JUMP JUMPDEST SWAP1 POP SWAP2 SWAP1 POP JUMP JUMPDEST PUSH2 0x3DE6 DUP2 PUSH2 0x3DCB JUMP JUMPDEST DUP2 EQ PUSH2 0x3DF1 JUMPI PUSH1 0x0 DUP1 REVERT JUMPDEST POP JUMP JUMPDEST PUSH1 0x0 DUP2 CALLDATALOAD SWAP1 POP PUSH2 0x3E03 DUP2 PUSH2 0x3DDD JUMP JUMPDEST SWAP3 SWAP2 POP POP JUMP JUMPDEST PUSH1 0x0 PUSH1 0x20 DUP3 DUP5 SUB SLT ISZERO PUSH2 0x3E1F JUMPI PUSH2 0x3E1E PUSH2 0x297A JUMP JUMPDEST JUMPDEST PUSH1 0x0 PUSH2 0x3E2D DUP5 DUP3 DUP6 ADD PUSH2 0x3DF4 JUMP JUMPDEST SWAP2 POP POP SWAP3 SWAP2 POP POP JUMP JUMPDEST POP JUMP JUMPDEST PUSH1 0x0 PUSH2 0x3E46 PUSH1 0x0 DUP4 PUSH2 0x3844 JUMP JUMPDEST SWAP2 POP PUSH2 0x3E51 DUP3 PUSH2 0x3E36 JUMP JUMPDEST PUSH1 0x0 DUP3 ADD SWAP1 POP SWAP2 SWAP1 POP JUMP JUMPDEST PUSH1 0x0 PUSH2 0x3E67 DUP3 PUSH2 0x3E39 JUMP JUMPDEST SWAP2 POP DUP2 SWAP1 POP SWAP2 SWAP1 POP JUMP JUMPDEST PUSH32 0x416464726573733A20756E61626C6520746F2073656E642076616C75652C2072 PUSH1 0x0 DUP3 ADD MSTORE PUSH32 0x6563697069656E74206D61792068617665207265766572746564000000000000 PUSH1 0x20 DUP3 ADD MSTORE POP JUMP JUMPDEST PUSH1 0x0 PUSH2 0x3ECD PUSH1 0x3A DUP4 PUSH2 0x2B7F JUMP JUMPDEST SWAP2 POP PUSH2 0x3ED8 DUP3 PUSH2 0x3E71 JUMP JUMPDEST PUSH1 0x40 DUP3 ADD SWAP1 POP SWAP2 SWAP1 POP JUMP JUMPDEST PUSH1 0x0 PUSH1 0x20 DUP3 ADD SWAP1 POP DUP2 DUP2 SUB PUSH1 0x0 DUP4 ADD MSTORE PUSH2 0x3EFC DUP2 PUSH2 0x3EC0 JUMP JUMPDEST SWAP1 POP SWAP2 SWAP1 POP JUMP JUMPDEST PUSH32 0x546F6F206D756368204554482073656E74000000000000000000000000000000 PUSH1 0x0 DUP3 ADD MSTORE POP JUMP JUMPDEST PUSH1 0x0 PUSH2 0x3F39 PUSH1 0x11 DUP4 PUSH2 0x2B7F JUMP JUMPDEST SWAP2 POP PUSH2 0x3F44 DUP3 PUSH2 0x3F03 JUMP JUMPDEST PUSH1 0x20 DUP3 ADD SWAP1 POP SWAP2 SWAP1 POP JUMP JUMPDEST PUSH1 0x0 PUSH1 0x20 DUP3 ADD SWAP1 POP DUP2 DUP2 SUB PUSH1 0x0 DUP4 ADD MSTORE PUSH2 0x3F68 DUP2 PUSH2 0x3F2C JUMP JUMPDEST SWAP1 POP SWAP2 SWAP1 POP JUMP JUMPDEST PUSH32 0x506172616D7320646F206E6F74206D6174636820726571756573742049440000 PUSH1 0x0 DUP3 ADD MSTORE POP JUMP JUMPDEST PUSH1 0x0 PUSH2 0x3FA5 PUSH1 0x1E DUP4 PUSH2 0x2B7F JUMP JUMPDEST SWAP2 POP PUSH2 0x3FB0 DUP3 PUSH2 0x3F6F JUMP JUMPDEST PUSH1 0x20 DUP3 ADD SWAP1 POP SWAP2 SWAP1 POP JUMP JUMPDEST PUSH1 0x0 PUSH1 0x20 DUP3 ADD SWAP1 POP DUP2 DUP2 SUB PUSH1 0x0 DUP4 ADD MSTORE PUSH2 0x3FD4 DUP2 PUSH2 0x3F98 JUMP JUMPDEST SWAP1 POP SWAP2 SWAP1 POP JUMP JUMPDEST PUSH32 0x52657175657374206973206E6F74206578706972656400000000000000000000 PUSH1 0x0 DUP3 ADD MSTORE POP JUMP JUMPDEST PUSH1 0x0 PUSH2 0x4011 PUSH1 0x16 DUP4 PUSH2 0x2B7F JUMP JUMPDEST SWAP2 POP PUSH2 0x401C DUP3 PUSH2 0x3FDB JUMP JUMPDEST PUSH1 0x20 DUP3 ADD SWAP1 POP SWAP2 SWAP1 POP JUMP JUMPDEST PUSH1 0x0 PUSH1 0x20 DUP3 ADD SWAP1 POP DUP2 DUP2 SUB PUSH1 0x0 DUP4 ADD MSTORE PUSH2 0x4040 DUP2 PUSH2 0x4004 JUMP JUMPDEST SWAP1 POP SWAP2 SWAP1 POP JUMP JUMPDEST PUSH1 0x0 PUSH1 0x40 DUP3 ADD SWAP1 POP PUSH2 0x405C PUSH1 0x0 DUP4 ADD DUP6 PUSH2 0x2B4A JUMP JUMPDEST PUSH2 0x4069 PUSH1 0x20 DUP4 ADD DUP5 PUSH2 0x3085 JUMP JUMPDEST SWAP4 SWAP3 POP POP POP JUMP JUMPDEST PUSH2 0x4079 DUP2 PUSH2 0x304F JUMP JUMPDEST DUP2 EQ PUSH2 0x4084 JUMPI PUSH1 0x0 DUP1 REVERT JUMPDEST POP JUMP JUMPDEST PUSH1 0x0 DUP2 MLOAD SWAP1 POP PUSH2 0x4096 DUP2 PUSH2 0x4070 JUMP JUMPDEST SWAP3 SWAP2 POP POP JUMP JUMPDEST PUSH1 0x0 PUSH1 0x20 DUP3 DUP5 SUB SLT ISZERO PUSH2 0x40B2 JUMPI PUSH2 0x40B1 PUSH2 0x297A JUMP JUMPDEST JUMPDEST PUSH1 0x0 PUSH2 0x40C0 DUP5 DUP3 DUP6 ADD PUSH2 0x4087 JUMP JUMPDEST SWAP2 POP POP SWAP3 SWAP2 POP POP JUMP JUMPDEST PUSH32 0x4D7573742062652070726F706F736564206F776E657200000000000000000000 PUSH1 0x0 DUP3 ADD MSTORE POP JUMP JUMPDEST PUSH1 0x0 PUSH2 0x40FF PUSH1 0x16 DUP4 PUSH2 0x2B7F JUMP JUMPDEST SWAP2 POP PUSH2 0x410A DUP3 PUSH2 0x40C9 JUMP JUMPDEST PUSH1 0x20 DUP3 ADD SWAP1 POP SWAP2 SWAP1 POP JUMP JUMPDEST PUSH1 0x0 PUSH1 0x20 DUP3 ADD SWAP1 POP DUP2 DUP2 SUB PUSH1 0x0 DUP4 ADD MSTORE PUSH2 0x412E DUP2 PUSH2 0x40F2 JUMP JUMPDEST SWAP1 POP SWAP2 SWAP1 POP JUMP JUMPDEST PUSH32 0x416D6F756E74207265717565737465642069732067726561746572207468616E PUSH1 0x0 DUP3 ADD MSTORE PUSH32 0x20776974686472617761626C652062616C616E63650000000000000000000000 PUSH1 0x20 DUP3 ADD MSTORE POP JUMP JUMPDEST PUSH1 0x0 PUSH2 0x4191 PUSH1 0x35 DUP4 PUSH2 0x2B7F JUMP JUMPDEST SWAP2 POP PUSH2 0x419C DUP3 PUSH2 0x4135 JUMP JUMPDEST PUSH1 0x40 DUP3 ADD SWAP1 POP SWAP2 SWAP1 POP JUMP JUMPDEST PUSH1 0x0 PUSH1 0x20 DUP3 ADD SWAP1 POP DUP2 DUP2 SUB PUSH1 0x0 DUP4 ADD MSTORE PUSH2 0x41C0 DUP2 PUSH2 0x4184 JUMP JUMPDEST SWAP1 POP SWAP2 SWAP1 POP JUMP JUMPDEST PUSH1 0x0 PUSH1 0x60 DUP3 ADD SWAP1 POP PUSH2 0x41DC PUSH1 0x0 DUP4 ADD DUP8 PUSH2 0x2B4A JUMP JUMPDEST PUSH2 0x41E9 PUSH1 0x20 DUP4 ADD DUP7 PUSH2 0x3085 JUMP JUMPDEST DUP2 DUP2 SUB PUSH1 0x40 DUP4 ADD MSTORE PUSH2 0x41FC DUP2 DUP5 DUP7 PUSH2 0x3994 JUMP JUMPDEST SWAP1 POP SWAP6 SWAP5 POP POP POP POP POP JUMP JUMPDEST PUSH32 0x556E61626C6520746F2063726561746520726571756573740000000000000000 PUSH1 0x0 DUP3 ADD MSTORE POP JUMP JUMPDEST PUSH1 0x0 PUSH2 0x423D PUSH1 0x18 DUP4 PUSH2 0x2B7F JUMP JUMPDEST SWAP2 POP PUSH2 0x4248 DUP3 PUSH2 0x4207 JUMP JUMPDEST PUSH1 0x20 DUP3 ADD SWAP1 POP SWAP2 SWAP1 POP JUMP JUMPDEST PUSH1 0x0 PUSH1 0x20 DUP3 ADD SWAP1 POP DUP2 DUP2 SUB PUSH1 0x0 DUP4 ADD MSTORE PUSH2 0x426C DUP2 PUSH2 0x4230 JUMP JUMPDEST SWAP1 POP SWAP2 SWAP1 POP JUMP JUMPDEST PUSH1 0x0 DUP2 PUSH1 0x60 SHL SWAP1 POP SWAP2 SWAP1 POP JUMP JUMPDEST PUSH1 0x0 PUSH2 0x428B DUP3 PUSH2 0x4273 JUMP JUMPDEST SWAP1 POP SWAP2 SWAP1 POP JUMP JUMPDEST PUSH1 0x0 PUSH2 0x429D DUP3 PUSH2 0x4280 JUMP JUMPDEST SWAP1 POP SWAP2 SWAP1 POP JUMP JUMPDEST PUSH2 0x42B5 PUSH2 0x42B0 DUP3 PUSH2 0x2A56 JUMP JUMPDEST PUSH2 0x4292 JUMP JUMPDEST DUP3 MSTORE POP POP JUMP JUMPDEST PUSH1 0x0 DUP2 SWAP1 POP SWAP2 SWAP1 POP JUMP JUMPDEST PUSH2 0x42D6 PUSH2 0x42D1 DUP3 PUSH2 0x2D06 JUMP JUMPDEST PUSH2 0x42BB JUMP JUMPDEST DUP3 MSTORE POP POP JUMP JUMPDEST PUSH1 0x0 PUSH2 0x42E8 DUP3 DUP6 PUSH2 0x42A4 JUMP JUMPDEST PUSH1 0x14 DUP3 ADD SWAP2 POP PUSH2 0x42F8 DUP3 DUP5 PUSH2 0x42C5 JUMP JUMPDEST PUSH1 0x20 DUP3 ADD SWAP2 POP DUP2 SWAP1 POP SWAP4 SWAP3 POP POP POP JUMP JUMPDEST PUSH32 0x4D7573742068617665206174206C6561737420312073656E6465720000000000 PUSH1 0x0 DUP3 ADD MSTORE POP JUMP JUMPDEST PUSH1 0x0 PUSH2 0x433E PUSH1 0x1B DUP4 PUSH2 0x2B7F JUMP JUMPDEST SWAP2 POP PUSH2 0x4349 DUP3 PUSH2 0x4308 JUMP JUMPDEST PUSH1 0x20 DUP3 ADD SWAP1 POP SWAP2 SWAP1 POP JUMP JUMPDEST PUSH1 0x0 PUSH1 0x20 DUP3 ADD SWAP1 POP DUP2 DUP2 SUB PUSH1 0x0 DUP4 ADD MSTORE PUSH2 0x436D DUP2 PUSH2 0x4331 JUMP JUMPDEST SWAP1 POP SWAP2 SWAP1 POP JUMP JUMPDEST PUSH32 0x4D757374206E6F742068617665206475706C69636174652073656E6465727300 PUSH1 0x0 DUP3 ADD MSTORE POP JUMP JUMPDEST PUSH1 0x0 PUSH2 0x43AA PUSH1 0x1F DUP4 PUSH2 0x2B7F JUMP JUMPDEST SWAP2 POP PUSH2 0x43B5 DUP3 PUSH2 0x4374 JUMP JUMPDEST PUSH1 0x20 DUP3 ADD SWAP1 POP SWAP2 SWAP1 POP JUMP JUMPDEST PUSH1 0x0 PUSH1 0x20 DUP3 ADD SWAP1 POP DUP2 DUP2 SUB PUSH1 0x0 DUP4 ADD MSTORE PUSH2 0x43D9 DUP2 PUSH2 0x439D JUMP JUMPDEST SWAP1 POP SWAP2 SWAP1 POP JUMP JUMPDEST PUSH1 0x0 DUP2 SWAP1 POP SWAP2 SWAP1 POP JUMP JUMPDEST PUSH1 0x0 PUSH2 0x43F9 PUSH1 0x20 DUP5 ADD DUP5 PUSH2 0x2A7F JUMP JUMPDEST SWAP1 POP SWAP3 SWAP2 POP POP JUMP JUMPDEST PUSH1 0x0 PUSH1 0x20 DUP3 ADD SWAP1 POP SWAP2 SWAP1 POP JUMP JUMPDEST PUSH1 0x0 PUSH2 0x441A DUP4 DUP6 PUSH2 0x2C31 JUMP JUMPDEST SWAP4 POP PUSH2 0x4425 DUP3 PUSH2 0x43E0 JUMP JUMPDEST DUP1 PUSH1 0x0 JUMPDEST DUP6 DUP2 LT ISZERO PUSH2 0x445E JUMPI PUSH2 0x443B DUP3 DUP5 PUSH2 0x43EA JUMP JUMPDEST PUSH2 0x4445 DUP9 DUP3 PUSH2 0x2C61 JUMP JUMPDEST SWAP8 POP PUSH2 0x4450 DUP4 PUSH2 0x4401 JUMP JUMPDEST SWAP3 POP POP PUSH1 0x1 DUP2 ADD SWAP1 POP PUSH2 0x4429 JUMP JUMPDEST POP DUP6 SWAP3 POP POP POP SWAP4 SWAP3 POP POP POP JUMP JUMPDEST PUSH1 0x0 PUSH1 0x40 DUP3 ADD SWAP1 POP DUP2 DUP2 SUB PUSH1 0x0 DUP4 ADD MSTORE PUSH2 0x4486 DUP2 DUP6 DUP8 PUSH2 0x440E JUMP JUMPDEST SWAP1 POP PUSH2 0x4495 PUSH1 0x20 DUP4 ADD DUP5 PUSH2 0x2B4A JUMP JUMPDEST SWAP5 SWAP4 POP POP POP POP JUMP JUMPDEST PUSH32 0x4E487B7100000000000000000000000000000000000000000000000000000000 PUSH1 0x0 MSTORE PUSH1 0x1 PUSH1 0x4 MSTORE PUSH1 0x24 PUSH1 0x0 REVERT JUMPDEST PUSH1 0x0 PUSH1 0x60 DUP3 ADD SWAP1 POP DUP2 DUP2 SUB PUSH1 0x0 DUP4 ADD MSTORE PUSH2 0x44E7 DUP2 DUP8 DUP10 PUSH2 0x440E JUMP JUMPDEST SWAP1 POP DUP2 DUP2 SUB PUSH1 0x20 DUP4 ADD MSTORE PUSH2 0x44FC DUP2 DUP6 DUP8 PUSH2 0x440E JUMP JUMPDEST SWAP1 POP PUSH2 0x450B PUSH1 0x40 DUP4 ADD DUP5 PUSH2 0x2B4A JUMP JUMPDEST SWAP7 SWAP6 POP POP POP POP POP POP JUMP JUMPDEST PUSH1 0x0 PUSH1 0x20 DUP3 ADD SWAP1 POP DUP2 DUP2 SUB PUSH1 0x0 DUP4 ADD MSTORE PUSH2 0x4530 DUP2 DUP5 DUP7 PUSH2 0x440E JUMP JUMPDEST SWAP1 POP SWAP4 SWAP3 POP POP POP JUMP JUMPDEST PUSH32 0x4F6E6C792063616C6C61626C65206279206F776E657200000000000000000000 PUSH1 0x0 DUP3 ADD MSTORE POP JUMP JUMPDEST PUSH1 0x0 PUSH2 0x456F PUSH1 0x16 DUP4 PUSH2 0x2B7F JUMP JUMPDEST SWAP2 POP PUSH2 0x457A DUP3 PUSH2 0x4539 JUMP JUMPDEST PUSH1 0x20 DUP3 ADD SWAP1 POP SWAP2 SWAP1 POP JUMP JUMPDEST PUSH1 0x0 PUSH1 0x20 DUP3 ADD SWAP1 POP DUP2 DUP2 SUB PUSH1 0x0 DUP4 ADD MSTORE PUSH2 0x459E DUP2 PUSH2 0x4562 JUMP JUMPDEST SWAP1 POP SWAP2 SWAP1 POP JUMP JUMPDEST PUSH32 0x4D75737420757365206120756E69717565204944000000000000000000000000 PUSH1 0x0 DUP3 ADD MSTORE POP JUMP JUMPDEST PUSH1 0x0 PUSH2 0x45DB PUSH1 0x14 DUP4 PUSH2 0x2B7F JUMP JUMPDEST SWAP2 POP PUSH2 0x45E6 DUP3 PUSH2 0x45A5 JUMP JUMPDEST PUSH1 0x20 DUP3 ADD SWAP1 POP SWAP2 SWAP1 POP JUMP JUMPDEST PUSH1 0x0 PUSH1 0x20 DUP3 ADD SWAP1 POP DUP2 DUP2 SUB PUSH1 0x0 DUP4 ADD MSTORE PUSH2 0x460A DUP2 PUSH2 0x45CE JUMP JUMPDEST SWAP1 POP SWAP2 SWAP1 POP JUMP JUMPDEST PUSH1 0x0 PUSH2 0x461C DUP3 PUSH2 0x2D06 JUMP JUMPDEST SWAP2 POP PUSH2 0x4627 DUP4 PUSH2 0x2D06 JUMP JUMPDEST SWAP3 POP DUP3 DUP3 ADD SWAP1 POP DUP1 DUP3 GT ISZERO PUSH2 0x463F JUMPI PUSH2 0x463E PUSH2 0x36F5 JUMP JUMPDEST JUMPDEST SWAP3 SWAP2 POP POP JUMP JUMPDEST PUSH32 0x4E6F7420617574686F72697A65642073656E6465720000000000000000000000 PUSH1 0x0 DUP3 ADD MSTORE POP JUMP JUMPDEST PUSH1 0x0 PUSH2 0x467B PUSH1 0x15 DUP4 PUSH2 0x2B7F JUMP JUMPDEST SWAP2 POP PUSH2 0x4686 DUP3 PUSH2 0x4645 JUMP JUMPDEST PUSH1 0x20 DUP3 ADD SWAP1 POP SWAP2 SWAP1 POP JUMP JUMPDEST PUSH1 0x0 PUSH1 0x20 DUP3 ADD SWAP1 POP DUP2 DUP2 SUB PUSH1 0x0 DUP4 ADD MSTORE PUSH2 0x46AA DUP2 PUSH2 0x466E JUMP JUMPDEST SWAP1 POP SWAP2 SWAP1 POP JUMP JUMPDEST PUSH32 0x446174612076657273696F6E73206D757374206D617463680000000000000000 PUSH1 0x0 DUP3 ADD MSTORE POP JUMP JUMPDEST PUSH1 0x0 PUSH2 0x46E7 PUSH1 0x18 DUP4 PUSH2 0x2B7F JUMP JUMPDEST SWAP2 POP PUSH2 0x46F2 DUP3 PUSH2 0x46B1 JUMP JUMPDEST PUSH1 0x20 DUP3 ADD SWAP1 POP SWAP2 SWAP1 POP JUMP JUMPDEST PUSH1 0x0 PUSH1 0x20 DUP3 ADD SWAP1 POP DUP2 DUP2 SUB PUSH1 0x0 DUP4 ADD MSTORE PUSH2 0x4716 DUP2 PUSH2 0x46DA JUMP JUMPDEST SWAP1 POP SWAP2 SWAP1 POP JUMP JUMPDEST PUSH1 0x0 DUP2 MLOAD SWAP1 POP PUSH2 0x472C DUP2 PUSH2 0x2D10 JUMP JUMPDEST SWAP3 SWAP2 POP POP JUMP JUMPDEST PUSH1 0x0 PUSH1 0x20 DUP3 DUP5 SUB SLT ISZERO PUSH2 0x4748 JUMPI PUSH2 0x4747 PUSH2 0x297A JUMP JUMPDEST JUMPDEST PUSH1 0x0 PUSH2 0x4756 DUP5 DUP3 DUP6 ADD PUSH2 0x471D JUMP JUMPDEST SWAP2 POP POP SWAP3 SWAP2 POP POP JUMP JUMPDEST PUSH1 0x0 PUSH2 0x476B DUP3 DUP8 PUSH2 0x42C5 JUMP JUMPDEST PUSH1 0x20 DUP3 ADD SWAP2 POP PUSH2 0x477B DUP3 DUP7 PUSH2 0x42A4 JUMP JUMPDEST PUSH1 0x14 DUP3 ADD SWAP2 POP PUSH2 0x478B DUP3 DUP6 PUSH2 0x3CEA JUMP JUMPDEST PUSH1 0x4 DUP3 ADD SWAP2 POP PUSH2 0x479B DUP3 DUP5 PUSH2 0x42C5 JUMP JUMPDEST PUSH1 0x20 DUP3 ADD SWAP2 POP DUP2 SWAP1 POP SWAP6 SWAP5 POP POP POP POP POP JUMP JUMPDEST PUSH1 0x0 PUSH2 0x47B8 DUP3 PUSH2 0x2D06 JUMP JUMPDEST SWAP2 POP PUSH2 0x47C3 DUP4 PUSH2 0x2D06 JUMP JUMPDEST SWAP3 POP DUP3 DUP3 MUL PUSH2 0x47D1 DUP2 PUSH2 0x2D06 JUMP JUMPDEST SWAP2 POP DUP3 DUP3 DIV DUP5 EQ DUP4 ISZERO OR PUSH2 0x47E8 JUMPI PUSH2 0x47E7 PUSH2 0x36F5 JUMP JUMPDEST JUMPDEST POP SWAP3 SWAP2 POP POP JUMP JUMPDEST PUSH32 0x496E76616C69642072657175657374206C656E67746800000000000000000000 PUSH1 0x0 DUP3 ADD MSTORE POP JUMP JUMPDEST PUSH1 0x0 PUSH2 0x4825 PUSH1 0x16 DUP4 PUSH2 0x2B7F JUMP JUMPDEST SWAP2 POP PUSH2 0x4830 DUP3 PUSH2 0x47EF JUMP JUMPDEST PUSH1 0x20 DUP3 ADD SWAP1 POP SWAP2 SWAP1 POP JUMP JUMPDEST PUSH1 0x0 PUSH1 0x20 DUP3 ADD SWAP1 POP DUP2 DUP2 SUB PUSH1 0x0 DUP4 ADD MSTORE PUSH2 0x4854 DUP2 PUSH2 0x4818 JUMP JUMPDEST SWAP1 POP SWAP2 SWAP1 POP JUMP JUMPDEST PUSH32 0x4D757374207573652077686974656C69737465642066756E6374696F6E730000 PUSH1 0x0 DUP3 ADD MSTORE POP JUMP JUMPDEST PUSH1 0x0 PUSH2 0x4891 PUSH1 0x1E DUP4 PUSH2 0x2B7F JUMP JUMPDEST SWAP2 POP PUSH2 0x489C DUP3 PUSH2 0x485B JUMP JUMPDEST PUSH1 0x20 DUP3 ADD SWAP1 POP SWAP2 SWAP1 POP JUMP JUMPDEST PUSH1 0x0 PUSH1 0x20 DUP3 ADD SWAP1 POP DUP2 DUP2 SUB PUSH1 0x0 DUP4 ADD MSTORE PUSH2 0x48C0 DUP2 PUSH2 0x4884 JUMP JUMPDEST SWAP1 POP SWAP2 SWAP1 POP JUMP JUMPDEST PUSH32 0x43616E6E6F74207472616E7366657220746F2073656C66000000000000000000 PUSH1 0x0 DUP3 ADD MSTORE POP JUMP JUMPDEST PUSH1 0x0 PUSH2 0x48FD PUSH1 0x17 DUP4 PUSH2 0x2B7F JUMP JUMPDEST SWAP2 POP PUSH2 0x4908 DUP3 PUSH2 0x48C7 JUMP JUMPDEST PUSH1 0x20 DUP3 ADD SWAP1 POP SWAP2 SWAP1 POP JUMP JUMPDEST PUSH1 0x0 PUSH1 0x20 DUP3 ADD SWAP1 POP DUP2 DUP2 SUB PUSH1 0x0 DUP4 ADD MSTORE PUSH2 0x492C DUP2 PUSH2 0x48F0 JUMP JUMPDEST SWAP1 POP SWAP2 SWAP1 POP JUMP JUMPDEST PUSH32 0x53616665436173743A2076616C756520646F65736E27742066697420696E2038 PUSH1 0x0 DUP3 ADD MSTORE PUSH32 0x2062697473000000000000000000000000000000000000000000000000000000 PUSH1 0x20 DUP3 ADD MSTORE POP JUMP JUMPDEST PUSH1 0x0 PUSH2 0x498F PUSH1 0x25 DUP4 PUSH2 0x2B7F JUMP JUMPDEST SWAP2 POP PUSH2 0x499A DUP3 PUSH2 0x4933 JUMP JUMPDEST PUSH1 0x40 DUP3 ADD SWAP1 POP SWAP2 SWAP1 POP JUMP JUMPDEST PUSH1 0x0 PUSH1 0x20 DUP3 ADD SWAP1 POP DUP2 DUP2 SUB PUSH1 0x0 DUP4 ADD MSTORE PUSH2 0x49BE DUP2 PUSH2 0x4982 JUMP JUMPDEST SWAP1 POP SWAP2 SWAP1 POP JUMP INVALID LOG2 PUSH5 0x6970667358 0x22 SLT KECCAK256 0x4C CREATE2 SWAP15 RETURNDATACOPY 0xC5 SLT PUSH20 0xFA2017C158CDB7A211E6946AE653C5051A8FD802 0xBB 0xA9 EXTCODESIZE SDIV SWAP5 PUSH5 0x736F6C6343 STOP ADDMOD SGT STOP CALLER "
		},
		"gasEstimates": {
			"creation": {
				"codeDepositCost": "3787800",
				"executionCost": "infinite",
				"totalCost": "infinite"
			},
			"external": {
				"EXPIRYTIME()": "440",
				"acceptAuthorizedReceivers(address[],address[])": "infinite",
				"acceptOwnableContracts(address[])": "infinite",
				"acceptOwnership()": "54629",
				"cancelOracleRequest(bytes32,uint256,bytes4,uint256)": "infinite",
				"cancelOracleRequestByRequester(uint256,uint256,bytes4,uint256)": "infinite",
				"distributeFunds(address[],uint256[])": "infinite",
				"fulfillOracleRequest(bytes32,uint256,address,bytes4,uint256,bytes32)": "infinite",
				"fulfillOracleRequest2(bytes32,uint256,address,bytes4,uint256,bytes)": "infinite",
				"getAuthorizedSenders()": "infinite",
				"getChainlinkToken()": "infinite",
				"isAuthorizedSender(address)": "2971",
				"onTokenTransfer(address,uint256,bytes)": "infinite",
				"operatorRequest(address,uint256,bytes32,bytes4,uint256,uint256,bytes)": "infinite",
				"oracleRequest(address,uint256,bytes32,address,bytes4,uint256,uint256,bytes)": "infinite",
				"owner()": "2633",
				"ownerForward(address,bytes)": "infinite",
				"ownerTransferAndCall(address,uint256,bytes)": "infinite",
				"setAuthorizedSenders(address[])": "infinite",
				"setAuthorizedSendersOn(address[],address[])": "infinite",
				"transferOwnableContracts(address[],address)": "infinite",
				"transferOwnership(address)": "30704",
				"typeAndVersion()": "infinite",
				"withdraw(address,uint256)": "infinite",
				"withdrawable()": "infinite"
			},
			"internal": {
				"_buildParamsHash(uint256,address,bytes4,uint256)": "infinite",
				"_canSetAuthorizedSenders()": "4507",
				"_fundsAvailable()": "infinite",
				"_validateTokenTransferAction(bytes4,bytes memory)": "infinite",
				"_verifyAndProcessOracleRequest(address,uint256,address,bytes4,uint256,uint256)": "infinite",
				"_verifyOracleRequestAndProcessPayment(bytes32,uint256,address,bytes4,uint256,uint256)": "infinite"
			}
		},
		"methodIdentifiers": {
			"EXPIRYTIME()": "52043783",
			"acceptAuthorizedReceivers(address[],address[])": "5ffa6288",
			"acceptOwnableContracts(address[])": "01994b99",
			"acceptOwnership()": "79ba5097",
			"cancelOracleRequest(bytes32,uint256,bytes4,uint256)": "6ee4d553",
			"cancelOracleRequestByRequester(uint256,uint256,bytes4,uint256)": "eb007d99",
			"distributeFunds(address[],uint256[])": "6bd59ec0",
			"fulfillOracleRequest(bytes32,uint256,address,bytes4,uint256,bytes32)": "4ab0d190",
			"fulfillOracleRequest2(bytes32,uint256,address,bytes4,uint256,bytes)": "6ae0bc76",
			"getAuthorizedSenders()": "2408afaa",
			"getChainlinkToken()": "165d35e1",
			"isAuthorizedSender(address)": "fa00763a",
			"onTokenTransfer(address,uint256,bytes)": "a4c0ed36",
			"operatorRequest(address,uint256,bytes32,bytes4,uint256,uint256,bytes)": "3c6d41b9",
			"oracleRequest(address,uint256,bytes32,address,bytes4,uint256,uint256,bytes)": "40429946",
			"owner()": "8da5cb5b",
			"ownerForward(address,bytes)": "033f49f7",
			"ownerTransferAndCall(address,uint256,bytes)": "902fc370",
			"setAuthorizedSenders(address[])": "ee56997b",
			"setAuthorizedSendersOn(address[],address[])": "fc4a03ed",
			"transferOwnableContracts(address[],address)": "3ec5bc14",
			"transferOwnership(address)": "f2fde38b",
			"typeAndVersion()": "181f5a77",
			"withdraw(address,uint256)": "f3fef3a3",
			"withdrawable()": "50188301"
		}
	},
	"abi": [
		{
			"inputs": [
				{
					"internalType": "address",
					"name": "link",
					"type": "address"
				},
				{
					"internalType": "address",
					"name": "owner",
					"type": "address"
				}
			],
			"stateMutability": "nonpayable",
			"type": "constructor"
		},
		{
			"anonymous": false,
			"inputs": [
				{
					"indexed": false,
					"internalType": "address[]",
					"name": "senders",
					"type": "address[]"
				},
				{
					"indexed": false,
					"internalType": "address",
					"name": "changedBy",
					"type": "address"
				}
			],
			"name": "AuthorizedSendersChanged",
			"type": "event"
		},
		{
			"anonymous": false,
			"inputs": [
				{
					"indexed": true,
					"internalType": "bytes32",
					"name": "requestId",
					"type": "bytes32"
				}
			],
			"name": "CancelOracleRequest",
			"type": "event"
		},
		{
			"anonymous": false,
			"inputs": [
				{
					"indexed": true,
					"internalType": "bytes32",
					"name": "specId",
					"type": "bytes32"
				},
				{
					"indexed": false,
					"internalType": "address",
					"name": "requester",
					"type": "address"
				},
				{
					"indexed": false,
					"internalType": "bytes32",
					"name": "requestId",
					"type": "bytes32"
				},
				{
					"indexed": false,
					"internalType": "uint256",
					"name": "payment",
					"type": "uint256"
				},
				{
					"indexed": false,
					"internalType": "address",
					"name": "callbackAddr",
					"type": "address"
				},
				{
					"indexed": false,
					"internalType": "bytes4",
					"name": "callbackFunctionId",
					"type": "bytes4"
				},
				{
					"indexed": false,
					"internalType": "uint256",
					"name": "cancelExpiration",
					"type": "uint256"
				},
				{
					"indexed": false,
					"internalType": "uint256",
					"name": "dataVersion",
					"type": "uint256"
				},
				{
					"indexed": false,
					"internalType": "bytes",
					"name": "data",
					"type": "bytes"
				}
			],
			"name": "OracleRequest",
			"type": "event"
		},
		{
			"anonymous": false,
			"inputs": [
				{
					"indexed": true,
					"internalType": "bytes32",
					"name": "requestId",
					"type": "bytes32"
				}
			],
			"name": "OracleResponse",
			"type": "event"
		},
		{
			"anonymous": false,
			"inputs": [
				{
					"indexed": true,
					"internalType": "address",
					"name": "acceptedContract",
					"type": "address"
				}
			],
			"name": "OwnableContractAccepted",
			"type": "event"
		},
		{
			"anonymous": false,
			"inputs": [
				{
					"indexed": true,
					"internalType": "address",
					"name": "from",
					"type": "address"
				},
				{
					"indexed": true,
					"internalType": "address",
					"name": "to",
					"type": "address"
				}
			],
			"name": "OwnershipTransferRequested",
			"type": "event"
		},
		{
			"anonymous": false,
			"inputs": [
				{
					"indexed": true,
					"internalType": "address",
					"name": "from",
					"type": "address"
				},
				{
					"indexed": true,
					"internalType": "address",
					"name": "to",
					"type": "address"
				}
			],
			"name": "OwnershipTransferred",
			"type": "event"
		},
		{
			"anonymous": false,
			"inputs": [
				{
					"indexed": false,
					"internalType": "address[]",
					"name": "targets",
					"type": "address[]"
				},
				{
					"indexed": false,
					"internalType": "address[]",
					"name": "senders",
					"type": "address[]"
				},
				{
					"indexed": false,
					"internalType": "address",
					"name": "changedBy",
					"type": "address"
				}
			],
			"name": "TargetsUpdatedAuthorizedSenders",
			"type": "event"
		},
		{
			"inputs": [],
			"name": "EXPIRYTIME",
			"outputs": [
				{
					"internalType": "uint256",
					"name": "",
					"type": "uint256"
				}
			],
			"stateMutability": "view",
			"type": "function"
		},
		{
			"inputs": [
				{
					"internalType": "address[]",
					"name": "targets",
					"type": "address[]"
				},
				{
					"internalType": "address[]",
					"name": "senders",
					"type": "address[]"
				}
			],
			"name": "acceptAuthorizedReceivers",
			"outputs": [],
			"stateMutability": "nonpayable",
			"type": "function"
		},
		{
			"inputs": [
				{
					"internalType": "address[]",
					"name": "ownable",
					"type": "address[]"
				}
			],
			"name": "acceptOwnableContracts",
			"outputs": [],
			"stateMutability": "nonpayable",
			"type": "function"
		},
		{
			"inputs": [],
			"name": "acceptOwnership",
			"outputs": [],
			"stateMutability": "nonpayable",
			"type": "function"
		},
		{
			"inputs": [
				{
					"internalType": "bytes32",
					"name": "requestId",
					"type": "bytes32"
				},
				{
					"internalType": "uint256",
					"name": "payment",
					"type": "uint256"
				},
				{
					"internalType": "bytes4",
					"name": "callbackFunc",
					"type": "bytes4"
				},
				{
					"internalType": "uint256",
					"name": "expiration",
					"type": "uint256"
				}
			],
			"name": "cancelOracleRequest",
			"outputs": [],
			"stateMutability": "nonpayable",
			"type": "function"
		},
		{
			"inputs": [
				{
					"internalType": "uint256",
					"name": "nonce",
					"type": "uint256"
				},
				{
					"internalType": "uint256",
					"name": "payment",
					"type": "uint256"
				},
				{
					"internalType": "bytes4",
					"name": "callbackFunc",
					"type": "bytes4"
				},
				{
					"internalType": "uint256",
					"name": "expiration",
					"type": "uint256"
				}
			],
			"name": "cancelOracleRequestByRequester",
			"outputs": [],
			"stateMutability": "nonpayable",
			"type": "function"
		},
		{
			"inputs": [
				{
					"internalType": "address payable[]",
					"name": "receivers",
					"type": "address[]"
				},
				{
					"internalType": "uint256[]",
					"name": "amounts",
					"type": "uint256[]"
				}
			],
			"name": "distributeFunds",
			"outputs": [],
			"stateMutability": "payable",
			"type": "function"
		},
		{
			"inputs": [
				{
					"internalType": "bytes32",
					"name": "requestId",
					"type": "bytes32"
				},
				{
					"internalType": "uint256",
					"name": "payment",
					"type": "uint256"
				},
				{
					"internalType": "address",
					"name": "callbackAddress",
					"type": "address"
				},
				{
					"internalType": "bytes4",
					"name": "callbackFunctionId",
					"type": "bytes4"
				},
				{
					"internalType": "uint256",
					"name": "expiration",
					"type": "uint256"
				},
				{
					"internalType": "bytes32",
					"name": "data",
					"type": "bytes32"
				}
			],
			"name": "fulfillOracleRequest",
			"outputs": [
				{
					"internalType": "bool",
					"name": "",
					"type": "bool"
				}
			],
			"stateMutability": "nonpayable",
			"type": "function"
		},
		{
			"inputs": [
				{
					"internalType": "bytes32",
					"name": "requestId",
					"type": "bytes32"
				},
				{
					"internalType": "uint256",
					"name": "payment",
					"type": "uint256"
				},
				{
					"internalType": "address",
					"name": "callbackAddress",
					"type": "address"
				},
				{
					"internalType": "bytes4",
					"name": "callbackFunctionId",
					"type": "bytes4"
				},
				{
					"internalType": "uint256",
					"name": "expiration",
					"type": "uint256"
				},
				{
					"internalType": "bytes",
					"name": "data",
					"type": "bytes"
				}
			],
			"name": "fulfillOracleRequest2",
			"outputs": [
				{
					"internalType": "bool",
					"name": "",
					"type": "bool"
				}
			],
			"stateMutability": "nonpayable",
			"type": "function"
		},
		{
			"inputs": [],
			"name": "getAuthorizedSenders",
			"outputs": [
				{
					"internalType": "address[]",
					"name": "",
					"type": "address[]"
				}
			],
			"stateMutability": "view",
			"type": "function"
		},
		{
			"inputs": [],
			"name": "getChainlinkToken",
			"outputs": [
				{
					"internalType": "address",
					"name": "",
					"type": "address"
				}
			],
			"stateMutability": "view",
			"type": "function"
		},
		{
			"inputs": [
				{
					"internalType": "address",
					"name": "sender",
					"type": "address"
				}
			],
			"name": "isAuthorizedSender",
			"outputs": [
				{
					"internalType": "bool",
					"name": "",
					"type": "bool"
				}
			],
			"stateMutability": "view",
			"type": "function"
		},
		{
			"inputs": [
				{
					"internalType": "address",
					"name": "sender",
					"type": "address"
				},
				{
					"internalType": "uint256",
					"name": "amount",
					"type": "uint256"
				},
				{
					"internalType": "bytes",
					"name": "data",
					"type": "bytes"
				}
			],
			"name": "onTokenTransfer",
			"outputs": [],
			"stateMutability": "nonpayable",
			"type": "function"
		},
		{
			"inputs": [
				{
					"internalType": "address",
					"name": "sender",
					"type": "address"
				},
				{
					"internalType": "uint256",
					"name": "payment",
					"type": "uint256"
				},
				{
					"internalType": "bytes32",
					"name": "specId",
					"type": "bytes32"
				},
				{
					"internalType": "bytes4",
					"name": "callbackFunctionId",
					"type": "bytes4"
				},
				{
					"internalType": "uint256",
					"name": "nonce",
					"type": "uint256"
				},
				{
					"internalType": "uint256",
					"name": "dataVersion",
					"type": "uint256"
				},
				{
					"internalType": "bytes",
					"name": "data",
					"type": "bytes"
				}
			],
			"name": "operatorRequest",
			"outputs": [],
			"stateMutability": "nonpayable",
			"type": "function"
		},
		{
			"inputs": [
				{
					"internalType": "address",
					"name": "sender",
					"type": "address"
				},
				{
					"internalType": "uint256",
					"name": "payment",
					"type": "uint256"
				},
				{
					"internalType": "bytes32",
					"name": "specId",
					"type": "bytes32"
				},
				{
					"internalType": "address",
					"name": "callbackAddress",
					"type": "address"
				},
				{
					"internalType": "bytes4",
					"name": "callbackFunctionId",
					"type": "bytes4"
				},
				{
					"internalType": "uint256",
					"name": "nonce",
					"type": "uint256"
				},
				{
					"internalType": "uint256",
					"name": "dataVersion",
					"type": "uint256"
				},
				{
					"internalType": "bytes",
					"name": "data",
					"type": "bytes"
				}
			],
			"name": "oracleRequest",
			"outputs": [],
			"stateMutability": "nonpayable",
			"type": "function"
		},
		{
			"inputs": [],
			"name": "owner",
			"outputs": [
				{
					"internalType": "address",
					"name": "",
					"type": "address"
				}
			],
			"stateMutability": "view",
			"type": "function"
		},
		{
			"inputs": [
				{
					"internalType": "address",
					"name": "to",
					"type": "address"
				},
				{
					"internalType": "bytes",
					"name": "data",
					"type": "bytes"
				}
			],
			"name": "ownerForward",
			"outputs": [],
			"stateMutability": "nonpayable",
			"type": "function"
		},
		{
			"inputs": [
				{
					"internalType": "address",
					"name": "to",
					"type": "address"
				},
				{
					"internalType": "uint256",
					"name": "value",
					"type": "uint256"
				},
				{
					"internalType": "bytes",
					"name": "data",
					"type": "bytes"
				}
			],
			"name": "ownerTransferAndCall",
			"outputs": [
				{
					"internalType": "bool",
					"name": "success",
					"type": "bool"
				}
			],
			"stateMutability": "nonpayable",
			"type": "function"
		},
		{
			"inputs": [
				{
					"internalType": "address[]",
					"name": "senders",
					"type": "address[]"
				}
			],
			"name": "setAuthorizedSenders",
			"outputs": [],
			"stateMutability": "nonpayable",
			"type": "function"
		},
		{
			"inputs": [
				{
					"internalType": "address[]",
					"name": "targets",
					"type": "address[]"
				},
				{
					"internalType": "address[]",
					"name": "senders",
					"type": "address[]"
				}
			],
			"name": "setAuthorizedSendersOn",
			"outputs": [],
			"stateMutability": "nonpayable",
			"type": "function"
		},
		{
			"inputs": [
				{
					"internalType": "address[]",
					"name": "ownable",
					"type": "address[]"
				},
				{
					"internalType": "address",
					"name": "newOwner",
					"type": "address"
				}
			],
			"name": "transferOwnableContracts",
			"outputs": [],
			"stateMutability": "nonpayable",
			"type": "function"
		},
		{
			"inputs": [
				{
					"internalType": "address",
					"name": "to",
					"type": "address"
				}
			],
			"name": "transferOwnership",
			"outputs": [],
			"stateMutability": "nonpayable",
			"type": "function"
		},
		{
			"inputs": [],
			"name": "typeAndVersion",
			"outputs": [
				{
					"internalType": "string",
					"name": "",
					"type": "string"
				}
			],
			"stateMutability": "view",
			"type": "function"
		},
		{
			"inputs": [
				{
					"internalType": "address",
					"name": "recipient",
					"type": "address"
				},
				{
					"internalType": "uint256",
					"name": "amount",
					"type": "uint256"
				}
			],
			"name": "withdraw",
			"outputs": [],
			"stateMutability": "nonpayable",
			"type": "function"
		},
		{
			"inputs": [],
			"name": "withdrawable",
			"outputs": [
				{
					"internalType": "uint256",
					"name": "",
					"type": "uint256"
				}
			],
			"stateMutability": "view",
			"type": "function"
		}
	]
}